:10000000803102288731E12F24001615161909289E
:100010000A2806280800F601F11F0F2810281728C3
:10002000F009F109F00A0319F10AF601F60AF31FC3
:100030001A281B282428F209F309F20A0319F30AE3
:100040000130F4007408F606F701F8017008710435
:1000500003192B282C285B28F501F50A38280130D4
:10006000F035F10D890B30280130F4007408F507E4
:10007000F11F3B283C282F280130F735F80D890B5C
:100080003D2871087302031D472870087202031C83
:100090004A284B2850287008F2027108F33B771465
:1000A0000130F136F00C890B51280130F502031DA7
:1000B0005A285B283C28760803195F2860286528A1
:1000C000F709F809F70A0319F80A7808F100770820
:1000D000F00008002000BF003008C4003108C5004F
:1000E0003208C6003308C7003408C8003508C90004
:1000F0003608CA003708CB0044308600003087003D
:10010000473FB800B81B8528872801308828003071
:100110002000B900BA013908C2003A08C3004208F9
:100120004304031994289528B328C409C509C609AE
:10013000C709C809C909CA09CB09C40A031DB328DC
:10014000C50A031DB328C60A031DB328C70A031D29
:10015000B328C80A031DB328C90A031DB328CA0A55
:10016000031DB328CB0A2200D31BB728B828BC280C
:10017000FD30D405FF30D5055308803A2000B80083
:1001800080303802031DC7280130220052020318B4
:10019000CA28CB28D12801302000BD000030BE0085
:1001A000D928220053082000BE0022005208200057
:1001B000BD00220051082000C1002200500820008C
:1001C000C00042084304031DE628E728EC2822006B
:1001D000541DEB28EC28F128FF302000C007FF3029
:1001E000C13D1F302000CC000030CD002300BF01F6
:1001F0006229FF302000CC07FF30CD3D0A30A0003F
:10020000A101A201A301A401A501A601A70144081F
:10021000A8004508A9004608AA004708AB004808FE
:10022000AC004908AD004A08AE004B08AF008D3164
:100230002825803120002108F4002008F3009031A7
:10024000072080317308303E2000B8004C08A03EE3
:1002500086000130870038088100FF30BD07FF307D
:10026000BE3DFF30C007FF30C13D0A30A000A101F4
:10027000A201A301A401A501A601A7014408A800A9
:100280004508A9004608AA004708AB004808AC008A
:100290004908AD004A08AE004B08AF008E31FF267A
:1002A000803120002008C4002108C5002208C600B3
:1002B0002308C7002408C8002508C9002608CA006A
:1002C0002708CB0020004D08803AB8008030380263
:1002D000031D6C2901304C02031C6F2970299D29D4
:1002E00020004408450446044704480449044A04DD
:1002F0004B04031D7C297D29F9283E08803AB8006B
:1003000080303802031D862901303D0203188929F7
:100310008A29F92820004108803AB8008030380244
:10032000031D942901304002031C972998299D2917
:100330002200D4189C299D29F92820004208430452
:10034000031DA329A429A9292200541DA829A929EC
:10035000C629FF302000CC07FF30CD3D42084304C2
:10036000031DB329B429B9292B30BB000030BC00D0
:10037000BD292D30BB000030BC003B08B8004C0844
:10038000A03E8600013087003808810020004C081C
:10039000A03EB8003808A4004108A6004008A50007
:1003A0003F0893312C23803120002508B100240818
:1003B000B0000800200027088039A8002808B100F4
:1003C0002735A8002808B800A61FE729E829E92949
:1003D000381438080319ED29EE29FE29380A031DBF
:1003E000F229F329FB290030A7000030A6000030D5
:1003F000A5000030A400A617A701062A0030A70018
:100400000030A6000030A5000030A4002308803989
:10041000A8002808B1062335A8002808B900A21FA3
:10042000122A132A142A391439080319182A192AE6
:10043000292A390A031D1D2A1E2A262A0030A30054
:100440000030A2000030A1000030A000A217A301DC
:10045000312A0030A3000030A2000030A10000309B
:10046000A0002308220421042004031D382A392A6D
:10047000522A0030A7000030A6000030A50000304E
:10048000A4008030A6047F30A7043108A800280803
:10049000A7042708A3002608A2002508A100240815
:1004A000A0008D2B3808031D562A572A602A0030D9
:1004B000A3000030A2000030A1000030A0008D2B6E
:1004C0003808A800A9012908AB0039082802AA00A9
:1004D000031CAB032A087F3EB20000302B3DB30063
:1004E0002708B0002608AF002508AE002408AD009C
:1004F0000030A7000030A6000030A5000030A400A6
:100500000030B7000030B6000030B5000030B40055
:10051000B901C82A390803198E2A8F2AA92A01305D
:10052000AD35AE0DAF0DB00D890B902A0130A4355D
:10053000A50DA60DA70D890B972AB71FA02AA12AE2
:10054000A22A24140130B435B50DB60DB70D890BB0
:10055000A32A23083002031DB72A22082F02031DF5
:10056000B72A21082E02031DB72A20082D02031CDA
:10057000BA2ABB2AC42A37172008AD022108AE3B8D
:100580002208AF3B2308B03B0130A8002808B90778
:100590001A303902031CCD2ACE2A8A2A30082F04A9
:1005A0002E042D040319D52AD62AEF2A3414EF2A53
:1005B0000130A435A50DA60DA70D890BD92AB71FAB
:1005C000E22AE32AE42A24140130B435B50DB60D2D
:1005D000B70D890BE52AFF30B207FF30B33DA61FE8
:1005E000F22AF32AD82AB901B71FF72AF82A142BBE
:1005F000FF303405A800FF303505A900FF3036056F
:10060000AA007F303705AB002B082A0429042804F0
:1006100003190B2B0C2B0F2BB901B90A142B241C1B
:10062000122B132B142B0C2B39080319182B192BF5
:10063000412B0130A4070030A53D0030A63D00301D
:10064000A73D271C242B252B412B2408A800250877
:10065000A9002608AA002708AB000130AC00AB3780
:10066000AA0CA90CA80CAC0B2F2B2B08A7002A084E
:10067000A6002908A5002808A4000130B207003010
:10068000B33D3308803AA80080302802031D4A2B6E
:10069000FF303202031C4D2B4E2B5B2BFF30200012
:1006A000B2000030B3000030A7000030A6000030D8
:1006B000A5000030A40020003308803AA800803054
:1006C0002802031D652B013032020318682B692BA9
:1006D000752B2000B201B3010030A7000030A60046
:1006E0000030A5000030A400B10120003208A800AD
:1006F0002808B800381C7D2B7E2B802BA617842B56
:100700007F30A8002808A6053836A8002808A700CA
:100710003108A8002808A704492A08002000EC0096
:100720004E0886008701403FD000413FD10050086D
:100730008400510885001200253A031DA02BA12B2F
:10074000662D4E088600870101308107413103186C
:10075000810A2200D001D101D401D501FF30D2009D
:10076000FF30D30020004E0886008701403FD000B4
:10077000413FD10050088400510885001200643ABE
:100780000319C32BC42BD52B4E0886008701403F8D
:10079000D000413FD100500884005108850012006C
:1007A000693A031DD42BD52B102C4E0886008701E7
:1007B0000130810741310318810A4F088600870103
:1007C00001088400850102308107003FD000013F0D
:1007D000D1005008DC005108DD00890D893B8909F2
:1007E000DE00DF00E000E100E200E3005C08B000B2
:1007F0005D08B1005E08B2005F08B3006008B40095
:100800006108B5006208B6006308B7006C08803163
:100810006A20833120003108CF003008CE00892DB6
:100820004E0886008701403FF000413FF1003E3016
:10083000F200A030F3000230F4000030F5009431F3
:100840003A248331700871040319272C282C412C79
:1008500020004E0886008701403FF000413FF10034
:100860004130F200A030F3000230F4000030F50017
:1008700094313A24833170087104031D402C412CBB
:10088000832C20004E088600870102308107413109
:100890000318810A4F08860087010108840085013A
:1008A00004308107003FD000013FD100023FD20059
:1008B000033FD3005008DC005108DD005208DE0081
:1008C0005308DF000030DF1BFF30E000E100E200F2
:1008D000E3005C08B0005D08B1005E08B2005F088C
:1008E000B3006008B4006108B5006208B600630890
:1008F000B7006C0880316A20833120003108CF00B6
:100900003008CE00892D20004E0886008701403F28
:10091000D000413FD10050088400510885001200EA
:10092000753A031D942C952CC92C4E08860087011E
:100930000130810741310318810A4F088600870181
:1009400001088400850102308107003FE400013F77
:10095000E500E601E701E801E901EA01EB016408CD
:10096000B0006508B1006608B2006708B300680807
:10097000B4006908B5006A08B6006B08B7006C08D7
:100980008E311226833120003108CF003008CE008E
:10099000892D4E0886008701403FF000413FF1005D
:1009A0004430F200A030F3000230F4000030F500D3
:1009B00094313A24833170087104031DE02CE12C3A
:1009C000302D20004E08860087010230810741311A
:1009D0000318810A4F0886008701010884008501F9
:1009E00004308107003FD000013FD100023FD20018
:1009F000033FD3005008D4005108D5005208D60058
:100A00005308D700D801D901DA01DB015B08EB00FC
:100A10005A08EA005908E9005808E8005708E700B2
:100A20005608E6005508E5005408E4006408B000E4
:100A30006508B1006608B2006708B3006808B40032
:100A40006908B5006A08B6006B08B7006C088E31FB
:100A50001226833120003108CF003008CE00892DC6
:100A600020004E0886008701403FD000413FD10062
:100A700050088400510885001200253A031D412DBD
:100A8000422D5B2D4E0886008701013081074131E0
:100A90000318810A2530F0000030F1006C08D00006
:100AA0005008F2009131DD21833101302000CE0069
:100AB0000030CF00892D4E08860087010130810764
:100AC00041310318810ACE01CF01892D4E088600DD
:100AD0008701403FD000413FD100500884005108B9
:100AE00085000008D200D3015208F0005308F1003D
:100AF0006C08D4005408F2009131DD2183312000CC
:100B00004E08860087010130810741310318810AB0
:100B1000552D080020003D088039C2004208C7005A
:100B20003D35C2004208CD00BC1F972D982D992D50
:100B30004D144D0803199D2D9E2DAD2D4D0A031DFD
:100B4000A22DA32DAB2D0030BD000030BC00003025
:100B5000BB000030BA00BC17B52D0030BD0000301E
:100B6000BC000030BB000030BA0041088039C20030
:100B70004208C7064135C2004208CC00C01FC12D43
:100B8000C22DC32D4C144C080319C72DC82DD72DC9
:100B90004C0A031DCC2DCD2DD52D0030C1000030C9
:100BA000C0000030BF000030BE00C017DF2D003095
:100BB000C1000030C0000030BF000030BE004C0853
:100BC0000319E32DE42DE92D4D08031DE82DE92D32
:100BD000F22D0030BD000030BC000030BB00003002
:100BE000BA00E02F3A08C2004208F00040089031F5
:100BF0007120853171082000D3007008D20052089E
:100C0000C200C301C401C5014508CB004408CA00A5
:100C10004308C9004208C8005308C200C301C40108
:100C2000C5014508D1004408D0004308CF00420860
:100C3000CE003B08C2004208F0003F08903171200E
:100C4000853171082000D3007008D2005208C2001C
:100C5000C301C401C5014208C8074308C93D44088F
:100C6000CA3D4508CB3D5308C200C301C401C501BC
:100C70004208CE074308CF3D4408D03D4508D13D4A
:100C80003C08C2004208F0003E08903171208531D6
:100C900071082000D3007008D2005208C200C301BE
:100CA000C401C5014208C8074308C93D4408CA3DFC
:100CB0004508CB3D5308C200C301C401C501420829
:100CC000CE074308CF3D4408D03D4508D13D08300C
:100CD000C835C90DCA0DCB0D890B682E3B08C20063
:100CE0004208F0003E0890317120853171082000E3
:100CF000D3007008D2005208C8075308C93D00301D
:100D0000CA3DCB3D3A08C2004208F0003F0890318E
:100D10007120853171082000D3007008D20052087C
:100D2000C8075308C93D0030CA3DCB3D0830C8351F
:100D3000C90DCA0DCB0D890B972E3A08C200420887
:100D4000F0003E0890317120853171082000D300F9
:100D50007008D2005208C8075308C93D0030CA3D88
:100D6000CB3D3B08C2004208F000400890317120A2
:100D7000853171082000D3007008D2005208CE07D8
:100D80005308CF3D0030D03DD13D3C08C200420861
:100D9000F0003F0890317120853171082000D300A8
:100DA0007008D2005208CE075308CF3D0030D03D26
:100DB000D13D3C08C2004208F0004008903171204B
:100DC000853171082000D3007008D2005208C2009B
:100DD0005308C300C401C5010830C235C30DC40D9A
:100DE000C50D890BED2E4208CE074308CF3D4408C0
:100DF000D03D4508D13D4808C2004908C3004A0813
:100E0000C4004B08C5001830C536C40CC30CC20C56
:100E1000890B042F4208CE074308CF3D4408D03D3C
:100E20004508D13D0830C835C90DCA0DCB0D890B19
:100E3000132F4D084C07C200C301C30D4208823E68
:100E4000D200FF30433DD3003C2F0130CE35CF0DD3
:100E5000D00DD10D890B262FCB1F2F2F302F312FE7
:100E60004E140130C835C90DCA0DCB0D890B322F78
:100E7000FF30D207FF30D33DD01F3F2F402F252F0B
:100E8000CC01CB1F442F452F612FFF304805C200F6
:100E9000FF304905C300FF304A05C4007F304B05D1
:100EA000C50045084404430442040319582F592F30
:100EB0005C2FCC01CC0A612F4E1C5F2F602F612F5D
:100EC000592F4C080319652F662F8E2F0130CE073E
:100ED0000030CF3D0030D03D0030D13D511C712F4E
:100EE000722F8E2F4E08C2004F08C3005008C40056
:100EF0005108C5000130C600C537C40CC30CC20C74
:100F0000C60B7C2F4508D1004408D0004308CF0011
:100F10004208CE000130D2070030D33D5308803A5A
:100F2000C20080304202031D972FFF305202031C83
:100F30009A2F9B2FA52F7F302000D1008030D0002A
:100F40000030CF000030CE00D42F20005308803A6C
:100F5000C20080304202031DAF2F0130520203183D
:100F6000B22FB32FBE2F00302000D1000030D000B0
:100F70000030CF000030CE00C701D42F200052082F
:100F8000C2004208CD00FF30CE05FF30CF057F30D4
:100F9000D0050030D1054D1CCE2FCF2FD02FD0172C
:100FA0004D36C2004208D1004708C2004208D104B1
:100FB0005108BD005008BC004F08BB004E08BA00E5
:100FC0000800B83084009030850020308600013061
:100FD000870024309E31C826873144308400013098
:100FE000850013309E31C2268731A0308400013045
:100FF000850020309E31C226873120008B31892B1D
:1010020008002100C5004508033E86008701330819
:10101200C03F3408C13F0F30A500A030A6003408FD
:10102200A8003308A700B5309031DC2088312100B8
:10103200450A86008701010891319F218831B53028
:10104200FA000030FB002100450A860087010108F2
:10105200903194208831210045088831D52088318B
:101062000800F500750A860087010103031D3A286E
:101072003B28452820000D080139F200F3017208CF
:10108200F0007308F100D428750A86008701023047
:101092000106031D4D284E28582820000D0C013949
:1010A200F200F3017208F0007308F100D428750A07
:1010B2008600870104300106031D602861286C2820
:1010C20020000D0C890C0139F200F3017208F000C6
:1010D2007308F100D428750A8600870108300106DA
:1010E200031D74287528822820000D0CF200F20CD2
:1010F200720C0139F300F4017308F0007408F10076
:10110200D428750A8600870110300106031D8A283B
:101112008B28952820000D0E0139F200F301720888
:10112200F0007308F100D428750A86008701203088
:101132000106031D9D289E28A92820000D0E890C5A
:101142000139F200F3017208F0007308F100D428AB
:10115200750A8600870140300106031DB128B228B6
:10116200BE2820000D0E890C890C0139F200F30112
:101172007208F0007308F100D428750A860087010E
:1011820080300106031DC628C728D22820000D0D75
:101192000D0D0139F200F3017208F0007308F1003D
:1011A200D428F001F10108002000EC0010302100E9
:1011B200A00020082000A0006C088600870101081A
:1011C2008C314524883120006C0886008701010893
:1011D200063E860087012008C03F2108C13F220841
:1011E200C23F2308C33F6C0886008701010897317C
:1011F2006627883120006C088600870101080A3EB4
:101202008600870116000104031D082909290F29F8
:101212006C08053E86008701810179296C088600E9
:10122200870101080A3E86008701403F2100A00095
:10123200413FA1002008F0002108F100F201F30172
:1012420000308A312322883173082000A7007208F7
:10125200A6007108A5007008A4006C08033E860071
:101262008701403F2100A200413FA3002208F00075
:101272002308F100F201F30100308A312322883180
:1012820073082000A3007208A2007108A100700870
:10129200A0008131DA21883120002308C100220810
:1012A200C0002108BF002008BE004230BD00C83087
:1012B200BC000030BB000030BA0085318A2588317D
:1012C20020003D08D7003C08D6003B08D5003A086C
:1012D200D4009531DE258831200054082100A40075
:1012E20020006C08053E8600870121002408810049
:1012F2000800F8000530F7000F30F600F130890BD6
:101302008029F60B8029F70B802900003030F60087
:101312007608F30078089031562089310D30F600B6
:10132200FC30890B9229F60B92293030F6007608B0
:10133200F30078089031562089310D30F600FC30E8
:10134200890BA129F60BA1293030F6007608F300AB
:101352007808903156208931C830890BAE29203067
:10136200F6007608F300780890315620893106306D
:10137200890BB92900322030F6007608F30078088C
:101382009031562089314230890BC5290032803094
:10139200F6007608F3007808903156208931F3017F
:1013A20078089031562089314230890BD629003293
:1013B200C030F6007608F300780890315620893163
:1013C200F30178089031562089314230890BE729A0
:1013D20000321030F6007608F3007808903156207B
:1013E20089310D30F600FC30890BF529F60BF52911
:1013F200F30178089031562089314230890BFF2958
:1014020000326030F6007608F300780890315620FA
:101412008931F30178089031562089314230890BA5
:10142200102A00322030F6007608F3007808903156
:10143200562089310830F600CA30890B1E2AF60B75
:101442001E2A0800F80078080319282A292A3D2AAA
:10145200F31F2C2A2D2A3D2A7009FA007109FB007C
:101462007209FC007309FD00FA0A0319FB0A031949
:10147200FC0A0319FD0A452A7308FD007208FC00E4
:101482007108FB007008FA0073087204710470049A
:10149200031D4C2A4D2A562A0030F3000030F20078
:1014A2000030F1000030F000CE2A9630F4007408CB
:1014B200F900662A0130F4007408F9070130FD369C
:1014C200FC0CFB0CFA0C890B602AFE307D05031D17
:1014D2006B2A6C2A5B2A802A0130F4007408F9070F
:1014E2000130FA070030FB3D0030FC3D0030FD3D8D
:1014F2000130FD36FC0CFB0CFA0C890B7A2AFF300A
:101502007D05031D852A862A6D2A902A0130F9025B
:101512000130FA35FB0DFC0DFD0D890B8A2AFC1BEF
:10152200932A942A9A2A023079020318992A9A2A2B
:10153200872A79189D2A9E2AA62AFF30FA05FF30AB
:10154200FB057F30FC05FF30FD050310F90C79081F
:10155200F400F501F601F7011830F435F50DF60D3A
:10156200F70D890BAE2A7408FA047508FB04760895
:10157200FC047708FD0478080319C02AC12AC62A88
:10158200F31FC42AC52AC62AFD177D08F3007C086A
:10159200F2007B08F1007A08F00008002000AA009F
:1015A20022003D082000A90022003C082000A800DB
:1015B20022003B082000A70022003A082000A600D3
:1015C2007D08A2002208AB00E830F0000330F100F1
:1015D2002B08A200A3012208F2002308F3008031A5
:1015E2000B208A3170082000A4002408F9002A0880
:1015F2009E31CE268A312000A5002508A600E830BB
:10160200F0000330F1002B08A200A3012208F2002F
:101612002308F30092312C228A3170082000A400A2
:101622002408AB006430F0000030F1002B08A20067
:10163200A3012208F2002308F30080310B208A3133
:1016420070082000A4002408F9002A089E31CE2642
:101652008A312000A5002508A7006430F000003080
:10166200F1002B08A200A3012208F2002308F300D4
:1016720092312C228A3170082000A4002408AB0089
:101682000A30F0000030F1002B08A200A30122086A
:10169200F2002308F30080310B208A317008200009
:1016A200A4002408F9002A089E31CE268A3120009F
:1016B200A5002508A8000A30F0000030F1002B0830
:1016C200A200A3012208F2002308F30092312C2287
:1016D2008A3170082000A4002408AB002B08A20065
:1016E2002208F9002A089E31CE268A312000A30062
:1016F2002308A9002630A2002208F8000430A30023
:101702002308F900FA012A089331DF238A310800FD
:101712009E31D6268B3123008C018D0104302100AD
:101722008D00F8308E0022008C018D018E01133065
:101732002400920028309500960194012030860002
:1017420001308700DE308400003085000C3021003B
:10175200D60016001A00D60BAA2B2200410821003F
:10176200DB00220040082100DA0022003F082100AD
:10177200D90022003E082100D8002200430821009F
:10178200DD00220042082100DC00443086000130E6
:101792008700EA308400003085000630D60016004B
:1017A2001A00D60BD02BDE30D6005608EA00D8300D
:1017B200D6005608EB00DC30D6005608EC00F430B8
:1017C200ED000130EE00EF01EA309631D7268B3181
:1017D200EA308831D5208B31EA30943196248B312E
:1017E20020008E1BF52BF62B0C2CF4302100B300BD
:1017F2000130B400EA30883102208B310B302100F5
:10180200D7002630D6005D30890B052CD60B052C6F
:10181200D70B052C003220000E1B102C112C272C6C
:101822005E302100B3000130B400EA30883102207A
:101832008B310B302100D7002630D6005D30890B6A
:10184200202CD60B202CD70B202C003220008E1AF5
:101852002B2C2C2CE92B63302100B3000130B40077
:10186200EA30883102208B310B302100D70026303C
:10187200D6005D30890B3B2CD60B3B2CD70B3B2C77
:101882000032E92B803102282000B20032089E315A
:10189200EA268C3100302000B0000030AF0000306A
:1018A200AE000030AD000030AB000030AA000030C6
:1018B200A9000030A800AC01E42C200032088831D5
:1018C20032208C31700871040319682C692C5E2C4B
:1018D20020003208883132208C31700371040319E0
:1018E200732C742C692C0630890B752C0032200065
:1018F200B1010130AD35AE0DAF0DB00D890B7B2CB2
:1019020032089E31E0268C310630890B862C00325B
:10191200200032089E31EA268C31200032088831BC
:1019220032208C3170082000A4007108A50000301C
:10193200A51BFF30A600A7002408AD072508AE3D71
:101942002608AF3D2708B03D0630890BA62C003291
:1019520001302000A4002408B10718303102031C12
:10196200B32CB42C7A2CB10132089E31E0268C3192
:101972000630890BBA2C0032200032089E31EA264A
:101982008C310630890BC32C003201302000A400B8
:101992002408B10731080319CF2CD02CB52C2D08FF
:1019A200A8072E08A93D2F08AA3D3008AB3D0030FC
:1019B200B0000030AF000030AE000030AD000130AA
:1019C200A4002408AC0720082C02031CE92CEA2CF2
:1019D2005E2C2008A400A501A601A7012708F30098
:1019E2002608F2002508F1002408F0002B08F70071
:1019F2002A08F6002908F5002808F4009331852307
:101A02008C3173082000B0007208AF007108AE007C
:101A12007008AD0000302D06A40000302E06A5008F
:101A220080302F06A60000303006A7002708B0003D
:101A32002608AF002508AE002408AD003008A30038
:101A42002F08A2002E08A1002D08A0000800F20114
:101A52002830860000308700473FF000F01F322D0B
:101A6200332D542D2000A809A909AA09AB09AC09F4
:101A7200AD09AE09AF09A80A031D522DA90A031D1B
:101A8200522DAA0A031D522DAB0A031D522DAC0A78
:101A9200031D522DAD0A031D522DAE0A031D522DF8
:101AA200AF0AF201F20A2030860000308700473F79
:101AB200F000F01F5D2D5E2D7D2D2000A009A109F3
:101AC200A209A309A409A509A609A709A00A031D39
:101AD2007D2DA10A031D7D2DA20A031D7D2DA30AC2
:101AE200031D7D2DA40A031D7D2DA50A031D7D2D39
:101AF200A60A031D7D2DA70A200020082104220426
:101B0200230424042504260427040319892D8A2D7D
:101B1200DD2DF101F10A992DA035A10DA20DA30D24
:101B2200A40DA50DA60DA70D0130F0007008F10758
:101B3200A71F9C2D9D2D8D2D27082F02031DBB2D28
:101B420026082E02031DBB2D25082D02031DBB2DC9
:101B520024082C02031DBB2D23082B02031DBB2DC1
:101B620022082A02031DBB2D21082902031DBB2DB9
:101B720020082802031CBE2DBF2DCF2D2008A8024D
:101B82002108A93B2208AA3B2308AB3B2408AC3B13
:101B92002508AD3B2608AE3B2708AF3BA736A60C6F
:101BA200A50CA40CA30CA20CA10CA00C0130F102F8
:101BB200031DDC2DDD2D9D2D72080319E12DE22D73
:101BC200002EA809A909AA09AB09AC09AD09AE09F9
:101BD200AF09A80A031D002EA90A031D002EAA0A96
:101BE200031D002EAB0A031D002EAC0A031D002E9E
:101BF200AD0A031D002EAE0A031D002EAF0A2000FF
:101C02002808A0002908A1002A08A2002B08A30086
:101C12002C08A4002D08A5002E08A6002F08A70056
:101C220008002000BA002200D31B182E192E1D2EE8
:101C3200FD30D405FF30D5055308803AFD008030D1
:101C42007D02031D262E013052020318292E2A2E50
:101C5200302E01302000B8000030B900382E2200AA
:101C620053082000B900220052082000B8002200C8
:101C720051082000BC00220050082000BB003008A0
:101C8200BD003108BE003208BF003308C00034086E
:101C9200C1003508C2003608C3003708C4001F302F
:101CA200C5000030C6002300BF01B82EFF3020005F
:101CB200C507FF30C63D0A30A000A101A201A30161
:101CC200A401A501A601A7013D08A8003E08A9009C
:101CD2003F08AA004008AB004108AC004208AD0032
:101CE2004308AE004408AF0095316D258E312000C7
:101CF2002008303EFD004508A03E860001308700E6
:101D02007D088100FF30B807FF30B93DFF30BB07C7
:101D1200FF30BC3D0A30A000A101A201A301A40131
:101D2200A501A601A7013D08A8003E08A9003F0899
:101D3200AA004008AB004108AC004208AD004308CD
:101D4200AE004408AF00963153268E3120002008A1
:101D5200BD002108BE002208BF002308C0002408DD
:101D6200C1002508C2002608C3002708C4002000BD
:101D7200450846040319BE2EBF2EEB2E3D083E0435
:101D82003F0440044104420443044404031DCA2E98
:101D9200CB2E572E3908803AFD0080307D02031D7C
:101DA200D42E013038020318D72ED82E572E2000F9
:101DB2003C08803AFD0080307D02031DE22E013096
:101DC2003B02031CE52EE62EEB2E2200D418EA2E4F
:101DD200EB2E572E20004508A03EFD007D08A400F2
:101DE2003C08A6003B08A5003A0893312C238E310B
:101DF20020002508B1002408B0000800F2012030BC
:101E0200860000308700473FF000F01F092F0A2F9D
:101E12002B2F2000A009A109A209A309A409A50941
:101E2200A609A709A00A031D292FA10A031D292F0C
:101E3200A20A031D292FA30A031D292FA40A031D89
:101E4200292FA50A031D292FA60A031D292FA70A38
:101E5200F201F20A2830860000308700473FF00086
:101E6200F01F342F352F582F2000A809A909AA09DD
:101E7200AB09AC09AD09AE09AF09A80A031D542F7D
:101E8200A90A031D542FAA0A031D542FAB0A031DCE
:101E9200542FAC0A031D542FAD0A031D542FAE0A52
:101EA200031D542FAF0A0130F0007008F2067330A0
:101EB2008600003087000830F00000301E00F00B72
:101EC2005F2F200020082104220423042404250477
:101ED2002604270403196E2F6F2FCB2FF101F10A6D
:101EE2007E2FA035A10DA20DA30DA40DA50DA60D4B
:101EF200A70D0130F0007008F107A71F812F822F74
:101F0200722FF335F40DF50DF60DF70DF80DF90DF1
:101F1200FA0D27082F02031DA82F26082E02031DE3
:101F2200A82F25082D02031DA82F24082C02031D0B
:101F3200A82F23082B02031DA82F22082A02031D03
:101F4200A82F21082902031DA82F20082802031CFC
:101F5200AB2FAC2FBD2F2008A8022108A93B2208D5
:101F6200AA3B2308AB3B2408AC3B2508AD3B260823
:101F7200AE3B2708AF3B7314A736A60CA50CA40CE6
:101F8200A30CA20CA10CA00C0130F102031DCA2F5C
:101F9200CB2F822F72080319CF2FD02FEE2FF309E8
:101FA200F409F509F609F709F809F909FA09F30A32
:101FB200031DEE2FF40A031DEE2FF50A031DEE2F6B
:101FC200F60A031DEE2FF70A031DEE2FF80A031D72
:101FD200EE2FF90A031DEE2FFA0A73082000A00063
:101FE2007408A1007508A2007608A3007708A4006F
:101FF2007808A5007908A6007A08A70008007030C2
:102002002100990098012200960108007408803A84
:10201200F50080307502031D102801307302031889
:102022001328142820287309F5007409F600F50A0C
:102032000319F60A7508F3007608F4002028080050
:10204200F4007408F2007208F3002B280130F20049
:102052007208F40774088600013087000108031D26
:1020620033283428272873087402F000F101F01B8A
:10207200F1030800220090018C018D018E010830CD
:1020820021009000FF308C00FF308D00FF308E0069
:10209200FE3023008D001F308C00240090018D0142
:1020A2002100951722009D010800F5007308F40035
:1020B2007408F10075089F319D2790317308043828
:1020C200F4007408F10075089F319D279031730860
:1020D200F4007408F10075089F319D2790310800C3
:1020E200F800F401F5017008F200F3017208F6003D
:1020F2007308F700781C7E287F2883287608F40767
:102102007708F53D0130F635F70D890B8428031069
:10211200F80C7808031D8E288F287B287508F1009B
:102122007408F00008002000A100AE287A0884009C
:102132007B0885000008FC007C082000A00001301C
:10214200FA070030FB3D2008FC007C08F300F40194
:10215200F40A21089231D52290317A0884007B0852
:1021620085001200031DB628B728972808000234FC
:1021720004340034003400340034003400340034B9
:102182000034F43401343F3406345B344F34663463
:102192006D347D3407347F346F340034403414346A
:1021A2005434FF34FF34FF34FF3427341034023404
:1021B2000034083410342100AD00A730AB002B08E6
:1021C200AC002D08AB002B08AE00AF01B001B1018D
:1021D200B20126082000EE00210025082000ED00B3
:1021E200AC302100AB002B082000EF00AE30913163
:1021F2006621903121002F082D07AB002B088600A5
:102202008701810108002000A300A101A2011C296D
:102212002008F900FA017908F0007A08F10078083C
:10222200FB007B08F2009131DD2191310130200069
:10223200A1070030A23D21082307F9007908860092
:10224200013087000108FA007A08A0002008031D67
:102252002B292C29092908002000A5002200390871
:102262002000A300220038082000A2002200370824
:102272002000A100220036082000A0002508023E0E
:10228200860087017B08010203184829492952293F
:102292002508023E860087010108FF3EFC007C08FB
:1022A200FB007B08203E8600870101087A07803800
:1022B200FC007C08A4002408FC007C08F300F40164
:1022C20025089231D522913108002100A200200078
:1022D2006E082100A40020006D082100A300220046
:1022E200CE01CF018C29A330A00020082000CE000F
:1022F2006F082100A10021082000CF002100220840
:1023020083318E23913120004E082200CE07200017
:102312004F082200CF3D21002308840024088500B5
:102322001200031D95299629742922004F082000C6
:10233200EE0022004E082000ED0008002000AA0056
:10234200A801CC29A901BF292908A6002608FA005C
:102352002808A7002708FB002A0891312D21913176
:102362004730FA00A030FB0020002A089031942068
:10237200913101302000A6002608A9072A0A86000A
:10238200870101082902031CC729C829A529013090
:10239200A6002608A8072A08023E8600870101082F
:1023A2002802031CD529D629A329FA01FB012A08F0
:1023B20091312D219131080072080319E129E22996
:1023C200E7297208031DE629E729EC2970088831FC
:1023D200012091312B2A7208033E860087011600E4
:1023E20001040319F529F629132A7208033E86000F
:1023F2008701403FF300413FF400720A86008701E3
:10240200403FF500413FF6007608803AF700740835
:10241200803A7702031D0F2A730875020318122AE5
:10242200132A2B2A7008F300720886008701720AA9
:102432008400850100080107F40074088600870102
:1024420073088100720A86008701013081074131D9
:102452000318810A0800F601F31F302A312A382AAC
:10246200F209F309F20A0319F30AF601F60AF11F57
:102472003B2A3C2A412AF009F109F00A0319F10A20
:10248200700871040319462A472A702AF501F50AD1
:10249200532A0130F035F10D890B4B2A0130F4003B
:1024A2007408F507F11F562A572A4A2A710873023F
:1024B200031D5D2A70087202031C602A612A652AC4
:1024C2007008F2027108F33B0130F136F00C890B0F
:1024D200662A0130F502031D6F2A702A572A7608F0
:1024E2000319742A752A7A2AF209F309F20A0319DE
:1024F200F30A7308F1007208F0000800F70072088E
:10250200F3007308F50077089F3108279231F6012E
:1025120077089E31FE269231751C902A912A962ABE
:1025220077089F31122792319A2A77089F311C2708
:10253200923177089E31F42692317536F300730892
:10254200F5000130F3007308F60708307602031C29
:10255200AB2AAC2A892A77089E31FE269231770867
:102562009F311227923177089E31F42692317708F3
:102572009F313027923177089431FD249231F30054
:102582007308F4007408031DC72AC82AD02A7708E2
:102592009F312627923177089F311C279231770885
:1025A2009F31262792310800F9007908033E860000
:1025B20087017308F03901047404F5007508F70007
:1025C2007908033E860087017308F5000330F5356C
:1025D200FF3E031DE82A7535F03901047404F60044
:1025E2007608F8007708F5007508F10079089F3140
:1025F2009D27923177080438F5007508F1007908B3
:102602009F319D2792317708FB39F5007508F1005B
:1026120079089F319D2792314230890B0E2B00326F
:102622007808F5007508F10079089F319D279231ED
:1026320078080438F5007508F10079089F319D2764
:1026420092317808FB39F5007508F10079089F315D
:102652009D27923108002000AB002200541C322B2F
:10266200332B3C2B20002B08FC007C08F8002408AC
:102672009131042193312000A61B402B412B462B84
:102682002608AA002508A900482BA901AA01A7012A
:10269200A8015C2B2030F0000030F10020002B0854
:1026A200FC007C08F2009131DD21933101302000E1
:1026B200A7070030A83D2808803AFC002A08803A83
:1026C2007C02031D662B29082702031C692B6A2B37
:1026D2004B2B220054186E2B6F2B782B20002B08CB
:1026E200FC007C08F8002408913104219331200079
:1026F2002408903121209331200029087007A4007A
:102702002A08713DA50008000030FC000030FB00E3
:102712000030FA000030F90073087204710470048A
:102722000319942B952BD62BFD01FD0AA32B013007
:10273200F035F10DF20DF30D890B992B0130F800F4
:102742007808FD07F31FA62BA72B982B0130F9352C
:10275200FA0DFB0DFC0D890BA82B73087702031DE4
:10276200BC2B72087602031DBC2B71087502031D77
:10277200BC2B70087402031CBF2BC02BC92B700822
:10278200F4027108F53B7208F63B7308F73B7914C3
:102792000130F336F20CF10CF00C890BCA2B01302C
:1027A200FD02031DD52BD62BA72B7C08F3007B083B
:1027B200F2007A08F1007908F00008002000A10078
:1027C20021089F31CC2793314030FB007B08F20077
:1027D2002000210892317F229331200021089F316D
:1027E200E6279331200021089F31CC2793317A08C4
:1027F2000339C03EFB007B08F20020002108923121
:102802007F2293312000A001192C20087807FB00B9
:102812007B08860087010108FC007C08F200210881
:1028220092317F2293310130FB007B082000A00708
:1028320079082002031C1E2C1F2C062C21089F3114
:10284200E6279331200021089F31CC2793312200C3
:1028520056080F39803EFB007B08F2002000210859
:1028620092317F229331200021089F31E627933154
:1028720008007108F8007008F7007308FA0072087F
:10288200F9000130F4020030F53B740A031D4D2CAF
:10289200750A031D4D2C4E2C5D2CF001F101952C77
:1028A2000130F7070030F83D0130F9070030FA3DFA
:1028B2000130F4020030F53B770884007808850087
:1028C20012000319652C662C852C790884007A087D
:1028D2008500120003196E2C6F2C852C7408750468
:1028E2000319742C752C852C790884007A088500CC
:1028F2000008F6007708840078088500000876064C
:102902000319842C852C512C7708840078088500C3
:102912000008F600790884007A088500000876022B
:10292200F000F101031CF10308002100D50026305C
:10293200A500A030A60055088600870101080A3EBE
:1029420086008701403FA700413FA8005508033E8B
:1029520086008701403FA900413FAA00B53090316F
:10296200DC20943138302100A500A030A6005508A3
:10297200053E860087010108B300B4013308A700B1
:102982003408A800C5309031DC2094312100550A6A
:1029920086008701010891319F219431B5302000D2
:1029A200A6000030A700A801A9012100550A86004F
:1029B200870101089F31B4279431C5302000A60059
:1029C2000030A700A801A901A90A2100550A860022
:1029D200870101089F31B4279431210055088600F0
:1029E2008701453FFD005508023E86008701010828
:1029F2008A31CF2294310800F100710A86008701E2
:102A02000103031D052D062D0A2D20000D08013995
:102A12006C2D710A8600870102300106031D122DFA
:102A2200132D172D20000D0C01396C2D710A860013
:102A3200870104300106031D1F2D202D252D2000A6
:102A42000D0C890C01396C2D710A86008701083042
:102A52000106031D2D2D2E2D352D20000D0CF0000D
:102A6200F00C700C01396C2D710A86008701103050
:102A72000106031D3D2D3E2D422D20000D0E013974
:102A82006C2D710A8600870120300106031D4A2D34
:102A92004B2D502D20000D0E890C01396C2D710A21
:102AA2008600870140300106031D582D592D5F2DE8
:102AB20020000D0E890C890C01396C2D710A8600DB
:102AC200870180300106031D672D682D6C2D2000C3
:102AD2000D0D0D0D013908002000200821042204EB
:102AE200230424042504260427040319792D7A2DAE
:102AF200CD2DF101F10A892DA035A10DA20DA30D55
:102B0200A40DA50DA60DA70D0130F0007008F10768
:102B1200A71F8C2D8D2D7D2D27082F02031DAB2D78
:102B220026082E02031DAB2D25082D02031DAB2DF9
:102B320024082C02031DAB2D23082B02031DAB2DF1
:102B420022082A02031DAB2D21082902031DAB2DE9
:102B520020082802031CAE2DAF2DBF2D2008A8028D
:102B62002108A93B2208AA3B2308AB3B2408AC3B23
:102B72002508AD3B2608AE3B2708AF3BA736A60C7F
:102B8200A50CA40CA30CA20CA10CA00C0130F10208
:102B9200031DCC2DCD2D8D2D2808A0002908A100C4
:102BA2002A08A2002B08A3002C08A4002D08A500C7
:102BB2002E08A6002F08A700080003102000560DBB
:102BC200570DD8005808DE005E08031DE92DEA2DD6
:102BD200F32D0030D7000030D6000030D500003091
:102BE200D400522E5408D8005508D9005608DA00ED
:102BF2005708DB001F30DB36DA0CD90CD80C890BF6
:102C0200FC2D5808DC005C08DD00D617FF30D40527
:102C1200FF30D505FF30D6050030D7059630DE02ED
:102C2200DE1F142E152E2D2E5E08803A973E0318B5
:102C32001B2E1C2E1D2EEA2D0130D736D60CD50C9C
:102C4200D40C890B1E2E0130D8005808DE07031D54
:102C52002B2E2C2E1D2E422E20305E02031C322ED5
:102C6200332E3D2EEA2D0130D435D50DD60DD70D9C
:102C7200890B352E0130DE025E08031D412E422EE5
:102C8200342E5D080319462E472E522ED409D5093B
:102C9200D609D709D40A0319D50A0319D60A031982
:102CA200D70A080071308600003087000830F00033
:102CB20000301E00F00B5A2E2000200821042204AE
:102CC200230424042504260427040319692E6A2EEA
:102CD200C62EF901F90A792EA035A10DA20DA30D78
:102CE200A40DA50DA60DA70D0130F0007008F9077F
:102CF200A71F7C2E7D2E6D2EF135F20DF30DF40DF6
:102D0200F50DF60DF70DF80D27082F02031DA32E62
:102D120026082E02031DA32E25082D02031DA32E15
:102D220024082C02031DA32E23082B02031DA32E0D
:102D320022082A02031DA32E21082902031DA32E05
:102D420020082802031CA62EA72EB82E2008A802AF
:102D52002108A93B2208AA3B2308AB3B2408AC3B31
:102D62002508AD3B2608AE3B2708AF3B7114A736BA
:102D7200A60CA50CA40CA30CA20CA10CA00C013057
:102D8200F902031DC52EC62E7D2E7108A000720801
:102D9200A1007308A2007408A3007508A4007608B5
:102DA200A5007708A6007808A70008002100C40043
:102DB200440A86008701010889317A21963121006F
:102DC200440A8600870101089F31872796311B300C
:102DD2002000A600A030A700A801A9012100440AF2
:102DE2008600870101089F31B42796310030200008
:102DF200A600A030A700A801A901A90A2100440A3F
:102E02008600870101089F31B427963121004408CA
:102E1200023E8600870101089F3160279631FD013D
:102E220021004408023E8600870101088A31CF2230
:102E3200963132302100B30033082000A000210077
:102E420044088600870101088C314524963121000F
:102E52004408860087010108023E8600870120009F
:102E62002008C03F2108C13F2208C23F2308C33FB8
:102E720030302100A500A030A6004408860087015A
:102E82000108063E86008701403FA700413FA80097
:102E9200423FA900433FAA00B4309031DC20963172
:102EA2002100440A86008701010891319F21963151
:102EB200B430FA000030FB002100440A860087018A
:102EC200010890319420963108002000EB006B0835
:102ED200023E86008701403FDF00413FE000423F63
:102EE200E100433FE2006B08063E86008701403F57
:102EF200E300413FE400423FE500433FE600620851
:102F02006602031D8E2F61086502031D8E2F600865
:102F12006402031D8E2F5F0863020318912F922F04
:102F22009A2F6B080A3E860087010030C03FC13FDE
:102F3200FF2F6B08023E86008701403FDF00413FC2
:102F4200E000423FE100433FE2006B08063E86009C
:102F52008701403FE300413FE400423FE500433F39
:102F6200E6005F08E3026008E43B6108E53B6208B3
:102F7200E63B6608F3006508F2006408F1006308A6
:102F8200F00000308A312322973173082000EA00D2
:102F92007208E9007108E8007008E7004330A300F6
:102FA200F630A2008030A1000030A0006A08A7001D
:102FB2006908A6006808A5006708A4008131DA2123
:102FC200973120002308EA002208E9002108E800DE
:102FD2002008E7006A08D7006908D6006808D5000B
:102FE2006708D4009531DE25973120006B080A3E30
:0E2FF200860087015408C03F5508C13F080003
:103D7C001630210097000800640080010131890B86
:103D8C00C32E0034FE0012001E00FE0BC92E0034A0
:103D9C0079080F392C3E8600013087000108080095
:103DAC0090313B209E31903100209E319E31BE26B9
:103DBC009E310800F1007108860087010108F000AF
:103DCC00700822008D040800F1007108860087013C
:103DDC000109F000700822008D050800F10071083F
:103DEC00860087010108F000700822008D0408008D
:103DFC00F1007108860087010109F00070082200AB
:103E0C008D050800F1007108860087010109F0009A
:103E1C00700821008D050800F100710A86008701E9
:103E2C000108F000700822008D040800F100710AEE
:103E3C00860087010109F000700822008D0508003A
:103E4C00F100710A860087010109F0007008210059
:103E5C008D050800F100710A860087010108F00049
:103E6C00700821008D0408009F3144279F312400E5
:103E7C0016141618422F432F3F2F08002400160843
:103E8C001F39031D4A2F4B2F442F14194E2F4F2F20
:103E9C00442F0800F0007008240091001418572FCC
:103EAC00582F542F161B5B2F5C2F582F9F314427F4
:103EBC009F3108002000AD000F30AC002C08F00042
:103ECC00F101F10A2D089F3173279F31FD0120006C
:103EDC002D088A31CF229F3108007103031D772FE3
:103EEC00782F802F700807390838F20072082200EA
:103EFC00D600862F70080739F20072082200D6000F
:103F0C000800F4000830F3007308F10074089F31C6
:103F1C009D279F310830F3007408033E860087010B
:103F2C00730881000630890B992F00320800F200CB
:103F3C009F313A279F3172088600870101359F31E6
:103F4C0050279F3171089F3150279F3180310420B9
:103F5C009F310630890BB02F00320800FD00200085
:103F6C002808AA002A08FA002908AB002B08FB0035
:103F7C007D0891312D219F3120002708FB00260858
:103F8C00FA007D08903194209F310800F2007208ED
:103F9C009F3126279F3172089F3108279F31720865
:103FAC009F3112279F3172089E31F4269F3172087F
:103FBC009F311C279F3172089E31FE269F310800CD
:103FCC00F20072089F3126279F3172089F31082713
:103FDC009F3172089E31FE269F3172089F311C273B
:103FEC009F3172089E31F4269F3172089F3112273F
:103FFC009F3108004C346F346134643420346334A2
:10400C0065346C346C34203455346E346934743407
:10401C0000346D3461347834203467347234613454
:10402C006D34203425346434003449346E346934AE
:10403C007434693461346C3469347A3465340034E2
:10404C0025346434673420342F34203425346434DC
:10405C006734003425346C34753420347634613450
:10406C006C34003425346434203425342534003445
:10407C006C34643400346C34693400346C3475340E
:06408C0000342034003472
:020000040001F9
:04000E00E43FFF1EAE
:00000001FF
