:08000000803102288731E92F4D
:100C320022008C14080022000C15080021000C155B
:100C42000800163021009700080020000C0C890CC7
:100C520001390800FD30F000700822008C05080000
:100C6200FD30F000700821008C050800FB30F00018
:100C7200700822008C050800FB30F000700821008B
:100C82008C050800640080010131890B442E003478
:100C9200FE0012001E00FE0B4A2E003470302100AE
:100CA20099009801220096010800F00070080F399F
:100CB200203E86008701010808008631B62686316B
:100CC20086314F26863186312226863108008631CA
:100CD2003D26863186313126863186311C26863183
:100CE20086311926863186313726863186312B2682
:100CF2008631080086313D2686318631312686319D
:100D020086312B2686318631372686318631192661
:100D1200863186311C268631080000302000CA0048
:100D22000030C9000030C8000030C7000430FB00AA
:100D32007B08F600F70147308631E226863108004B
:100D4200F2007003031DA62EA72EAF2E72080739DC
:100D52000838F10071082000C600B52E7208073964
:100D6200F10071082000C600080022008C018D01EC
:100D7200FF3021008C00FF308D00FE3023008D00FB
:100D82001F308C0024008D018C0121009517220058
:100D92009D019E0108003F3406345B344F346634B3
:100DA2006D347D3407347F346F340034403414346E
:100DB2005434FF34FF34FF34FF3427341034023408
:100DC2000034F900863168268631403087311D278C
:100DD200863186317B2686318631682686317708D0
:100DE2000339C03E87311D278631FA01062F7A0862
:100DF2007907F800780886008701010887311D27E6
:100E020086310130F8007808FA0776087A02031C66
:100E12000B2F0C2FF82E86317B26863186316826E1
:100E22008631200046080F39803E87311D278631E2
:100E320086317B2686310800F2007208F1007108C3
:100E4200F400863131268731F50186312B26873130
:100E5200741C2C2F2D2F312F86311C268731342FD5
:100E62008631372687318631192687317436F1006B
:100E72007108F4000130F1007108F50708307502BD
:100E8200031C442F452F262F86312B26873186318E
:100E92001C26873186311926873186311F268731F4
:100EA200863126268731F1007108F3007308031D8D
:100EB2005B2F5C2F622F86313D26873186313726A4
:100EC200873186313D268731080086315E2687319B
:100ED20023008C0121008C0122008C018C17200040
:100EE2003108CF003008CE002F08CD002E08CC00EC
:100EF20086318E2687310130863156268731FC00B5
:100F02007C082000CC000930863156268731FC004F
:100F12007C082000CD000830863156268731FC003F
:100F22007C082000CE000430863156268731FC0032
:100F32007C082000CF00F001F00A0F308631A12694
:100F420087310430FC007C08F600F7014C30863112
:100F5200E22687312000CB0122008C172000D0012D
:100F620050084B07863156268731FC002000500876
:100F72004C3E860087017C0881000130FC007C0821
:100F8200D00704305002031CC72FC82FB12F0430E2
:100F9200FC007C08F600F7014C308631E2268731EE
:100FA2000B30FD002630FC005E30890BD62FFC0B87
:100FB200D62FFD0BD62F0130FC007C082000CB077A
:100FC2007F30FC007C0822008C05AD2F8031022886
:100FD200CC308400863085002030860000308700C7
:100FE200163086314926873136308400003085003C
:100FF200113086314326873120008731662F203415
:021002000034B8
:020000040001F9
:04000E00E43FFF1EAE
:00000001FF
