:020000040000FA
:08000000803102288731EC2F4A
:100CF80008001630210097000800FE0012001E00B0
:100D0800FE0B822E003470302100990098012200D9
:100D18009601080020000C0CF000F00C700C013952
:100D28000800F00070080F39203E8600870101088E
:100D380008008631FF26863186318726863186313E
:100D48007D26863108003F3406345B344F346634E0
:100D58006D347D3407347F346F34FF34FF34FF340F
:100D6800FF34FC30F000700821008C050C080330BB
:100D7800F000700822008C040C08FC30F0007008A9
:100D88008C050C080800FC30F000700821008C0568
:100D98000C08FC30F000700822008C050C080330A9
:100DA800F00070088C040C08080000302000B10026
:100DB8000030B0000030AF000030AE000430FB005F
:100DC8007B08F600F7012E30873115278631080099
:100DD800F2007003031DF12EF22EF92E7208073966
:100DE8000838F1007108FD00FE2E72080739F1007D
:100DF8007108FD00080022008C018D01FF302100E0
:100E08008C00FF308D00FE3023008D001F308C00D9
:100E180024008D018C012100951722009D019E015F
:100E28000800F9008631B526873140308731972789
:100E380087318631C72687318631B52687317708CD
:100E48000339C03E873197278731FA01392F7A084D
:100E58007907F80078088600870101088731972705
:100E680087310130F8007808FA0776087A02031CFF
:100E78003E2F3F2F2B2F8631C72687318631B52647
:100E880087317D080F39803E873197278731863132
:100E9800C7268731080086319D26873123008C01BB
:100EA80021008C0122008C018C1720002D08B50030
:100EB8002C08B4002B08B3002A08B2008631D926C2
:100EC80087310130863195268731FC007C08200067
:100ED800B2000930863195268731FC007C08200055
:100EE800B3000830863195268731FC007C08200045
:100EF800B4000430863195268731FC007C08200038
:100F0800B500F001F00A0F308631EC268731043045
:100F1800FC007C08F600F70132308731152787314D
:100F2800942F80310228F2007208F1007108F40051
:100F380021000C08F50122000C08741CA42FA52F11
:100F4800AA2F0330F10071088C04AE2FFC30F10099
:100F580071088C050C087436F1007108F400013032
:100F6800F1007108F50708307502031CBC2FBD2F6E
:100F78009F2F8C010330F10071088C040C0803309A
:100F8800F100710821008C0486317C268731863176
:100F98008E268731F1007108F3007308031DD52FE1
:100FA800D62FE02FFC30F100710821008C05FC30B1
:100FB800F100710822008C0586317C268731FC30CF
:100FC800F100710821008C0586317C2687310800E4
:100FD800A7308400863085002030860000308700E6
:100FE8000E30863181268731FD01B601B701B8017F
:080FF800B901200087314F2FE1
:020000040001F9
:04000E00E43FFF1EAE
:00000001FF
