:10000000803102288731E52F88310020803124009B
:10001000161416180C280D28092808007108F80075
:100020007008F7007308FA007208F9000130F40252
:100030000030F53B740A031D2128750A031D212891
:1000400022283128F001F10169280130F70700303A
:10005000F83D0130F9070030FA3D0130F40200307C
:10006000F53B7708840078088500120003193928C9
:100070003A285928790884007A0885001200031963
:100080004228432859287408750403194828492828
:100090005928790884007A0885000008F600770856
:1000A0008400780885000008760603195828592826
:1000B000252877088400780885000008F60079086C
:1000C00084007A08850000087602F000F101031C24
:1000D000F10308002000BF003008C4003108C5004B
:1000E0003208C6003308C7003408C8003508C90004
:1000F0003608CA003708CB0044308600003087003D
:10010000473FB800B81B8528872801308828003071
:100110002000B900BA013908C2003A08C3004208F9
:100120004304031994289528B328C409C509C609AE
:10013000C709C809C909CA09CB09C40A031DB328DC
:10014000C50A031DB328C60A031DB328C70A031D29
:10015000B328C80A031DB328C90A031DB328CA0A55
:10016000031DB328CB0A2200AE1BB728B828BD2830
:10017000FD302100ED05FF30EE0522002E08803A0B
:100180002000B80080303802031DC9280130220049
:100190002D020318CC28CD28D32801302000BD0023
:1001A0000030BE00DB2822002E082000BE00220006
:1001B0002D082000BD0022002C082000C1002200D4
:1001C0002B082000C00042084304031DE828E9284A
:1001D000EE2821006D1DED28EE28F328FF302000C9
:1001E000C007FF30C13D1F302000CC000030CD00E3
:1001F0002200CE016429FF302000CC07FF30CD3D26
:100200000A30A000A101A201A301A401A501A60139
:10021000A7014408A8004508A9004608AA00470805
:10022000AB004808AC004908AD004A08AE004B08D6
:10023000AF008D312625803120002108F4002008F0
:10024000F30093312F2380317308303E2000B80033
:100250004C082F3E86000130870038088100FF30AF
:10026000BD07FF30BE3DFF30C007FF30C13D0A3043
:10027000A000A101A201A301A401A501A601A7015B
:100280004408A8004508A9004608AA004708AB0092
:100290004808AC004908AD004A08AE004B08AF0062
:1002A0008E31FF26803120002008C4002108C500BF
:1002B0002208C6002308C7002408C8002508C90072
:1002C0002608CA002708CB0020004D08803AB80055
:1002D00080303802031D6E2901304C02031C712945
:1002E00072299F2920004408450446044704480415
:1002F00049044A044B04031D7E297F29FB283E083C
:10030000803AB80080303802031D882901303D0250
:1003100003188B298C29FB2820004108803AB8005B
:1003200080303802031D962901304002031C9929B0
:100330009A299F292100ED189E299F29FB2820003A
:1003400042084304031DA529A629AB2921006D1DE0
:10035000AA29AB29C829FF302000CC07FF30CD3DAA
:1003600042084304031DB529B629BB292B30BB0025
:100370000030BC00BF292D30BB000030BC003B0862
:10038000B8004C082F3E86000130870038088100F5
:1003900020004C082F3EB8003808A4004108A600F1
:1003A0004008A5003F089531A5258031200025088B
:1003B000B1002408B0000800200027088039A800F8
:1003C0002808B1002735A8002808B800A61FE92989
:1003D000EA29EB29381438080319EF29F029002AF3
:1003E000380A031DF429F529FD290030A700003043
:1003F000A6000030A5000030A400A617A701082A17
:100400000030A7000030A6000030A5000030A40096
:1004100023088039A8002808B1062335A800280839
:10042000B900A21F142A152A162A391439080319EB
:100430001A2A1B2A2B2A390A031D1F2A202A282A96
:100440000030A3000030A2000030A1000030A00066
:10045000A217A301332A0030A3000030A20000300D
:10046000A1000030A0002308220421042004031D61
:100470003A2A3B2A542A0030A7000030A600003058
:10048000A5000030A4008030A6047F30A704310806
:10049000A8002808A7042708A3002608A20025080A
:1004A000A1002408A0008F2B3808031D582A592AC0
:1004B000622A0030A3000030A2000030A10000300A
:1004C000A0008F2B3808A800A9012908AB00390823
:1004D0002802AA00031CAB032A087F3EB2000030AA
:1004E0002B3DB3002708B0002608AF002508AE005A
:1004F0002408AD000030A7000030A6000030A500A1
:100500000030A4000030B7000030B6000030B50065
:100510000030B400B901CA2A39080319902A912A77
:10052000AB2A0130AD35AE0DAF0DB00D890B922A5F
:100530000130A435A50DA60DA70D890B992AB71F6B
:10054000A22AA32AA42A24140130B435B50DB60D6D
:10055000B70D890BA52A23083002031DB92A2208EA
:100560002F02031DB92A21082E02031DB92A2008D3
:100570002D02031CBC2ABD2AC62A37172008AD024B
:100580002108AE3B2208AF3B2308B03B0130A80056
:100590002808B9071A303902031CCF2AD02A8C2A1E
:1005A00030082F042E042D040319D72AD82AF12A43
:1005B0003414F12A0130A435A50DA60DA70D890B21
:1005C000DB2AB71FE42AE52AE62A24140130B435D1
:1005D000B50DB60DB70D890BE72AFF30B207FF3016
:1005E000B33DA61FF42AF52ADA2AB901B71FF92A62
:1005F000FA2A162BFF303405A800FF303505A90074
:10060000FF303605AA007F303705AB002B082A04DF
:100610002904280403190D2B0E2B112BB901B90A3B
:10062000162B241C142B152B162B0E2B39080319F3
:100630001A2B1B2B432B0130A4070030A53D0030A3
:10064000A63D0030A73D271C262B272B432B240833
:10065000A8002508A9002608AA002708AB00013039
:10066000AC00AB37AA0CA90CA80CAC0B312B2B0897
:10067000A7002A08A6002908A5002808A400013020
:10068000B2070030B33D3308803AA800803028021A
:10069000031D4C2BFF303202031C4F2B502B5D2BC4
:1006A000FF302000B2000030B3000030A70000305F
:1006B000A6000030A5000030A40020003308803AD6
:1006C000A80080302802031D672B01303202031876
:1006D0006A2B6B2B772B2000B201B3010030A700EF
:1006E0000030A6000030A5000030A400B1012000B9
:1006F0003208A8002808B800381C7F2B802B822BDA
:10070000A617862B7F30A8002808A6053836A80033
:100710002808A7003108A8002808A7044B2A0800C9
:100720002000EC004E0886008701403FD000413F8A
:10073000D10050088400510885001200253A031D9D
:10074000A22BA32B6A2D4E0886008701013081075A
:1007500041310318810A2200AB01AC012100ED01F7
:10076000EE01FF302200AD00FF30AE0020004E0849
:1007700086008701403FD000413FD10050088400EF
:10078000510885001200643A0319C72BC82BD92BD6
:100790004E0886008701403FD000413FD1005008FD
:1007A0008400510885001200693A031DD82BD92B0B
:1007B000142C4E088600870101308107413103184F
:1007C000810A4F08860087010108840085010230F4
:1007D0008107003FD000013FD1005008DC005108E4
:1007E000DD00890D893B8909DE00DF00E000E100C2
:1007F000E200E3005C08B0005D08B1005E08B200F2
:100800005F08B3006008B4006108B5006208B60074
:100810006308B7006C0880316A20833120003108FA
:10082000CF003008CE008D2D4E0886008701403F56
:10083000F000413FF1003230F2009830F300023016
:10084000F4000030F50080310E208331700871040F
:1008500003192B2C2C2C452C20004E0886008701D8
:10086000403FF000413FF1003530F2009830F30096
:100870000230F4000030F50080310E208331700822
:100880007104031D442C452C872C20004E08860043
:1008900087010230810741310318810A4F08860021
:1008A000870101088400850104308107003FD000E2
:1008B000013FD100023FD200033FD3005008DC00CB
:1008C0005108DD005208DE005308DF000030DF1B56
:1008D000FF30E000E100E200E3005C08B0005D08EA
:1008E000B1005E08B2005F08B3006008B4006108A0
:1008F000B5006208B6006308B7006C0880316A2052
:10090000833120003108CF003008CE008D2D20002B
:100910004E0886008701403FD000413FD10050087B
:100920008400510885001200753A031D982C992CFB
:10093000CD2C4E0886008701013081074131031814
:10094000810A4F0886008701010884008501023072
:100950008107003FE400013FE500E601E701E8010F
:10096000E901EA01EB016408B0006508B10066081E
:10097000B2006708B3006808B4006908B5006A08E7
:10098000B6006B08B7006C088E311026833120004A
:100990003108CF003008CE008D2D4E08860087012B
:1009A000403FF000413FF1003830F2009830F30052
:1009B0000230F4000030F50080310E2083317008E1
:1009C0007104031DE42CE52C342D20004E08860014
:1009D00087010230810741310318810A4F088600E0
:1009E000870101088400850104308107003FD000A1
:1009F000013FD100023FD200033FD3005008D40092
:100A00005108D5005208D6005308D700D801D901A3
:100A1000DA01DB015B08EB005A08EA005908E9003B
:100A20005808E8005708E7005608E6005508E500B2
:100A30005408E4006408B0006508B1006608B2001C
:100A40006708B3006808B4006908B5006A08B60012
:100A50006B08B7006C088E311026833120003108F6
:100A6000CF003008CE008D2D20004E088600870173
:100A7000403FD000413FD10050088400510885001C
:100A80001200253A031D452D462D5F2D4E08860088
:100A900087010130810741310318810A2530F000B8
:100AA0000030F1006C08D0005008F2009431FF24AF
:100AB000833101302000CE000030CF008D2D4E0854
:100AC000860087010130810741310318810ACE0178
:100AD000CF018D2D4E0886008701403FD000413F59
:100AE000D10050088400510885000008D200D301CD
:100AF0005208F0005308F1006C08D4005408F200CA
:100B00009431FF24833120004E0886008701013094
:100B1000810741310318810A592D080020003D0842
:100B20008039C2004208C7003D35C2004208CD00EE
:100B3000BC1F9B2D9C2D9D2D4D144D080319A12DDF
:100B4000A22DB12D4D0A031DA62DA72DAF2D0030CE
:100B5000BD000030BC000030BB000030BA00BC1744
:100B6000B92D0030BD000030BC000030BB000030AB
:100B7000BA0041088039C2004208C7064135C200A8
:100B80004208CC00C01FC52DC62DC72D4C144C08E3
:100B90000319CB2DCC2DDB2D4C0A031DD02DD12DCF
:100BA000D92D0030C1000030C0000030BF0000303F
:100BB000BE00C017E32D0030C1000030C00000307F
:100BC000BF000030BE004C080319E72DE82DED2DC5
:100BD0004D08031DEC2DED2DF62D0030BD0000302D
:100BE000BC000030BB000030BA00E42F3A08C2005D
:100BF0004208F00040089331B72385317108200086
:100C0000D3007008D2005208C200C301C401C5015C
:100C10004508CB004408CA004308C9004208C80080
:100C20005308C200C301C401C5014508D1004408EE
:100C3000D0004308CF004208CE003B08C200420863
:100C4000F0003F089331B723853171082000D300AD
:100C50007008D2005208C200C301C401C501420895
:100C6000C8074308C93D4408CA3D4508CB3D530861
:100C7000C200C301C401C5014208CE074308CF3DED
:100C80004408D03D4508D13D3C08C2004208F00070
:100C90003E089331B723853171082000D3007008D6
:100CA000D2005208C200C301C401C5014208C807EE
:100CB0004308C93D4408CA3D4508CB3D5308C2001E
:100CC000C301C401C5014208CE074308CF3D440813
:100CD000D03D4508D13D0830C835C90DCA0DCB0DF2
:100CE000890B6C2E3B08C2004208F0003E0893318D
:100CF000B723853171082000D3007008D200520854
:100D0000C8075308C93D0030CA3DCB3D3A08C20070
:100D10004208F0003F089331B72385317108200065
:100D2000D3007008D2005208C8075308C93D0030EC
:100D3000CA3DCB3D0830C835C90DCA0DCB0D890B56
:100D40009B2E3A08C2004208F0003E089331B723B8
:100D5000853171082000D3007008D2005208C807FE
:100D60005308C93D0030CA3DCB3D3B08C200420894
:100D7000F00040089331B723853171082000D3007B
:100D80007008D2005208CE075308CF3D0030D03D46
:100D9000D13D3C08C2004208F0003F089331B72320
:100DA000853171082000D3007008D2005208CE07A8
:100DB0005308CF3D0030D03DD13D3C08C200420831
:100DC000F00040089331B723853171082000D3002B
:100DD0007008D2005208C2005308C300C401C50104
:100DE0000830C235C30DC40DC50D890BF12E420864
:100DF000CE074308CF3D4408D03D4508D13D4808C3
:100E0000C2004908C3004A08C4004B08C500183096
:100E1000C536C40CC30CC20C890B082F4208CE0780
:100E20004308CF3D4408D03D4508D13D0830C83582
:100E3000C90DCA0DCB0D890B172F4D084C07C200E9
:100E4000C301C30D4208823ED200FF30433DD300B0
:100E5000402F0130CE35CF0DD00DD10D890B2A2F6B
:100E6000CB1F332F342F352F4E140130C835C90D09
:100E7000CA0DCB0D890B362FFF30D207FF30D33D83
:100E8000D01F432F442F292FCC01CB1F482F492F90
:100E9000652FFF304805C200FF304905C300FF3011
:100EA0004A05C4007F304B05C5004508440443048F
:100EB000420403195C2F5D2F602FCC01CC0A652FF3
:100EC0004E1C632F642F652F5D2F4C080319692F6B
:100ED0006A2F922F0130CE070030CF3D0030D03D39
:100EE0000030D13D511C752F762F922F4E08C20035
:100EF0004F08C3005008C4005108C5000130C600A7
:100F0000C537C40CC30CC20CC60B802F4508D100DA
:100F10004408D0004308CF004208CE000130D20779
:100F20000030D33D5308803AC20080304202031D96
:100F30009B2FFF305202031C9E2F9F2FA92F7F3023
:100F40002000D1008030D0000030CF000030CE0033
:100F5000D82F20005308803AC20080304202031D7F
:100F6000B32F013052020318B62FB72FC22F003013
:100F70002000D1000030D0000030CF000030CE0083
:100F8000C701D82F20005208C2004208CD00FF3010
:100F9000CE05FF30CF057F30D0050030D1054D1C88
:100FA000D22FD32FD42FD0174D36C2004208D100F4
:100FB0004708C2004208D1045108BD005008BC00D7
:100FC0004F08BB004E08BA000800993084009330E7
:100FD00085004F308600013087001E309231A822F4
:100FE00087312100ED01EE01EF0120308400013056
:100FF00085002F309231A222873120009631B12E08
:10100000240016081F39031D062807280028141974
:101010000A280B28002808002100C400440A860082
:10102000870101088A31EE2288312100440A8600B6
:10103000870101089231EA2288310F302000A60092
:101040009830A700A801A9012100440A8600870161
:10105000010893311723883100302000A600983012
:10106000A700A801A901A90A2100440A8600870156
:10107000010893311723883132302100B30033083F
:101080002000A000210044088600870101088C315F
:101090004324883121004408860087010108023E6C
:1010A0008600870120002008C03F2108C13F220898
:1010B000C23F2308C33F24302100A5009830A6007A
:1010C0004408860087010108063E86008701403FEC
:1010D000A700413FA800423FA900433FAA00B43007
:1010E0009331FE2388312100440A860087010108DC
:1010F0009431C1248831B430FA000030FB00210063
:10110000440A8600870101089331DA2388310800F8
:1011100071308600003087000830F00000301E007B
:10112000F00B8F282000200821042204230424042B
:1011300025042604270403199E289F28FB28F9016B
:10114000F90AAE28A035A10DA20DA30DA40DA50D81
:10115000A60DA70D0130F0007008F907A71FB128F0
:10116000B228A228F135F20DF30DF40DF50DF60DB0
:10117000F70DF80D27082F02031DD82826082E0288
:10118000031DD82825082D02031DD82824082C0269
:10119000031DD82823082B02031DD82822082A0261
:1011A000031DD82821082902031DD8282008280259
:1011B000031CDB28DC28ED282008A8022108A93B15
:1011C0002208AA3B2308AB3B2408AC3B2508AD3BD7
:1011D0002608AE3B2708AF3B7114A736A60CA50C1A
:1011E000A40CA30CA20CA10CA00C0130F902031D4D
:1011F000FA28FB28B2287108A0007208A100730821
:10120000A2007408A3007508A4007608A50077085A
:10121000A6007808A70008002000EB006B08023E3B
:1012200086008701403FDF00413FE000423FE10090
:10123000433FE2006B08063E86008701403FE30023
:10124000413FE400423FE500433FE600620866029A
:10125000031D342961086502031D342960086402F6
:10126000031D34295F0863020318372938294029F0
:101270006B080A3E860087010030C03FC13FA529A8
:101280006B08023E86008701403FDF00413FE000DF
:10129000423FE100433FE2006B08063E86008701C3
:1012A000403FE300413FE400423FE500433FE600AA
:1012B0005F08E3026008E43B6108E53B6208E63B47
:1012C0006608F3006508F2006408F1006308F000A6
:1012D00000308B319723893173082000EA007208AF
:1012E000E9007108E8007008E7004330A300F63019
:1012F000A2008030A1000030A0006A08A7006908A1
:10130000A6006808A5006708A4008131DC218931A6
:1013100020002308EA002208E9002108E80020084C
:10132000E7006A08D7006908D6006808D500670892
:10133000D40097318B27893120006B080A3E860044
:1013400087015408C03F5508C13F0800F500750AE1
:10135000860087010103031DAE29AF29B9292000AA
:101360000D080139F200F3017208F0007308F10072
:10137000482A750A8600870102300106031DC1292B
:10138000C229CC2920000D0C0139F200F3017208AA
:10139000F0007308F100482A750A860087010430BE
:1013A0000106031DD429D529E02920000D0C890C44
:1013B0000139F200F3017208F0007308F100482AC5
:1013C000750A8600870108300106031DE829E9290E
:1013D000F62920000D0CF200F20C720C0139F3001A
:1013E000F4017308F0007408F100482A750A8600B9
:1013F000870110300106031DFE29FF29092A20005C
:101400000D0E0139F200F3017208F0007308F100CB
:10141000482A750A8600870120300106031D112A1B
:10142000122A1D2A20000D0E890C0139F200F30149
:101430007208F0007308F100482A750A86008701D7
:1014400040300106031D252A262A322A20000D0ECF
:10145000890C890C0139F200F3017208F00073085D
:10146000F100482A750A8600870180300106031DB5
:101470003A2A3B2A462A20000D0D0D0D0139F200B3
:10148000F3017208F0007308F100482AF001F1013D
:1014900008002000EC0010302100A00020082000EF
:1014A000A0006C088600870101088C3143248A3132
:1014B00020006C08860087010108063E860087012F
:1014C0002008C03F2108C13F2208C23F2308C33F74
:1014D0006C0886008701010889310C218A312000BF
:1014E0006C088600870101080A3E86008701160005
:1014F0000104031D7C2A7D2A832A6C08043E860091
:1015000087018101ED2A6C088600870101080A3EE7
:1015100086008701403F2100A000413FA100200834
:10152000F0002108F100F201F30100308B31972324
:101530008A3173082000A7007208A6007108A50070
:101540007008A4006C08023E86008701403F21001D
:10155000A200413FA3002208F0002308F100F2019D
:10156000F30100308B3197238A3173082000A300E8
:101570007208A2007108A1007008A0008131DC216E
:101580008A3120002308C1002208C0002108BF00C2
:101590002008BE004230BD00C830BC000030BB0097
:1015A0000030BA0085318E258A3120003D08D700F1
:1015B0003C08D6003B08D5003A08D40097318B2769
:1015C0008A31200054082100A40020006C08043E49
:1015D000860087012100240881000800F8000530FA
:1015E000F7000F30F600F130890BF42AF60BF42ADD
:1015F000F70BF42A00003030F6007608F300780884
:1016000093317E238A310D30F600FC30890B062B96
:10161000F60B062B3030F6007608F300780893318D
:101620007E238A310D30F600FC30890B152BF60B2A
:10163000152B3030F6007608F300780893317E23BE
:101640008A31C830890B222B2030F6007608F3004F
:10165000780893317E238A310630890B2D2B003296
:101660002030F6007608F300780893317E238A3123
:101670004230890B392B00328030F6007608F300B7
:10168000780893317E238A31F301780893317E23E1
:101690008A314230890B4A2B0032C030F60076087E
:1016A000F300780893317E238A31F301780893316F
:1016B0007E238A314230890B5B2B00321030F600DA
:1016C0007608F300780893317E238A310D30F600D6
:1016D000FC30890B692BF60B692BF30178089331E9
:1016E0007E238A314230890B732B00326030F60042
:1016F0007608F300780893317E238A31F301780865
:1017000093317E238A314230890B842B0032203082
:10171000F6007608F300780893317E238A3108308A
:10172000F600CA30890B922BF60B922B0800F800BA
:10173000780803199C2B9D2BB12BF31FA02BA12BF9
:10174000B12B7009FA007109FB007209FC007309E2
:10175000FD00FA0A0319FB0A0319FC0A0319FD0A22
:10176000B92B7308FD007208FC007108FB007008BB
:10177000FA007308720471047004031DC02BC12B9E
:10178000CA2B0030F3000030F2000030F1000030CE
:10179000F000422C9630F4007408F900DA2B013086
:1017A000F4007408F9070130FD36FC0CFB0CFA0C50
:1017B000890BD42BFE307D05031DDF2BE02BCF2BB7
:1017C000F42B0130F4007408F9070130FA070030F7
:1017D000FB3D0030FC3D0030FD3D0130FD36FC0C92
:1017E000FB0CFA0C890BEE2BFF307D05031DF92B4A
:1017F000FA2BE12B042C0130F9020130FA35FB0DF4
:10180000FC0DFD0D890BFE2BFC1B072C082C0E2C50
:101810000230790203180D2C0E2CFB2B7918112C99
:10182000122C1A2CFF30FA05FF30FB057F30FC0527
:10183000FF30FD050310F90C7908F400F501F601FD
:10184000F7011830F435F50DF60DF70D890B222C44
:101850007408FA047508FB047608FC047708FD0494
:1018600078080319342C352C3A2CF31F382C392CDA
:101870003A2CFD177D08F3007C08F2007B08F1008C
:101880007A08F00008002000B20032089231D0221D
:101890008C3100302000B0000030AF000030AE00CE
:1018A0000030AD000030AB000030AA000030A900CD
:1018B0000030A800AC01E22C200032088931A621BA
:1018C0008C31700871040319662C672C5C2C200085
:1018D00032088931A6218C31700371040319712CEF
:1018E000722C672C0630890B732C00322000B1015A
:1018F0000130AD35AE0DAF0DB00D890B792C32082E
:101900009231C6228C310630890B842C00322000A3
:1019100032089231D0228C31200032088931A62140
:101920008C3170082000A4007108A5000030A51BB0
:10193000FF30A600A7002408AD072508AE3D260805
:10194000AF3D2708B03D0630890BA42C0032013092
:101950002000A4002408B10718303102031CB12C68
:10196000B22C782CB10132089231C6228C3106306B
:10197000890BB82C0032200032089231D0228C31F1
:101980000630890BC12C003201302000A40024084D
:10199000B10731080319CD2CCE2CB32C2D08A80784
:1019A0002E08A93D2F08AA3D3008AB3D0030B000FD
:1019B0000030AF000030AE000030AD000130A400B8
:1019C0002408AC0720082C02031CE72CE82C5C2C14
:1019D0002008A400A501A601A7012708F3002608F6
:1019E000F2002508F1002408F0002B08F7002A086F
:1019F000F6002908F5002808F400963157268C31A6
:101A000073082000B0007208AF007108AE007008C3
:101A1000AD0000302D06A40000302E06A500803059
:101A20002F06A60000303006A7002708B0002608C1
:101A3000AF002508AE002408AD003008A3002F0831
:101A4000A2002E08A1002D08A0000800F2012830F5
:101A5000860000308700473FF000F01F302D312D09
:101A6000522D2000A809A909AA09AB09AC09AD09A2
:101A7000AE09AF09A80A031D502DA90A031D502D58
:101A8000AA0A031D502DAB0A031D502DAC0A031DDD
:101A9000502DAD0A031D502DAE0A031D502DAF0A67
:101AA000F201F20A2030860000308700473FF00044
:101AB000F01F5B2D5C2D7B2D2000A009A109A20940
:101AC000A309A409A509A609A709A00A031D7B2D3E
:101AD000A10A031D7B2DA20A031D7B2DA30A031D52
:101AE0007B2DA40A031D7B2DA50A031D7B2DA60AB1
:101AF000031D7B2DA70A20002008210422042304B3
:101B000024042504260427040319872D882DDB2DA2
:101B1000F101F10A972DA035A10DA20DA30DA40D81
:101B2000A50DA60DA70D0130F0007008F107A71F45
:101B30009A2D9B2D8B2D27082F02031DB92D2608CA
:101B40002E02031DB92D25082D02031DB92D2408D1
:101B50002C02031DB92D23082B02031DB92D2208C9
:101B60002A02031DB92D21082902031DB92D2008C1
:101B70002802031CBC2DBD2DCD2D2008A802210854
:101B8000A93B2208AA3B2308AB3B2408AC3B250811
:101B9000AD3B2608AE3B2708AF3BA736A60CA50CED
:101BA000A40CA30CA20CA10CA00C0130F102031D8B
:101BB000DA2DDB2D9B2D72080319DF2DE02DFE2D74
:101BC000A809A909AA09AB09AC09AD09AE09AF0971
:101BD000A80A031DFE2DA90A031DFE2DAA0A031D36
:101BE000FE2DAB0A031DFE2DAC0A031DFE2DAD0A12
:101BF000031DFE2DAE0A031DFE2DAF0A200028088E
:101C0000A0002908A1002A08A2002B08A3002C0884
:101C1000A4002D08A5002E08A6002F08A700080084
:101C20002000BA002200AE1B162E172E1C2EFD30EF
:101C30002100ED05FF30EE0522002E08803AFD0060
:101C400080307D02031D262E01302D020318292E1F
:101C50002A2E302E01302000B8000030B900382E76
:101C600022002E082000B90022002D082000B80014
:101C700022002C082000BC0022002B082000BB0002
:101C80003008BD003108BE003208BF003308C00074
:101C90003408C1003508C2003608C3003708C40044
:101CA0001F30C5000030C6002200CE01B82EFF3024
:101CB0002000C507FF30C63D0A30A000A101A201E7
:101CC000A301A401A501A601A7013D08A8003E08A3
:101CD000A9003F08AA004008AB004108AC00420838
:101CE000AD004308AE004408AF0097311A278E318B
:101CF00020002008303EFD0045082F3E86000130C0
:101D000087007D088100FF30B807FF30B93DFF3004
:101D1000BB07FF30BC3D0A30A000A101A201A30116
:101D2000A401A501A601A7013D08A8003E08A9003D
:101D30003F08AA004008AB004108AC004208AD00D3
:101D40004308AE004408AF00883188208E3120005F
:101D50002008BD002108BE002208BF002308C000E3
:101D60002408C1002508C2002608C3002708C400B3
:101D70002000450846040319BE2EBF2EEB2E3D0859
:101D80003E043F0440044104420443044404031D50
:101D9000CA2ECB2E572E3908803AFD0080307D02A6
:101DA000031DD42E013038020318D72ED82E572EFB
:101DB00020003C08803AFD0080307D02031DE22EA9
:101DC00001303B02031CE52EE62EEB2E2100ED1820
:101DD000EA2EEB2E572E200045082F3EFD007D08F1
:101DE000A4003C08A6003B08A5003A089531A525AB
:101DF0008E3120002508B1002408B0000800F2014F
:101E00002030860000308700473FF000F01F092F88
:101E10000A2F2B2F2000A009A109A209A309A409B8
:101E2000A509A609A709A00A031D292FA10A031DB8
:101E3000292FA20A031D292FA30A031D292FA40A53
:101E4000031D292FA50A031D292FA60A031D292FCB
:101E5000A70AF201F20A2830860000308700473FC7
:101E6000F000F01F342F352F582F2000A809A909A2
:101E7000AA09AB09AC09AD09AE09AF09A80A031D4F
:101E8000542FA90A031D542FAA0A031D542FAB0A6D
:101E9000031D542FAC0A031D542FAD0A031D542FEC
:101EA000AE0A031D542FAF0A0130F0007008F2068D
:101EB00073308600003087000830F00000301E00CC
:101EC000F00B5F2F200020082104220423042404A7
:101ED00025042604270403196E2F6F2FCB2FF10141
:101EE000F10A7E2FA035A10DA20DA30DA40DA50D05
:101EF000A60DA70D0130F0007008F107A71F812F74
:101F0000822F722FF335F40DF50DF60DF70DF80D48
:101F1000F90DFA0D27082F02031DA82F26082E02FF
:101F2000031DA82F25082D02031DA82F24082C020D
:101F3000031DA82F23082B02031DA82F22082A0205
:101F4000031DA82F21082902031DA82F20082802FD
:101F5000031CAB2FAC2FBD2F2008A8022108A93BE2
:101F60002208AA3B2308AB3B2408AC3B2508AD3B29
:101F70002608AE3B2708AF3B7314A736A60CA50C6A
:101F8000A40CA30CA20CA10CA00C0130F102031DA7
:101F9000CA2FCB2F822F72080319CF2FD02FEE2FED
:101FA000F309F409F509F609F709F809F909FA0935
:101FB000F30A031DEE2FF40A031DEE2FF50A031D8D
:101FC000EE2FF60A031DEE2FF70A031DEE2FF80A77
:101FD000031DEE2FF90A031DEE2FFA0A73082000E5
:101FE000A0007408A1007508A2007608A300770875
:101FF000A4007808A5007908A6007A08A7000800C0
:10253A00080016302100970008006400800101316C
:10254A00890BA32A0034FE0012001E00FE0BA92AE2
:10255A000034703021009900980122009601080089
:10256A00240016151619BA2ABB2AB72A080093316D
:10257A00632392319231AE22923192319E2292316C
:10258A000800F1007108860087010108F000700850
:10259A0022008D040800F1007108860087010109F4
:1025AA00F000700822008D050800F0007008240071
:1025BA0091001418E12AE22ADE2A161BE52AE62AE5
:1025CA00E22A8831002092310800F4000830F30032
:1025DA007308F10074089331002392310830F30034
:1025EA007408033E86008701730881000630890B50
:1025FA00FC2A00320800F20080310420933172086C
:10260A008600870101359231DA22933171089231BD
:10261A00DA2293319231B52293310630890B132B8A
:10262A0000320800FD0020002808AA002A08FA0043
:10263A002908AB002B08FB007D0894314F24933105
:10264A0020002708FB002608FA007D089331DA23C8
:10265A00933108007408803AF50080307502031D32
:10266A00382B0130730203183B2B3C2B482B730980
:10267A00F5007409F600F50A0319F60A7508F3005D
:10268A007608F400482B0800F4007408F200720877
:10269A00F300532B0130F2007208F4077408860025
:1026AA00013087000108031D5B2B5C2B4F2B73083D
:1026BA007402F000F101F01BF103080022009001FE
:1026CA008C018D018E01083021009000FF308C00B2
:1026DA00FF308D00FF308E00FE3023008D001F304A
:1026EA008C00240090018D012100951722009D0184
:1026FA000800F5007308F4007408F10075089331B6
:10270A000023933173080438F4007408F100750843
:10271A009331002393317308F4007408F1007508AB
:10272A009331002393310800023404340034003416
:10273A00003400340034003400340034F4340134FA
:10274A003F3406345B344F3466346D347D34073499
:10275A007F346F3400344034143454342734103402
:10276A0002340034F800F401F5017008F200F301B4
:10277A007208F6007308F700781CC42BC52BC92B06
:10278A007608F4077708F53D0130F635F70D890B21
:10279A00CA2B0310F80C7808031DD42BD52BC12B98
:1027AA007508F1007408F00008002000A100F42B5D
:1027BA007A0884007B0885000008FC007C08200059
:1027CA00A0000130FA070030FB3D2008FC007C081D
:1027DA00F300F401F40A210895314E2593317A0861
:1027EA0084007B0885001200031DFC2BFD2BDD2BCA
:1027FA0008002100AC00A730AB002B08AD002C0864
:10280A00AB002B08AE00AF01B001B101B20126083E
:10281A002000EE00210025082000ED00AD30210047
:10282A00AB002B082000EF00AE309431882493319E
:10283A0021002F082C07AB002B0886008701810195
:10284A0008002000A300A101A2013E2C2008F900E3
:10285A00FA017908F0007A08F1007808FB007B0891
:10286A00F2009431FF24943101302000A107003096
:10287A00A23D21082307F900790886000130870064
:10288A000108FA007A08A0002008031D4D2C4E2CDE
:10289A002B2C08002000A500220068082000A300B5
:1028AA00220067082000A200220066082000A1007A
:1028BA00220065082000A0002508023E8600870144
:1028CA007B08010203186A2C6B2C742C2508023E23
:1028DA00860087010108FF3EFC007C08FB007B089C
:1028EA00203E8600870101087A078038FC007C08B0
:1028FA00A4002408FC007C08F300F40125089531A3
:10290A004E25943108002100A20020006E08210003
:10291A00A40020006D082100A3002200A901AA0139
:10292A00AE2CA330A00020082000CE006F082100A2
:10293A00A10021082000CF00210022088331902322
:10294A00943120004E082200A90720004F082200D7
:10295A00AA3D210023088400240885001200031DD3
:10296A00B72CB82C962C22002A082000EE00220050
:10297A0029082000ED0008002000AA00A801EE2C7A
:10298A00A901E12C2908A6002608FA002808A700B0
:10299A002708FB002A0894314F2494313B30FA006F
:1029AA009830FB0020002A089331DA239431013051
:1029BA002000A6002608A9072A0A8600870101081E
:1029CA002902031CE92CEA2CC72C0130A600260890
:1029DA00A8072A08023E8600870101082802031C6C
:1029EA00F72CF82CC52CFA01FB012A0894314F2444
:1029FA009431080072080319032D042D092D720859
:102A0A00031D082D092D0E2D700892319D22943137
:102A1A004D2D7208033E8600870116000104031932
:102A2A00172D182D352D7208033E86008701403F69
:102A3A00F300413FF400720A86008701403FF50027
:102A4A00413FF6007608803AF7007408803A770228
:102A5A00031D312D730875020318342D352D4D2DA4
:102A6A007008F300720886008701720A84008501E3
:102A7A0000080107F40074088600870173088100C2
:102A8A00720A860087010130810741310318810AE1
:102A9A000800F9007908033E860087017308F039B7
:102AAA0001047404F5007508F7007908033E8600EE
:102ABA0087017308F5000330F535FF3E031D612DCC
:102ACA007535F03901047404F6007608F8007708C1
:102ADA00F5007508F10079089331002395317708DC
:102AEA000438F5007508F10079089331002395310F
:102AFA007708FB39F5007508F1007908933100234E
:102B0A0095314230890B872D00327808F500750817
:102B1A00F100790893310023953178080438F500DB
:102B2A007508F10079089331002395317808FB394B
:102B3A00F5007508F10079089331002395310800F2
:102B4A002000AB0021006D1CAB2DAC2DB52D200053
:102B5A002B08FC007C08F8002408943126249531BF
:102B6A002000A61BB92DBA2DBF2D2608AA002508BC
:102B7A00A900C12DA901AA01A701A801D52D2030BC
:102B8A00F0000030F10020002B08FC007C08F20065
:102B9A009431FF24953101302000A7070030A83D69
:102BAA002808803AFC002A08803A7C02031DDF2D9F
:102BBA0029082702031CE22DE32DC42D21006D18DC
:102BCA00E72DE82DF12D20002B08FC007C08F800E9
:102BDA00240894312624953120002408933149236E
:102BEA009531200029087007A4002A08713DA50024
:102BFA0008002100D5001A30A5009830A600550813
:102C0A008600870101080A3E86008701403FA70027
:102C1A00413FA8005508023E86008701403FA900AF
:102C2A00413FAA00B5309331FE2395312C30210063
:102C3A00A5009830A6005508043E860087010108C1
:102C4A00B300B4013308A7003408A800C530933193
:102C5A00FE2395312100550A860087010108943127
:102C6A00C1249531B5302000A6000030A700A80184
:102C7A00A9012100550A860087010108933117230B
:102C8A009531C5302000A6000030A700A801A9018F
:102C9A00A90A2100550A86008701010893311723E2
:102CAA00953108000030FC000030FB000030FA00CB
:102CBA000030F90073087204710470040319662E57
:102CCA00672EA82EFD01FD0A752E0130F035F10D93
:102CDA00F20DF30D890B6B2E0130F8007808FD0711
:102CEA00F31F782E792E6A2E0130F935FA0DFB0D75
:102CFA00FC0D890B7A2E73087702031D8E2E72083B
:102D0A007602031D8E2E71087502031D8E2E700821
:102D1A007402031C912E922E9B2E7008F4027108E5
:102D2A00F53B7208F63B7308F73B79140130F3362A
:102D3A00F20CF10CF00C890B9C2E0130FD02031DE4
:102D4A00A72EA82E792E7C08F3007B08F2007A08B9
:102D5A00F1007908F00008009231BC229631230074
:102D6A008C018D01043021008D0022008C018D011F
:102D7A0013302400920028309500960194014F30B8
:102D8A00860001308700DC308400003085000C307A
:102D9A002100D60016001A00D60BCF2E22006C088E
:102DAA002100DB0022006B082100DA0022006A08F9
:102DBA002100D900220069082100D80020308600AD
:102DCA0001308700E8308400003085000530D600E5
:102DDA0016001A00D60BED2EDC30D6005608E80095
:102DEA00D830D6005608E900F430EA000130EB008A
:102DFA00EC01E83088310C209631E8308A314922DA
:102E0A009631E8309531FE25963106302100D700FB
:102E1A001330D600AD30890B102FD60B102FD70BDD
:102E2A00102F0032022F80310228200020082104AE
:102E3A002204230424042504260427040319262F24
:102E4A00272F7A2FF101F10A362FA035A10DA20DF5
:102E5A00A30DA40DA50DA60DA70D0130F000700855
:102E6A00F107A71F392F3A2F2A2F27082F02031DF0
:102E7A00582F26082E02031D582F25082D02031D40
:102E8A00582F24082C02031D582F23082B02031D38
:102E9A00582F22082A02031D582F21082902031D30
:102EAA00582F20082802031C5B2F5C2F6C2F200848
:102EBA00A8022108A93B2208AA3B2308AB3B240805
:102ECA00AC3B2508AD3B2608AE3B2708AF3BA736EF
:102EDA00A60CA50CA40CA30CA20CA10CA00C0130EE
:102EEA00F102031D792F7A2F3A2F2808A00029080A
:102EFA00A1002A08A2002B08A3002C08A4002D0870
:102F0A00A5002E08A6002F08A7000800031020001D
:102F1A00560D570DD8005808DE005E08031D962F7F
:102F2A00972FA02F0030D7000030D6000030D500F0
:102F3A000030D400FF2F5408D8005508D90056088D
:102F4A00DA005708DB001F30DB36DA0CD90CD80C54
:102F5A00890BA92F5808DC005C08DD00D617FF3062
:102F6A00D405FF30D505FF30D6050030D705963099
:102F7A00DE02DE1FC12FC22FDA2F5E08803A973E8B
:102F8A000318C82FC92FCA2F972F0130D736D60C4E
:102F9A00D50CD40C890BCB2F0130D8005808DE078A
:102FAA00031DD82FD92FCA2FEF2F20305E02031C02
:102FBA00DF2FE02FEA2F972F0130D435D50DD60D0C
:102FCA00D70D890BE22F0130DE025E08031DEE2FBA
:102FDA00EF2FE12F5D080319F32FF42FFF2FD409E8
:102FEA00D509D609D709D40A0319D50A0319D60A65
:102FFA000319D70A08004C346F346134643420341E
:10300A00633465346C346C34203455346E3469342A
:10301A007434003449346E34693474346934613434
:10302A006C3469347A346534003425346434673452
:10303A0020342F3420342534643467340034253462
:10304A006C3475342034763461346C34003425346D
:10305A00643420342534253400346C346434003428
:10306A006C34693400346C347534003420340034E0
:020000040001F9
:04000E00E43FFF1EAE
:00000001FF
