:08000000803102288731E52F51
:10000C00080002340434003400340034003400346A
:10001C00003400340034F43401343F3406345B349F
:10002C004F3466346D347D3407347F346F34003490
:10003C004034143454342734103402340034F8006F
:10004C00780803192A282B283F28F31F2E282F283D
:10005C003F287009FA007109FB007209FC00730952
:10006C00FD00FA0A0319FB0A0319FC0A0319FD0A1D
:10007C0047287308FD007208FC007108FB0070082B
:10008C00FA007308720471047004031D4E284F2883
:10009C0058280030F3000030F2000030F10000303E
:1000AC00F000D0289630F4007408F900682801306C
:1000BC00F4007408F9070130FD36FC0CFB0CFA0C4B
:1000CC00890B6228FE307D05031D6D286E285D2886
:1000DC0082280130F4007408F9070130FA07003067
:1000EC00FB3D0030FC3D0030FD3D0130FD36FC0C8D
:1000FC00FB0CFA0C890B7C28FF307D05031D87282F
:10010C0088286F2892280130F9020130FA35FB0D4E
:10011C00FC0DFD0D890B8C28FC1B952896289C2822
:10012C000230790203189B289C28892879189F286B
:10013C00A028A828FF30FA05FF30FB057F30FC050E
:10014C00FF30FD050310F90C7908F400F501F601F8
:10015C00F7011830F435F50DF60DF70D890BB028B5
:10016C007408FA047508FB047608FC047708FD048F
:10017C0078080319C228C328C828F31FC628C72823
:10018C00C828FD177D08F3007C08F2007B08F100FD
:10019C007A08F00008002000BA002200AE1BD72815
:1001AC00D828DD28FD302100ED05FF30EE052200BA
:1001BC002E08803AFD0080307D02031DE7280130B7
:1001CC002D020318EA28EB28F12801302000B80092
:1001DC000030B900F92822002E082000B9002200B6
:1001EC002D082000B80022002C082000BC002200A2
:1001FC002B082000BB003008BD003108BE003208BF
:10020C00BF003308C0003408C1003508C2003608EE
:10021C00C3003708C4001F30C5000030C6002200E0
:10022C00CE017929FF302000C507FF30C63D0A30CA
:10023C00A000A101A201A301A401A501A601A7018F
:10024C003D08A8003E08A9003F08AA004008AB00E2
:10025C004108AC004208AD004308AE004408AF00B2
:10026C008A316822803120002008303EFD0045088C
:10027C002F3E8600013087007D088100FF30B807D3
:10028C00FF30B93DFF30BB07FF30BC3D0A30A0004A
:10029C00A101A201A301A401A501A601A7013D088A
:1002AC00A8003E08A9003F08AA004008AB0041087E
:1002BC00AC004208AD004308AE004408AF008B31DF
:1002CC00C923803120002008BD002108BE0022086F
:1002DC00BF002308C0002408C1002508C20026085E
:1002EC00C3002708C40020004508460403197F29D1
:1002FC008029AC293D083E043F04400441044204DB
:10030C0043044404031D8B298C2918293908803A8D
:10031C00FD0080307D02031D952901303802031841
:10032C0098299929182920003C08803AFD00803032
:10033C007D02031DA32901303B02031CA629A7291A
:10034C00AC292100ED18AB29AC291829200045084F
:10035C002F3EFD007D08A4003C08A6003B08A5002C
:10036C003A0888313820803120002508B100240853
:10037C00B0000800F2012030860000308700473FB3
:10038C00F000F01FCA29CB29EC292000A009A109F3
:10039C00A209A309A409A509A609A709A00A031D76
:1003AC00EA29A10A031DEA29A20A031DEA29A30AC4
:1003BC00031DEA29A40A031DEA29A50A031DEA293B
:1003CC00A60A031DEA29A70AF201F20A28308600C0
:1003DC0000308700473FF000F01FF529F629192A55
:1003EC002000A809A909AA09AB09AC09AD09AE09F5
:1003FC00AF09A80A031D152AA90A031D152AAA0A62
:10040C00031D152AAB0A031D152AAC0A031D152A58
:10041C00AD0A031D152AAE0A031D152AAF0A0130B9
:10042C00F0007008F2067330860000308700083048
:10043C00F00000301E00F00B202A200020082104C0
:10044C0022042304240425042604270403192F2A38
:10045C00302A8C2AF101F10A3F2AA035A10DA20DF8
:10046C00A30DA40DA50DA60DA70D0130F00070086D
:10047C00F107A71F422A432A332AF335F40DF50D51
:10048C00F60DF70DF80DF90DFA0D27082F02031DC7
:10049C00692A26082E02031D692A25082D02031D30
:1004AC00692A24082C02031D692A23082B02031D28
:1004BC00692A22082A02031D692A21082902031D20
:1004CC00692A20082802031C6C2A6D2A7E2A20081F
:1004DC00A8022108A93B2208AA3B2308AB3B24080D
:1004EC00AC3B2508AD3B2608AE3B2708AF3B73144D
:1004FC00A736A60CA50CA40CA30CA20CA10CA00C4A
:10050C000130F102031D8B2A8C2A432A720803192D
:10051C00902A912AAF2AF309F409F509F609F7098B
:10052C00F809F909FA09F30A031DAF2AF40A031DA5
:10053C00AF2AF50A031DAF2AF60A031DAF2AF70AE4
:10054C00031DAF2AF80A031DAF2AF90A031DAF2AAF
:10055C00FA0A73082000A0007408A1007508A20014
:10056C007608A3007708A4007808A5007908A600EF
:10057C007A08A70008002000BF003008C40031082A
:10058C00C5003208C6003308C7003408C800350857
:10059C00C9003608CA003708CB004430860000304A
:1005AC008700473FB800B81BDC2ADE2A0130DF2A5F
:1005BC0000302000B900BA013908C2003A08C30063
:1005CC00420843040319EB2AEC2A0A2BC409C50977
:1005DC00C609C709C809C909CA09CB09C40A031D38
:1005EC000A2BC50A031D0A2BC60A031D0A2BC70AB0
:1005FC00031D0A2BC80A031D0A2BC90A031D0A2B4B
:10060C00CA0A031D0A2BCB0A2200AE1B0E2B0F2B82
:10061C00142BFD302100ED05FF30EE0522002E08D5
:10062C00803A2000B80080303802031D202B0130A6
:10063C0022002D020318232B242B2A2B01302000FF
:10064C00BD000030BE00322B22002E082000BE0060
:10065C0022002D082000BD0022002C082000C10023
:10066C0022002B082000C00042084304031D3F2B2E
:10067C00402B452B21006D1D442B452B4A2BFF3065
:10068C002000C007FF30C13D1F302000CC000030DF
:10069C00CD002200CE01BB2BFF302000CC07FF3059
:1006AC00CD3D0A30A000A101A201A301A401A50126
:1006BC00A601A7014408A8004508A9004608AA00FD
:1006CC004708AB004808AC004908AD004A08AE002A
:1006DC004B08AF008F311627823120002108F4001F
:1006EC002008F3009531B82582317308303E200084
:1006FC00B8004C082F3E8600013087003808810076
:10070C00FF30BD07FF30BE3DFF30C007FF30C13D9D
:10071C000A30A000A101A201A301A401A501A60118
:10072C00A7014408A8004508A9004608AA004708E4
:10073C00AB004808AC004908AD004A08AE004B08B5
:10074C00AF008131C021823120002008C400210873
:10075C00C5002208C6002308C7002408C8002508C5
:10076C00C9002608CA002708CB0020004D08803A93
:10077C00B80080303802031DC52B01304C02031C1D
:10078C00C82BC92BF62B200044084504460447040B
:10079C00480449044A044B04031DD52BD62B522B79
:1007AC003E08803AB80080303802031DDF2B013040
:1007BC003D020318E22BE32B522B20004108803A18
:1007CC00B80080303802031DED2B01304002031CB1
:1007DC00F02BF12BF62B2100ED18F52BF62B522BD1
:1007EC00200042084304031DFC2BFD2B022C21008E
:1007FC006D1D012C022C1F2CFF302000CC07FF306C
:10080C00CD3D42084304031D0C2C0D2C122C2B3017
:10081C00BB000030BC00162C2D30BB000030BC00DF
:10082C003B08B8004C082F3E860001308700380882
:10083C00810020004C082F3EB8003808A400410865
:10084C00A6004008A5003F088831382082312000DE
:10085C002508B1002408B000080077088039F8009A
:10086C0078082000A4007735F8007808AB00F61F54
:10087C00402C412C422C2B142B080319462C472CB2
:10088C00572C2B0A031D4B2C4C2C542C0030F700EE
:10089C000030F6000030F5000030F400F617F701D8
:1008AC005F2C0030F7000030F6000030F50000300F
:1008BC00F40073088039F8007808A4067335F80042
:1008CC007808AC00F21F6B2C6C2C6D2C2C142C08A3
:1008DC000319712C722C822C2C0A031D762C772C6C
:1008EC007F2C0030F3000030F2000030F1000030BB
:1008FC00F000F217F3018A2C0030F3000030F20004
:10090C000030F1000030F0007308720471047004C0
:10091C00031D912C922CAB2C0030F7000030F6000C
:10092C000030F5000030F4008030F6047F30F7041E
:10093C002408F8007808F7047708F3007608F2002A
:10094C007508F1007408F000E62D2B08031DAF2C80
:10095C00B02CB92C0030F3000030F2000030F10064
:10096C000030F000E62D2B08F800F9017908FB00A7
:10097C002C087802FA00031CFB037A087F3EA500C2
:10098C0000307B3DA6007708A3007608A20075080E
:10099C00A1007408A0000030F7000030F600003011
:1009AC00F5000030F4000030AA000030A90000303F
:1009BC00A8000030A700AC01212D2C080319E72C4E
:1009CC00E82C022D0130A035A10DA20DA30D890B31
:1009DC00E92C0130F435F50DF60DF70D890BF02CE3
:1009EC00AA1FF92CFA2CFB2C74140130A735A80D76
:1009FC00A90DAA0D890BFC2C73082302031D102DC5
:100A0C0072082202031D102D71082102031D102DE6
:100A1C0070082002031C132D142D1D2D2A1770088D
:100A2C00A0027108A13B7208A23B7308A33B0130E2
:100A3C00F8007808AC071A302C02031C262D272D41
:100A4C00E32C230822042104200403192E2D2F2D1E
:100A5C00482D2714482D0130F435F50DF60DF70D02
:100A6C00890B322DAA1F3B2D3C2D3D2D74140130CA
:100A7C00A735A80DA90DAA0D890B3E2DFF30A50792
:100A8C00FF30A63DF61F4B2D4C2D312DAC01AA1F6E
:100A9C00502D512D6D2DFF302705F800FF30280506
:100AAC00F900FF302905FA007F302A05FB007B088E
:100ABC007A04790478040319642D652D682DAC0132
:100ACC00AC0A6D2D741C6B2D6C2D6D2D652D2C08A9
:100ADC000319712D722D9A2D0130F4070030F53D5C
:100AEC000030F63D0030F73D771C7D2D7E2D9A2D84
:100AFC007408F8007508F9007608FA007708FB000E
:100B0C000130FC00FB37FA0CF90CF80CFC0B882DAF
:100B1C007B08F7007A08F6007908F5007808F400ED
:100B2C000130A5070030A63D2608803AF800803039
:100B3C007802031DA32DFF302502031CA62DA72D23
:100B4C00B42DFF302000A5000030A6000030F700C7
:100B5C000030F6000030F5000030F40020002608CC
:100B6C00803AF80080307802031DBE2D013025023A
:100B7C000318C12DC22DCE2D2000A501A6010030D9
:100B8C00F7000030F6000030F5000030F400A4014E
:100B9C0020002508F8007808AB002B1CD62DD72D8B
:100BAC00D92DF617DD2D7F30F8007808F6052B3699
:100BBC00F8007808F7002408F8007808F704A22C4D
:100BCC0008002000EC004E0886008701403FD00052
:100BDC00413FD10050088400510885001200253A8D
:100BEC00031DF92DFA2DC12F4E0886008701013007
:100BFC00810741310318810A2200AB01AC012100AD
:100C0C00ED01EE01FF302200AD00FF30AE00200000
:100C1C004E0886008701403FD000413FD10050086C
:100C2C008400510885001200643A03191E2E1F2EF1
:100C3C00302E4E0886008701403FD000413FD10046
:100C4C0050088400510885001200693A031D2F2EAC
:100C5C00302E6B2E4E088600870101308107413102
:100C6C000318810A4F08860087010108840085015A
:100C7C0002308107003FD000013FD1005008DC005A
:100C8C005108DD00890D893B8909DE00DF00E00099
:100C9C00E100E200E3005C08B0005D08B1005E0812
:100CAC00B2005F08B3006008B4006108B5006208C8
:100CBC00B6006308B7006C088231C1228531200070
:100CCC003108CF003008CE00E42F4E088600870193
:100CDC00403FF000413FF1003130F2009830F3001A
:100CEC000230F4000030F500893144218531700860
:100CFC0071040319822E832E9C2E20004E08860030
:100D0C008701403FF000413FF1003430F200983051
:100D1C00F3000230F4000030F500893144218531B4
:100D2C0070087104031D9B2E9C2EDE2E20004E0895
:100D3C00860087010230810741310318810A4F0870
:100D4C008600870101088400850104308107003F7B
:100D5C00D000013FD100023FD200033FD300500826
:100D6C00DC005108DD005208DE005308DF000030C3
:100D7C00DF1BFF30E000E100E200E3005C08B000A4
:100D8C005D08B1005E08B2005F08B3006008B400F3
:100D9C006108B5006208B6006308B7006C088231C0
:100DAC00C122853120003108CF003008CE00E42F5D
:100DBC0020004E0886008701403FD000413FD10003
:100DCC0050088400510885001200753A031DEF2E5F
:100DDC00F02E242F4E088600870101308107413107
:100DEC000318810A4F0886008701010884008501D9
:100DFC0002308107003FE400013FE500E601E70116
:100E0C00E801E901EA01EB016408B0006508B100F2
:100E1C006608B2006708B3006808B4006908B5003A
:100E2C006A08B6006B08B7006C088031D120853198
:100E3C0020003108CF003008CE00E42F4E08860089
:100E4C008701403FF000413FF1003730F20098300D
:100E5C00F3000230F4000030F50089314421853173
:100E6C0070087104031D3B2F3C2F8B2F20004E0864
:100E7C00860087010230810741310318810A4F082F
:100E8C008600870101088400850104308107003F3A
:100E9C00D000013FD100023FD200033FD3005008E5
:100EAC00D4005108D5005208D6005308D700D801F9
:100EBC00D901DA01DB015B08EB005A08EA0059089A
:100ECC00E9005808E8005708E7005608E6005508FE
:100EDC00E5005408E4006408B0006508B100660839
:100EEC00B2006708B3006808B4006908B5006A0866
:100EFC00B6006B08B7006C088031D120853120001A
:100F0C003108CF003008CE00E42F20004E088600B8
:100F1C008701403FD000413FD10050088400510868
:100F2C0085001200253A031D9C2F9D2FB62F4E08CD
:100F3C00860087010130810741310318810A253071
:100F4C00F0000030F1006C08D0005008F20097312E
:100F5C005A27853101302000CE000030CF00E42F1D
:100F6C004E08860087010130810741310318810A40
:100F7C00CE01CF01E42F4E0886008701403FD00000
:100F8C00413FD10050088400510885000008D20070
:100F9C00D3015208F0005308F1006C08D400540837
:100FAC00F20097315A27853120004E0886008701C0
:100FBC000130810741310318810AB02F0800073036
:100FCC008400803085004F308600013087001E3051
:100FDC009531122587312100ED01EE01EF01203012
:100FEC008400013085002F3095310C25873120008D
:040FFC008931FF290F
:10100600240016081F39031D09280A280328141965
:101016000D280E28032808002000A300A101A20124
:1010260027282008F900FA017908F0007A08F1006B
:101036007808FB007B08F20097315A278831013087
:101046002000A1070030A23D21082307F9007908F6
:101056008600013087000108FA007A08A0002008FF
:10106600031D36283728142808002000AB0021006D
:101076006D1C3E283F28482820002B08FC007C08D1
:10108600F800240888310F2088312000A61B4C2840
:101096004D2852282608AA002508A9005428A90187
:1010A600AA01A701A80168282030F0000030F1004D
:1010B60020002B08FC007C08F20097315A27883163
:1010C60001302000A7070030A83D2808803AFC0020
:1010D6002A08803A7C02031D722829082702031C6D
:1010E60075287628572821006D187A287B288428A9
:1010F60020002B08FC007C08F800240888310F200B
:101106008831200024089531D2258831200029080D
:101116007007A4002A08713DA50008002100D5002B
:101126001A30A5009830A6005508860087010108E8
:101136000A3E86008701403FA700413FA8005508A8
:10114600023E86008701403FA900413FAA00B53014
:101156009631462688312C302100A5009830A6000D
:101166005508043E860087010108B300B401330820
:10117600A7003408A800C5309631462688312100DC
:10118600550A86008701010897311C278831B5303A
:101196002000A6000030A700A801A9012100550AD9
:1011A6008600870101089531A0258831C5302000C9
:1011B600A6000030A700A801A901A90A2100550A26
:1011C6008600870101089531A02588310800003086
:1011D600FC000030FB000030FA000030F900730814
:1011E6007204710470040319F928FA283B29FD01D9
:1011F600FD0A08290130F035F10DF20DF30D890BCA
:10120600FE280130F8007808FD07F31F0B290C298A
:10121600FD280130F935FA0DFB0DFC0D890B0D2962
:1012260073087702031D212972087602031D2129FE
:1012360071087502031D212970087402031C2429F4
:1012460025292E297008F4027108F53B7208F63B31
:101256007308F73B79140130F336F20CF10CF00CFD
:10126600890B2F290130FD02031D3A293B290C2940
:101276007C08F3007B08F2007A08F1007908F00098
:1012860008007108F8007008F7007308FA00720881
:10129600F9000130F4020030F53B740A031D5729AA
:1012A600750A031D572958296729F001F1019F295D
:1012B6000130F7070030F83D0130F9070030FA3DFC
:1012C6000130F4020030F53B770884007808850089
:1012D600120003196F2970298F29790884007A086A
:1012E600850012000319782979298F297408750455
:1012F60003197E297F298F29790884007A088500B9
:101306000008F6007708840078088500000876064D
:1013160003198E298F295B297708840078088500B0
:101326000008F600790884007A088500000876022D
:10133600F000F101031CF10308002000BC00083096
:10134600BA003A08A0003C088600870101088E31E1
:101356003326893120003C08860087010108063EB5
:10136600860087012008C03F2108C13F2208C23FEE
:101376002308C33F3C088600870101088C314D24B1
:10138600893120003C088600870101080A3E860054
:10139600870116000104031DD129D229D8293C084A
:1013A600043E860087018101FE296430BA003A08AE
:1013B600F8003C088600870101080A3E860087017E
:1013C600403FF200413FF3003C08023E86008701A1
:1013D600403FF000413FF1009631E0268931700828
:1013E60095315E2589312000BB003C08043E86000D
:1013F60087013B08810008009531262589312300A5
:101406008C018D01043021008D0022008C018D019C
:1014160013302400920028309500960194014F3035
:10142600860001308700DC308400003085000C30F7
:101436002100D60016001A00D60B1D2A22006C08C1
:101446002100DB0022006B082100DA0022006A0876
:101456002100D900220069082100D800203086002A
:1014660001308700E8308400003085000530D60062
:1014760016001A00D60B3B2ADC30D6005608E800C8
:10148600D830D6005608E900F430EA000130EB0007
:10149600EC01E8308B314D238931E8308931A021C8
:1014A6008931E83088319120893106302100D70012
:1014B6001330D600AD30890B5E2AD60B5E2AD70BC9
:1014C6005E2A0032502A803102282000200821049A
:1014D6002204230424042504260427040319742A59
:1014E600752AC82AF101F10A842AA035A10DA20D98
:1014F600A30DA40DA50DA60DA70D0130F0007008D3
:10150600F107A71F872A882A782A27082F02031D92
:10151600A62A26082E02031DA62A25082D02031D2B
:10152600A62A24082C02031DA62A23082B02031D23
:10153600A62A22082A02031DA62A21082902031D1B
:10154600A62A20082802031CA92AAA2ABA2A2008A1
:10155600A8022108A93B2208AA3B2308AB3B240882
:10156600AC3B2508AD3B2608AE3B2708AF3BA7366C
:10157600A60CA50CA40CA30CA20CA10CA00C01306B
:10158600F102031DC72AC82A882A2808A0002908AC
:10159600A1002A08A2002B08A3002C08A4002D08ED
:1015A600A5002E08A6002F08A70008000310720D3C
:1015B600730DF4007408FA007A08031DE32AE42A7E
:1015C600ED2A0030F3000030F2000030F100003068
:1015D600F0004C2B7008F4007108F5007208F60054
:1015E6007308F7001F30F736F60CF50CF40C890B70
:1015F600F62A7408F8007808F900F217FF30F005AB
:10160600FF30F105FF30F2050030F3059630FA029F
:10161600FA1F0E2B0F2B272B7A08803A973E0318BA
:10162600152B162B172BE42A0130F336F20CF10C8E
:10163600F00C890B182B0130F4007408FA07031D0F
:10164600252B262B172B3C2B20307A02031C2C2B08
:101656002D2B372BE42A0130F035F10DF20DF30D69
:10166600890B2F2B0130FA027A08031D3B2B3C2BEA
:101676002E2B79080319402B412B4C2BF009F1092D
:10168600F209F309F00A0319F10A0319F20A031918
:10169600F30A08002100C400440A860087010108F5
:1016A6008D318A258B312100440A86008701010885
:1016B600953173258B310F302000A6009830A70096
:1016C600A801A9012100440A860087010108953175
:1016D600A0258B3100302000A6009830A700A80175
:1016E600A901A90A2100440A86008701010895314B
:1016F600A0258B3132302100B30033082000A00032
:10170600210044088600870101088E3133268B317B
:1017160021004408860087010108023E86008701F1
:1017260020002008C03F2108C13F2208C23F2308ED
:10173600C33F24302100A5009830A6004408860047
:1017460087010108063E86008701403FA700413F0A
:10175600A800423FA900433FAA00B430963146266E
:101766008B312100440A86008701010897311C2726
:101776008B31B430FA000030FB002100440A8600A9
:1017860087010108963122268B31080071308600C8
:10179600003087000830F00000301E00F00BD02B20
:1017A60020002008210422042304240425042604FE
:1017B60027040319DF2BE02B3C2CF901F90AEF2B48
:1017C600A035A10DA20DA30DA40DA50DA60DA70D67
:1017D6000130F0007008F907A71FF22BF32BE32B5B
:1017E600F135F20DF30DF40DF50DF60DF70DF80DBF
:1017F60027082F02031D192C26082E02031D192C5B
:1018060025082D02031D192C24082C02031D192C52
:1018160023082B02031D192C22082A02031D192C4A
:1018260021082902031D192C20082802031C1C2C40
:101836001D2C2E2C2008A8022108A93B2208AA3B11
:101846002308AB3B2408AC3B2508AD3B2608AE3B42
:101856002708AF3B7114A736A60CA50CA40CA30C45
:10186600A20CA10CA00C0130F902031D3B2C3C2C50
:10187600F32B7108A0007208A1007308A200740877
:10188600A3007508A4007608A5007708A6007808C6
:10189600A70008002000B9003908023E860087012B
:1018A600403FAD00413FAE00423FAF00433FB00076
:1018B6003908063E86008701403FB100413FB2002D
:1018C600423FB300433FB40030083402031D752C79
:1018D6002F083302031D752C2E083202031D752CAA
:1018E6002D0831020318782C792C812C39080A3EF0
:1018F600860087010030C03FC13FE62C3908023E12
:1019060086008701403FAD00413FAE00423FAF0039
:10191600433FB0003908063E86008701403FB100CC
:10192600413FB200423FB300433FB4002D08B1022D
:101936002E08B23B2F08B33B3008B43B3408F30003
:101946003308F2003208F1003108F000003080312F
:1019560025208C3173082000B8007208B700710882
:10196600B6007008B5004330F300F630F200803060
:10197600F1000030F0003808F7003708F6003608A6
:10198600F5003508F400843133248C3173082000C7
:10199600B8007208B7007108B6007008B5003808BC
:1019A600F3003708F2003608F1003508F0008A31F6
:1019B600D9228C31200039080A3E8600870170083A
:1019C600C03F7108C13F0800F500750A860087010F
:1019D6000103031DEF2CF02CFA2C20000D08013911
:1019E600F200F3017208F0007308F100892D750A00
:1019F6008600870102300106031D022D032D0D2DE1
:101A060020000D0C0139F200F3017208F000730892
:101A1600F100892D750A8600870104300106031D31
:101A2600152D162D212D20000D0C890C0139F200E3
:101A3600F3017208F0007308F100892D750A86001B
:101A4600870108300106031D292D2A2D372D200078
:101A56000D0CF200F20C720C0139F300F40173085C
:101A6600F0007408F100892D750A86008701103090
:101A76000106031D3F2D402D4A2D20000D0E013974
:101A8600F200F3017208F0007308F100892D750A5F
:101A96008600870120300106031D522D532D5E2D31
:101AA60020000D0E890C0139F200F3017208F000D6
:101AB6007308F100892D750A8600870140300106FA
:101AC600031D662D672D732D20000D0E890C890CC4
:101AD6000139F200F3017208F0007308F100892D54
:101AE600750A8600870180300106031D7B2D7C2D3B
:101AF600872D20000D0D0D0D0139F200F30172083E
:101B0600F0007308F100892DF001F1010800F800DA
:101B16000530F7000F30F600F130890B902DF60BEB
:101B2600902DF70B902D00003030F6007608F3006C
:101B36007808963107268D310D30F600FC30890B7A
:101B4600A22DF60BA22D3030F6007608F3007808A9
:101B5600963107268D310D30F600FC30890BB12DFC
:101B6600F60BB12D3030F6007608F3007808963182
:101B760007268D31C830890BBE2D2030F600760839
:101B8600F3007808963107268D310630890BC92D6A
:101B960000322030F6007608F300780896310726E2
:101BA6008D314230890BD52D00328030F600760813
:101BB600F3007808963107268D31F30178089631BF
:101BC60007268D314230890BE62D0032C030F600F3
:101BD6007608F3007808963107268D31F3017808E8
:101BE600963107268D314230890BF72D00321030A1
:101BF600F6007608F3007808963107268D310D3009
:101C0600F600FC30890B052EF60B052EF30178083D
:101C1600963107268D314230890B0F2E0032603007
:101C2600F6007608F3007808963107268D31F30121
:101C36007808963107268D314230890B202E0032E6
:101C46002030F6007608F3007808963107268D31A5
:101C56000830F600CA30890B2E2EF60B2E2E080001
:101C66002000B200320895313A258E31003020002E
:101C7600B0000030AF000030AE000030AD000030E4
:101C8600AB000030AA000030A9000030A800AC016B
:101C9600D22E200032088C31E7248E317008710470
:101CA6000319562E572E4C2E200032088C31E7246D
:101CB6008E31700371040319612E622E572E063081
:101CC600890B632E00322000B1010130AD35AE0D17
:101CD600AF0DB00D890B692E3208953130258E3146
:101CE6000630890B742E00322000320895313A25D1
:101CF6008E31200032088C31E7248E3170082000A6
:101D0600A4007108A5000030A51BFF30A600A7009F
:101D16002408AD072508AE3D2608AF3D2708B03D8F
:101D26000630890B942E003201302000A4002408CE
:101D3600B10718303102031CA12EA22E682EB10164
:101D46003208953130258E310630890BA82E0032A7
:101D56002000320895313A258E310630890BB12E96
:101D6600003201302000A4002408B107310803190D
:101D7600BD2EBE2EA32E2D08A8072E08A93D2F087E
:101D8600AA3D3008AB3D0030B0000030AF00003057
:101D9600AE000030AD000130A4002408AC072008D6
:101DA6002C02031CD72ED82E4C2E2008A400A501E9
:101DB600A601A7012708F3002608F2002508F1006E
:101DC6002408F0002B08F7002A08F6002908F50079
:101DD6002808F4008831EA208E3173082000B0000C
:101DE6007208AF007108AE007008AD0000302D0615
:101DF600A40000302E06A50080302F06A600003075
:101E06003006A7002708B0002608AF002508AE0058
:101E16002408AD003008A3002F08A2002E08A10058
:101E26002D08A0000800F201283086000030870047
:101E3600473FF000F01F202F212F422F2000A80936
:101E4600A909AA09AB09AC09AD09AE09AF09A80AE7
:101E5600031D402FA90A031D402FAA0A031D402F68
:101E6600AB0A031D402FAC0A031D402FAD0A031D0C
:101E7600402FAE0A031D402FAF0AF201F20A2030AE
:101E8600860000308700473FF000F01F4B2F4C2F95
:101E96006B2F2000A009A109A209A309A409A5097D
:101EA600A609A709A00A031D6B2FA10A031D6B2F04
:101EB600A20A031D6B2FA30A031D6B2FA40A031D81
:101EC6006B2FA50A031D6B2FA60A031D6B2FA70AEE
:101ED60020002008210422042304240425042604C7
:101EE60027040319772F782FCB2FF101F10A872FBB
:101EF600A035A10DA20DA30DA40DA50DA60DA70D30
:101F06000130F0007008F107A71F8A2F8B2F7B2F57
:101F160027082F02031DA92F26082E02031DA92F0D
:101F260025082D02031DA92F24082C02031DA92F05
:101F360023082B02031DA92F22082A02031DA92FFD
:101F460021082902031DA92F20082802031CAC2FF3
:101F5600AD2FBD2F2008A8022108A93B2208AA3BC5
:101F66002308AB3B2408AC3B2508AD3B2608AE3B1B
:101F76002708AF3BA736A60CA50CA40CA30CA20CF5
:101F8600A10CA00C0130F102031DCA2FCB2F8B2F01
:101F960072080319CF2FD02FEE2FA809A909AA0975
:101FA600AB09AC09AD09AE09AF09A80A031DEE2FAE
:101FB600A90A031DEE2FAA0A031DEE2FAB0A031D65
:101FC600EE2FAC0A031DEE2FAD0A031DEE2FAE0A4F
:101FD600031DEE2FAF0A20002808A0002908A10043
:101FE6002A08A2002B08A3002C08A4002D08A5008F
:0A1FF6002E08A6002F08A70008001F
:102A10001630210097000800640080010131890B05
:102A20000D2D0034FE0012001E00FE0B132D00348D
:102A300070302100990098012200960108002400BE
:102A400016151619242D252D212D08009531EC255C
:102A50009531953118259531953108259531080026
:102A6000F1007108860087010108F000700822005B
:102A70008D040800F1007108860087010109F0004B
:102A8000700822008D05080088310320953124004C
:102A9000161416184C2D4D2D492D0800F000700805
:102AA000240091001418552D562D522D161B592D0A
:102AB0005A2D562D8831032095310800FB00FA016C
:102AC0007B1C632D642D682D7808F9007908FA07BE
:102AD0000310F80D0310FB0C7B08031D702D712DE6
:102AE000602D7A080800F4000830F3007308F10044
:102AF00074089531892595310830F3007408033E38
:102B000086008701730881000630890B852D00320D
:102B10000800F2009531442595317208860087013E
:102B2000013595314E259531710895314E259531F8
:102B300095311F2595310630890B9C2D00320800F8
:102B4000FD0020002808AA002A08FA002908AB0086
:102B50002B08FB007D0896316E2695312000270852
:102B6000FB002608FA007D089631222695310800E0
:102B70007408803AF50080307502031DC12D0130C4
:102B800073020318C42DC52DD12D7309F5007409E6
:102B9000F600F50A0319F60A7508F3007608F40042
:102BA000D12D0800F4007408F2007208F300DC2D47
:102BB0000130F2007208F4077408860001308700C3
:102BC0000108031DE42DE52DD82D73087402F000D3
:102BD000F101F01BF1030800220090018C018D012E
:102BE0008E01083021009000FF308C00FF308D00F6
:102BF000FF308E00FE3023008D001F308C0024003B
:102C000090018D012100951722009D010800F5001B
:102C10007308F4007408F100750895318925963120
:102C200073080438F4007408F1007508953189259B
:102C300096317308F4007408F10075089531892500
:102C4000963108002000A1003C2E7A0884007B0801
:102C500085000008FC007C082000A0000130FA0775
:102C60000030FB3D2008FC007C08F300F401F40A6E
:102C700021089731A92796317A0884007B088500BE
:102C80001200031D442E452E252E08002100AC0005
:102C9000A730AB002B08AD002C08AB002B08AE0012
:102CA000AF01B001B101B20126082000EE00210001
:102CB00025082000ED00AD302100AB002B082000DE
:102CC000EF00AE309631A726963121002F082C0751
:102CD000AB002B0886008701810108002000A500B9
:102CE000220068082000A300220067082000A2003C
:102CF000220066082000A100220065082000A00034
:102D00002508023E860087017B0801020318892EF0
:102D10008A2E932E2508023E860087010108FF3E79
:102D2000FC007C08FB007B08203E86008701010830
:102D30007A078038FC007C08A4002408FC007C088A
:102D4000F300F40125089731A927963108002100E6
:102D5000A20020006E082100A40020006D082100C0
:102D6000A3002200A901AA01CD2EA330A0002008B3
:102D70002000CE006F082100A10021082000CF0014
:102D8000210022088531E725963120004E082200D7
:102D9000A90720004F082200AA3D21002308840033
:102DA000240885001200031DD62ED72EB52E220032
:102DB0002A082000EE00220029082000ED0008006B
:102DC000F501F601700871040319E72EE82E172F9C
:102DD000F701F70AF42E0130F035F10D890BEC2ED6
:102DE0000130F4007408F707F11FF72EF82EEB2ED0
:102DF0000130F535F60D890BF92E71087302031DAC
:102E0000032F70087202031C062F072F0C2F700867
:102E1000F2027108F33B75140130F136F00C890BA6
:102E20000D2F0130F702031D162F172FF82E7608ED
:102E3000F1007508F00008002000AA00A801492F41
:102E4000A9013C2F2908A6002608FA002808A70097
:102E50002708FB002A0896316E2697313A30FA008F
:102E60009830FB0020002A08963122269731013045
:102E70002000A6002608A9072A0A86008701010863
:102E80002902031C442F452F222F0130A6002608BB
:102E9000A8072A08023E8600870101082802031CB1
:102EA000522F532F202FFA01FB012A0896316E264C
:102EB00097310800720803195E2F5F2F642F720884
:102EC000031D632F642F692F70088031062097310E
:102ED000A82F7208033E860087011600010403191B
:102EE000722F732F902F7208033E86008701403F98
:102EF000F300413FF400720A86008701403FF5006D
:102F0000413FF6007608803AF7007408803A77026D
:102F1000031D8C2F7308750203188F2F902FA82F75
:102F20007008F300720886008701720A8400850128
:102F300000080107F4007408860087017308810007
:102F4000720A860087010130810741310318810A26
:102F50000800F9007908033E860087017308F039FC
:102F600001047404F5007508F7007908033E860033
:102F700087017308F5000330F535FF3E031DBC2FB4
:102F80007535F03901047404F6007608F800770806
:102F9000F5007508F1007908953189259731770892
:102FA0000438F5007508F1007908953189259731C5
:102FB0007708FB39F5007508F10079089531892506
:102FC00097314230890BE22F00327808F5007508FE
:102FD000F100790895318925973178080438F50092
:102FE0007508F10079089531892597317808FB3902
:102FF000F5007508F10079089531892597310800A9
:103000004C346F34613464342034633465346C344C
:103010006C34203455346E3469347434003449349B
:103020006E3469347434693461346C3469347A349C
:103030006534003425346434673420342F3420342C
:10304000253464346734003425346C3475342034CA
:10305000763461346C3400342534643420342534BF
:1030600000346C34643400346C34693400346C34AF
:083070007534003420340034F3
:020000040001F9
:04000E00E43FFF1EAE
:00000001FF
