:020000040000FA
:08000000803102288731EC2F4A
:100C9A000800163021009700080020000C0C0139CA
:100CAA000800FE0012001E00FE0B572E00347030A2
:100CBA00210099009801220096010800F0007008AE
:100CCA000F39203E86008701010808008631D326A5
:100CDA00863186315C26863186314E268631080079
:100CEA003F3406345B344F3466346D347D34073414
:100CFA007F346F34FF34FF34FF34FF340030200078
:100D0A00B1000030B0000030AF000030AE00043057
:100D1A00FA007A08F500F6012E308631E926863186
:100D2A000800F2007003031D9B2E9C2EA32E72084E
:100D3A0007390838F1007108FD00A82E7208073932
:100D4A00F1007108FD000800FE30F0007008210073
:100D5A008C05FD30F00070088C0522000C148C14F0
:100D6A00FE30F00070088C05FD30F00070088C052C
:100D7A000800FE30F000700821008C05FD30F000FC
:100D8A0070088C05FE30F000700822008C05FD30DA
:100D9A00F00070088C050C148C14080022008C01D9
:100DAA008D01FF3021008C00FF308D00FE302300C2
:100DBA008D001F308C0024008D018C0121009517B5
:100DCA0022009D019E010800F8008631A92686317D
:100DDA0040308731232786318631BE2686318631D7
:100DEA00A926863176080339C03E87312327863102
:100DFA00F9010D2F79087807F7007708860087012F
:100E0A0001088731232786310130F7007708F9076F
:100E1A0075087902031C122F132FFF2E8631BE2666
:100E2A0086318631A92686317D080F39803E873181
:100E3A00232786318631BE2686310800F1007108E3
:100E4A00F0007008F300FD30F000700821008C05F6
:100E5A00F401FD30F000700822008C05731C362F57
:100E6A00372F392F0C143D2FFE30F00070088C05F7
:100E7A008C147336F0007008F3000130F00070082B
:100E8A00F40708307402031C4B2F4C2F2E2F02300C
:100E9A00F00070088C050C148C1421000C14863197
:100EAA004D268731863152268731F0007008F200CC
:100EBA007208031D612F622F6C2FFE30F00070083C
:100ECA0021008C05FE30F000700822008C05863166
:100EDA004D268731FE30F000700821008C058631DE
:100EEA004D268731080086316B26873120002D0870
:100EFA00B6002C08B5002B08B4002A08B3008631C6
:100F0A00832687310130863163268731FB007B08CF
:100F1A002000B3000930863163268731FB007B0845
:100F2A002000B4000830863163268731FB007B0835
:100F3A002000B5000430863163268731FB007B0828
:100F4A002000B600F001F00A0F308631962687316C
:100F5A000430FB007B08F500F60133308631E926C0
:100F6A0087312000B201B70137083207863163267C
:100F7A008731FB0020003708333E860087017B0853
:100F8A0081000130FB007B08B70704303702031CDD
:100F9A00CF2FD02FB92F0430FB007B08F500F601C4
:100FAA0033308631E92687310B30FC002630FB00CE
:100FBA005E30890BDE2FFB0BDE2FFC0BDE2F0130A0
:100FCA00FB007B082000B207B82F80310228753059
:100FDA0084008630850020308600003087000E307D
:100FEA00863156268731FD01B801B901BA01BB0124
:060FFA0020008731782F72
:020000040001F9
:04000E00E43FFF1EAE
:00000001FF
