:08000000803102288731CD2F69
:10000C000800720803190B280C2811287208031D0C
:10001C0010281128162870088031062080315528A8
:10002C007208033E860087011600010403191F287D
:10003C0020283D287208033E86008701403FF300CC
:10004C00413FF400720A86008701403FF500413FB2
:10005C00F6007608803AF7007408803A7702031DA0
:10006C0039287308750203183C283D285528700858
:10007C00F300720886008701720A8400850100086B
:10008C000107F40074088600870173088100720A66
:10009C00860087010130810741310318810A08006D
:1000AC002000BF003008C4003108C5003208C6006B
:1000BC003308C7003408C8003508C9003608CA0020
:1000CC003708CB004430860000308700473FB8002B
:1000DC00B81B712873280130742800302000B90037
:1000EC00BA013908C2003A08C30042084304031994
:1000FC00802881289F28C409C509C609C709C809D1
:10010C00C909CA09CB09C40A031D9F28C50A031DC6
:10011C009F28C60A031D9F28C70A031D9F28C80ACB
:10012C00031D9F28C90A031D9F28CA0A031D9F2867
:10013C00CB0A2100E11BA328A428A828FD30E20546
:10014C00FF30E3056108803A2000B80080303802A7
:10015C00031DB3280130210060020318B628B7280C
:10016C00BD2801302000BD000030BE00C528210094
:10017C0061082000BE00210060082000BD002100A5
:10018C005F082000C10021005E082000C00042086A
:10019C004304031DD228D328D8282100621DD72858
:1001AC00D828DD28FF302000C007FF30C13D1F30AC
:1001BC002000CC000030CD002300BF014E29FF30C1
:1001CC002000CC07FF30CD3D0A30A000A101A201D8
:1001DC00A301A401A501A601A7014408A800450894
:1001EC00A9004608AA004708AB004808AC0049081B
:1001FC00AD004A08AE004B08AF008D312825803188
:10020C0020002108F4002008F3009F31732780316F
:10021C007308303E2000B8004C08A03E8600013028
:10022C00870038088100FF30BD07FF30BE3DFF302E
:10023C00C007FF30C13D0A30A000A101A201A301FB
:10024C00A401A501A601A7014408A8004508A9001E
:10025C004608AA004708AB004808AC004908AD00A6
:10026C004A08AE004B08AF008E31FF2680312000CB
:10027C002008C4002108C5002208C6002308C700B6
:10028C002408C8002508C9002608CA002708CB0086
:10029C0020004D08803AB80080303802031D5829E0
:1002AC0001304C02031C5B295C298929200044087D
:1002BC00450446044704480449044A044B04031DFE
:1002CC0068296929E5283E08803AB8008030380250
:1002DC00031D722901303D02031875297629E52882
:1002EC0020004108803AB80080303802031D802974
:1002FC0001304002031C8329842989292100E2183A
:10030C0088298929E528200042084304031D8F29E8
:10031C00902995292100621D94299529B229FF3035
:10032C002000CC07FF30CD3D42084304031D9F291C
:10033C00A029A5292B30BB000030BC00A9292D30E9
:10034C00BB000030BC003B08B8004C08A03E860047
:10035C00013087003808810020004C08A03EB8000E
:10036C003808A4004108A6004008A5003F089231B7
:10037C008322803120002508B1002408B000080039
:10038C0077088039F80078082000A4007735F80049
:10039C007808AB00F61FD329D429D5292B142B08A8
:1003AC000319D929DA29EA292B0A031DDE29DF29A9
:1003BC00E7290030F7000030F6000030F50000307F
:1003CC00F400F617F701F2290030F7000030F600C0
:1003DC000030F5000030F40073088039F80078081C
:1003EC00A4067335F8007808AC00F21FFE29FF292B
:1003FC00002A2C142C080319042A052A152A2C0A65
:10040C00031D092A0A2A122A0030F3000030F200D8
:10041C000030F1000030F000F217F3011D2A00301B
:10042C00F3000030F2000030F1000030F0007308EF
:10043C00720471047004031D242A252A3E2A0030FC
:10044C00F7000030F6000030F5000030F40080308A
:10045C00F6047F30F7042408F8007808F7047708CE
:10046C00F3007608F2007508F1007408F000792B9F
:10047C002B08031D422A432A4C2A0030F30000307B
:10048C00F2000030F1000030F000792B2B08F8005E
:10049C00F9017908FB002C087802FA00031CFB0315
:1004AC007A087F3EA50000307B3DA6007708A300AC
:1004BC007608A2007508A1007408A0000030F700AF
:1004CC000030F6000030F5000030F4000030AA00D7
:1004DC000030A9000030A8000030A700AC01B42AFD
:1004EC002C0803197A2A7B2A952A0130A035A10DF4
:1004FC00A20DA30D890B7C2A0130F435F50DF60DF8
:10050C00F70D890B832AAA1F8C2A8D2A8E2A741424
:10051C000130A735A80DA90DAA0D890B8F2A7308D8
:10052C002302031DA32A72082202031DA32A7108A9
:10053C002102031DA32A70082002031CA62AA72A45
:10054C00B02A2A177008A0027108A13B7208A23BBE
:10055C007308A33B0130F8007808AC071A302C0262
:10056C00031CB92ABA2A762A23082204210420045F
:10057C000319C12AC22ADB2A2714DB2A0130F435DD
:10058C00F50DF60DF70D890BC52AAA1FCE2ACF2A19
:10059C00D02A74140130A735A80DA90DAA0D890B0A
:1005AC00D12AFF30A507FF30A63DF61FDE2ADF2A31
:1005BC00C42AAC01AA1FE32AE42A002BFF3027052A
:1005CC00F800FF302805F900FF302905FA007F30CC
:1005DC002A05FB007B087A04790478040319F72AAE
:1005EC00F82AFB2AAC01AC0A002B741CFE2AFF2A49
:1005FC00002BF82A2C080319042B052B2D2B01306A
:10060C00F4070030F53D0030F63D0030F73D771C27
:10061C00102B112B2D2B7408F8007508F900760897
:10062C00FA007708FB000130FC00FB37FA0CF90CE0
:10063C00F80CFC0B1B2B7B08F7007A08F6007908EA
:10064C00F5007808F4000130A5070030A63D260817
:10065C00803AF80080307802031D362BFF302502DB
:10066C00031C392B3A2B472BFF302000A500003000
:10067C00A6000030F7000030F6000030F500003026
:10068C00F40020002608803AF80080307802031D20
:10069C00512B013025020318542B552B612B2000B4
:1006AC00A501A6010030F7000030F6000030F5007F
:1006BC000030F400A40120002508F8007808AB00F5
:1006CC002B1C692B6A2B6C2BF617702B7F30F800C8
:1006DC007808F6052B36F8007808F7002408F8009F
:1006EC007808F704352A08002000EC004E08860034
:1006FC008701403FD000413FD10050088400510891
:10070C0085001200253A031D8C2B8D2B522D4E0883
:10071C00860087010130810741310318810A2100CD
:10072C00DE01DF01E201E301FF30E000FF30E10018
:10073C0020004E0886008701403FD000413FD10089
:10074C0050088400510885001200643A0319AF2B3D
:10075C00B02BC12B4E0886008701403FD000413F93
:10076C00D10050088400510885001200693A031D1D
:10077C00C02BC12BFC2B4E08860087010130810752
:10078C0041310318810A4F08860087010108840053
:10079C00850102308107003FD000013FD100500895
:1007AC00DC005108DD00890D893B8909DE00DF0082
:1007BC00E000E100E200E3005C08B0005D08B1007D
:1007CC005E08B2005F08B3006008B4006108B500B1
:1007DC006208B6006308B7006C088031562083317C
:1007EC0020003108CF003008CE00752D4E08860051
:1007FC008701403FF000413FF1004130F200A03052
:10080C00F3000230F4000030F50093319123833172
:10081C00700871040319132C142C2D2C20004E0875
:10082C0086008701403FF000413FF1004430F20068
:10083C00A030F3000230F4000030F5009331912326
:10084C00833170087104031D2C2C2D2C6F2C20006F
:10085C004E08860087010230810741310318810A56
:10086C004F08860087010108840085010430810748
:10087C00003FD000013FD100023FD200033FD30024
:10088C005008DC005108DD005208DE005308DF0080
:10089C000030DF1BFF30E000E100E200E3005C0809
:1008AC00B0005D08B1005E08B2005F08B3006008DC
:1008BC00B4006108B5006208B6006308B7006C08A4
:1008CC0080315620833120003108CF003008CE0013
:1008DC00752D20004E0886008701403FD000413F17
:1008EC00D10050088400510885001200753A031D90
:1008FC00802C812CB52C4E08860087010130810795
:10090C0041310318810A4F088600870101088400D1
:10091C00850102308107003FE400013FE500E6015C
:10092C00E701E801E901EA01EB016408B0006508A0
:10093C00B1006608B2006708B3006808B400690823
:10094C00B5006A08B6006B08B7006C088E31122629
:10095C00833120003108CF003008CE00752D4E08B1
:10096C0086008701403FF000413FF1004730F20024
:10097C00A030F3000230F4000030F50093319123E5
:10098C00833170087104031DCC2CCD2C1C2D200040
:10099C004E08860087010230810741310318810A15
:1009AC004F08860087010108840085010430810707
:1009BC00003FD000013FD100023FD200033FD300E3
:1009CC005008D4005108D5005208D6005308D7005F
:1009DC00D801D901DA01DB015B08EB005A08EA0007
:1009EC005908E9005808E8005708E7005608E600DF
:1009FC005508E5005408E4006408B0006508B1002F
:100A0C006608B2006708B3006808B4006908B5004E
:100A1C006A08B6006B08B7006C088E311226833159
:100A2C0020003108CF003008CE00752D20004E0874
:100A3C0086008701403FD000413FD1005008840020
:100A4C00510885001200253A031D2D2D2E2D472D02
:100A5C004E08860087010130810741310318810A55
:100A6C002530F0000030F1006C08D0005008F20086
:100A7C0080310720833101302000CE000030CF00C0
:100A8C00752D4E088600870101308107413103180E
:100A9C00810ACE01CF01752D4E0886008701403F9B
:100AAC00D000413FD1005008840051088500000857
:100ABC00D200D3015208F0005308F1006C08D400A6
:100ACC005408F20080310720833120004E08860044
:100ADC0087010130810741310318810A412D08003B
:100AEC00200030088039B5003508BA003035B50023
:100AFC003508C000AF1F832D842D852D4014400870
:100B0C000319892D8A2D992D400A031D8E2D8F2DA9
:100B1C00972D0030B0000030AF000030AE00003038
:100B2C00AD00AF17A12D0030B0000030AF00003089
:100B3C00AE000030AD0034088039B5003508BA0677
:100B4C003435B5003508BF00B31FAD2DAE2DAF2D1C
:100B5C003F143F080319B32DB42DC32D3F0A031DB9
:100B6C00B82DB92DC12D0030B4000030B3000030C9
:100B7C00B2000030B100B317CB2D0030B400003000
:100B8C00B3000030B2000030B1003F080319CF2D84
:100B9C00D02DD52D4008031DD42DD52DDE2D0030A4
:100BAC00B0000030AF000030AE000030AD00CC2FF4
:100BBC002D08B5003508F00033089F31DD2785314D
:100BCC0071082000C6007008C5004508B500B601C4
:100BDC00B701B8013808BE003708BD003608BC00A4
:100BEC003508BB004608B500B601B701B801380896
:100BFC00C4003708C3003608C2003508C1002E08EF
:100C0C00B5003508F00032089F31DD2785317108B9
:100C1C002000C6007008C5004508B500B601B70134
:100C2C00B8013508BB073608BC3D3708BD3D380850
:100C3C00BE3D4608B500B601B701B8013508C1077D
:100C4C003608C23D3708C33D3808C43D2F08B500EF
:100C5C003508F00031089F31DD27853171082000FF
:100C6C00C6007008C5004508B500B601B701B8014B
:100C7C003508BB073608BC3D3708BD3D3808BE3DBE
:100C8C004608B500B601B701B8013508C1073608EA
:100C9C00C23D3708C33D3808C43D0830BB35BC0DD8
:100CAC00BD0DBE0D890B542E2E08B5003508F00075
:100CBC0031089F31DD27853171082000C60070088E
:100CCC00C5004508BB074608BC3D0030BD3DBE3DD8
:100CDC002D08B5003508F00032089F31DD2785312D
:100CEC0071082000C6007008C5004508BB074608FF
:100CFC00BC3D0030BD3DBE3D0830BB35BC0DBD0D0F
:100D0C00BE0D890B832E2D08B5003508F000310877
:100D1C009F31DD27853171082000C6007008C500A1
:100D2C004508BB074608BC3D0030BD3DBE3D2E0806
:100D3C00B5003508F00033089F31DD278531710887
:100D4C002000C6007008C5004508C1074608C23D12
:100D5C000030C33DC43D2F08B5003508F000320803
:100D6C009F31DD27853171082000C6007008C50051
:100D7C004508C1074608C23D0030C33DC43D2F089D
:100D8C00B5003508F00033089F31DD278531710837
:100D9C002000C6007008C5004508B5004608B6001E
:100DAC00B701B8010830B535B60DB70DB80D890BC4
:100DBC00D92E3508C1073608C23D3708C33D38085F
:100DCC00C43D3B08B5003C08B6003D08B7003E08E2
:100DDC00B8001830B836B70CB60CB50C890BF02E21
:100DEC003508C1073608C23D3708C33D3808C43D35
:100DFC000830BB35BC0DBD0DBE0D890BFF2E400858
:100E0C003F07B500B601B60D3508823EC500FF3070
:100E1C00363DC600282F0130C135C20DC30DC40D9F
:100E2C00890B122FBE1F1B2F1C2F1D2F411401309D
:100E3C00BB35BC0DBD0DBE0D890B1E2FFF30C5077C
:100E4C00FF30C63DC31F2B2F2C2F112FBF01BE1FF0
:100E5C00302F312F4D2FFF303B05B500FF303C05B7
:100E6C00B600FF303D05B7007F303E05B8003808AE
:100E7C003704360435040319442F452F482FBF017E
:100E8C00BF0A4D2F411C4B2F4C2F4D2F452F3F0888
:100E9C000319512F522F7A2F0130C1070030C23D58
:100EAC000030C33D0030C43D441C5D2F5E2F7A2FB3
:100EBC004108B5004208B6004308B7004408B80022
:100ECC000130B900B837B70CB60CB50CB90B682F9C
:100EDC003808C4003708C3003608C2003508C10002
:100EEC000130C5070030C63D4608803AB500803059
:100EFC003502031D832FFF304502031C862F872FDD
:100F0C00912F7F302000C4008030C3000030C2001D
:100F1C000030C100C02F20004608803AB500803058
:100F2C003502031D9B2F0130450203189E2F9F2F66
:100F3C00AA2F00302000C4000030C3000030C200D3
:100F4C000030C100BA01C02F20004508B50035089B
:100F5C00C000FF30C105FF30C2057F30C305003033
:100F6C00C405401CBA2FBB2FBC2FC3174036B5008D
:100F7C003508C4003A08B5003508C4044408B0006C
:100F8C004308AF004208AE004108AD0008003630FF
:100F9C0084009E308500E5308600003087000830E4
:100FAC009E311A2687310330840090308500203022
:100FBC008600013087001C309E311A268731D830CC
:100FCC008400003085000D309E3114268731563058
:100FDC0084000130850008309E3114268731A03002
:100FEC0084000130850020309E311426873120008A
:040FFC008A319A2A72
:1010020016302100970008007130860000308700FA
:101012000830F00000301E00F00B0C2820002008E1
:10102200210422042304240425042604270403198A
:101032001B281C287828F901F90A2B28A035A10DB4
:10104200A20DA30DA40DA50DA60DA70D0130F00054
:101052007008F907A71F2E282F281F28F135F20D37
:10106200F30DF40DF50DF60DF70DF80D27082F020F
:10107200031D552826082E02031D552825082D027A
:10108200031D552824082C02031D552823082B0272
:10109200031D552822082A02031D5528210829026A
:1010A200031D552820082802031C582859286A289D
:1010B2002008A8022108A93B2208AA3B2308AB3B2F
:1010C2002408AC3B2508AD3B2608AE3B2708AF3BC6
:1010D2007114A736A60CA50CA40CA30CA20CA10C8F
:1010E200A00C0130F902031D772878282F287108F7
:1010F200A0007208A1007308A2007408A30075087A
:10110200A4007608A5007708A6007808A7000800C2
:10111200F500750A8600013087000103031D92283D
:1011220093289D2820000D080139F200F30172086E
:10113200F0007308F1003329750A86000130870038
:1011420002300106031DA628A728B12820000D0C95
:101152000139F200F3017208F0007308F10033293B
:10116200750A86000130870004300106031DBA2883
:10117200BB28C62820000D0C890C0139F200F301AE
:101182007208F0007308F1003329750A86000130F5
:10119200870008300106031DCF28D028DD28200053
:1011A2000D0CF200F20C720C0139F300F401730819
:1011B200F0007408F1003329750A860001308700B7
:1011C20010300106031DE628E728F12820000D0E45
:1011D2000139F200F3017208F0007308F1003329BB
:1011E200750A86000130870020300106031DFA28A7
:1011F200FB28062920000D0E890C0139F200F301AB
:101202007208F0007308F1003329750A8600013074
:10121200870040300106031D0F2910291C292000D8
:101222000D0E890C890C0139F200F3017208F000ED
:101232007308F1003329750A860001308700803077
:101242000106031D25292629312920000D0D0D0D2A
:101252000139F200F3017208F0007308F10033293A
:10126200F001F1010800F8007808031939293A2938
:101272004E29F31F3D293E294E297009FA007109B2
:10128200FB007209FC007309FD00FA0A0319FB0A4C
:101292000319FC0A0319FD0A56297308FD00720896
:1012A200FC007108FB007008FA00730872047104F4
:1012B2007004031D5D295E2967290030F3000030A8
:1012C200F2000030F1000030F000DF299630F40027
:1012D2007408F90077290130F4007408F907013025
:1012E200FD36FC0CFB0CFA0C890B7129FE307D05D6
:1012F200031D7C297D296C2991290130F400740891
:10130200F9070130FA070030FB3D0030FC3D0030A8
:10131200FD3D0130FD36FC0CFB0CFA0C890B8B29D0
:10132200FF307D05031D962997297E29A1290130C9
:10133200F9020130FA35FB0DFC0DFD0D890B9B29DD
:10134200FC1BA429A529AB29023079020318AA297A
:10135200AB2998297918AE29AF29B729FF30FA05A8
:10136200FF30FB057F30FC05FF30FD050310F90C53
:101372007908F400F501F601F7011830F435F50D9E
:10138200F60DF70D890BBF297408FA047508FB04E2
:101392007608FC047708FD0478080319D129D229BC
:1013A200D729F31FD529D629D729FD177D08F300A0
:1013B2007C08F2007B08F1007A08F00008002000A7
:1013C200AA0021006C082000A90021006B0820005F
:1013D200A80021006A082000A70021006908200057
:1013E200A6007D08A2002208AB00E830F00003301E
:1013F200F1002B08A200A3012208F2002308F30047
:101402009331ED23893170082000A4002408F900EB
:101412002A089E312E2689312000A5002508A60023
:10142200E830F0000330F1002B08A200A3012208EB
:10143200F2002308F30091318121893170082000E4
:10144200A4002408AB006430F0000030F1002B0847
:10145200A200A3012208F2002308F3009331ED2336
:10146200893170082000A4002408F9002A089E315E
:101472002E2689312000A5002508A7006430F0003F
:101482000030F1002B08A200A3012208F200230879
:10149200F30091318121893170082000A4002408D1
:1014A200AB000A30F0000030F1002B08A200A301CB
:1014B2002208F2002308F3009331ED2389317008EA
:1014C2002000A4002408F9002A089E312E26893122
:1014D2002000A5002508A8000A30F0000030F10025
:1014E2002B08A200A3012208F2002308F300913185
:1014F2008121893170082000A4002408AB002B0848
:10150200A2002208F9002A089E312E2689312000E5
:10151200A3002308A9002630A2002208F800043004
:10152200A3002308F900FA012A08933136238931EE
:1015320008009E313E268A3123008C018D01043041
:1015420021008D00F8308E0022008C018D018E0169
:101552001330240092002830950096019401203027
:1015620086000130870042308400013085000C3053
:101572002100D60016001A00D60BBB2A2200390819
:10158200BF003808BE003708BD003608BC003B0863
:10159200C1003A08C00056308600013087004E3044
:1015A20084000130850008302100D60016001A00A0
:1015B200D60BD72A4230D60056082200CE003C3045
:1015C2002100D60056082200CF0040302100D6006C
:1015D20056082200D000F430D1000130D2001E3073
:1015E200D3000030D400D5014E3096311B268A310B
:1015F2004E308C3144248A314E309431BD248A31AC
:1016020020008E1B052B062B202BF4302100B3006B
:101612000130B4001E30B5000030B6004E309131BA
:1016220005218A310B302100D7002630D6005D30EB
:10163200890B192BD60B192BD70B192B0032200033
:101642000E1B242B252B3F2B5E302100B3000130D3
:10165200B4000F30B5000030B6004E309131052194
:101662008A310B302100D7002630D6005D30890B3D
:10167200382BD60B382BD70B382B003220008E1A82
:10168200432B442BF92A63302100B3000130B4000C
:101692002330B5000030B6004E30913105218A3139
:1016A2000B302100D7002630D6005D30890B572B36
:1016B200D60B572BD70B572B0032F92A8031022831
:1016C2002000B20032089E315D268B3100302000AE
:1016D200B0000030AF000030AE000030AD0000308E
:1016E200AB000030AA000030A9000030A800AC0115
:1016F200002C20003208883189208B317008710457
:101702000319842B852B7A2B2000320888318920FB
:101712008B317003710403198F2B902B852B0630AC
:10172200890B912B00322000B1010130AD35AE0D95
:10173200AF0DB00D890B972B32089E3152268B319B
:101742000630890BA22B0032200032089E315D2622
:101752008B3120003208883189208B3170082000BB
:10176200A4007108A5000030A51BFF30A600A70049
:101772002408AD072508AE3D2608AF3D2708B03D39
:101782000630890BC22B003201302000A40024084D
:10179200B10718303102031CCF2BD02B962BB1018D
:1017A20032089E3152268B310630890BD62B0032FD
:1017B200200032089E315D268B310630890BDF2BEB
:1017C200003201302000A4002408B10731080319B7
:1017D200EB2BEC2BD12B2D08A8072E08A93D2F08A7
:1017E200AA3D3008AB3D0030B0000030AF00003001
:1017F200AE000030AD000130A4002408AC07200880
:101802002C02031C052C062C7A2B2008A400A5010F
:10181200A601A7012708F3002608F2002508F10017
:101822002408F0002B08F7002A08F6002908F50022
:101832002808F4009231DC228B3173082000B000BA
:101842007208AF007108AE007008AD0000302D06BE
:10185200A40000302E06A50080302F06A60000301E
:101862003006A7002708B0002608AF002508AE0002
:101872002408AD003008A3002F08A2002E08A10002
:101882002D08A00008002000EB001030DF005F08E8
:10189200A0006B0886000130870001088B316123AC
:1018A2008C3120006B088600013087000108063E5B
:1018B2008600013087002008C03F2108C13F22086E
:1018C200C23F2308C33F6B0886000130870001082E
:1018D2009631B7268C3120006B08860001308700D4
:1018E20001080A3E86000130870016000104031D2C
:1018F2007B2C7C2C832C6B08073E860001308700F2
:101902008101272D6B08053E860001308700403F8C
:10191200DF00413FE0006B088600013087000108CC
:101922000A3E860001308700403FE100413FE2006D
:1019320060086202031D9F2C5F0861020318A22C3B
:10194200A32CAA2C6B08073E860001308700810178
:10195200272D6B08053E8600013087006B08840046
:101962000130850000080A3E840001308500403FB6
:101972000002F0000131413F003BF100F201F301AE
:101982000030893134218C3173082000E60072085E
:10199200E5007108E4007008E3006B08033E86006E
:1019A20001308700403FDF00413FE0005F08F00068
:1019B2006008F100F201F3010030893134218C31E9
:1019C20073082000EA007208E9007108E800700854
:1019D200E7006608F7006508F6006408F50063088A
:1019E200F4006A08F3006908F2006808F100670869
:1019F200F0008131C6218C3173082000B4007208D6
:101A0200B3007108B2007008B1004230B000C830B3
:101A1200AF000030AE000030AD00853176258C314C
:101A220020003008CA002F08C9002E08C8002D085F
:101A3200C70095312E258C3120004708DF006B0846
:101A4200073E8600013087005F0881000800F2012E
:101A52002830860000308700473FF000F01F322D0B
:101A6200332D542D2000A809A909AA09AB09AC09F4
:101A7200AD09AE09AF09A80A031D522DA90A031D1B
:101A8200522DAA0A031D522DAB0A031D522DAC0A78
:101A9200031D522DAD0A031D522DAE0A031D522DF8
:101AA200AF0AF201F20A2030860000308700473F79
:101AB200F000F01F5D2D5E2D7D2D2000A009A109F3
:101AC200A209A309A409A509A609A709A00A031D39
:101AD2007D2DA10A031D7D2DA20A031D7D2DA30AC2
:101AE200031D7D2DA40A031D7D2DA50A031D7D2D39
:101AF200A60A031D7D2DA70A200020082104220426
:101B0200230424042504260427040319892D8A2D7D
:101B1200DD2DF101F10A992DA035A10DA20DA30D24
:101B2200A40DA50DA60DA70D0130F0007008F10758
:101B3200A71F9C2D9D2D8D2D27082F02031DBB2D28
:101B420026082E02031DBB2D25082D02031DBB2DC9
:101B520024082C02031DBB2D23082B02031DBB2DC1
:101B620022082A02031DBB2D21082902031DBB2DB9
:101B720020082802031CBE2DBF2DCF2D2008A8024D
:101B82002108A93B2208AA3B2308AB3B2408AC3B13
:101B92002508AD3B2608AE3B2708AF3BA736A60C6F
:101BA200A50CA40CA30CA20CA10CA00C0130F102F8
:101BB200031DDC2DDD2D9D2D72080319E12DE22D73
:101BC200002EA809A909AA09AB09AC09AD09AE09F9
:101BD200AF09A80A031D002EA90A031D002EAA0A96
:101BE200031D002EAB0A031D002EAC0A031D002E9E
:101BF200AD0A031D002EAE0A031D002EAF0A2000FF
:101C02002808A0002908A1002A08A2002B08A30086
:101C12002C08A4002D08A5002E08A6002F08A70056
:101C220008002000BA002100E11B182E192E1D2EDB
:101C3200FD30E205FF30E3056108803AFD008030A7
:101C42007D02031D262E013060020318292E2A2E42
:101C5200302E01302000B8000030B900382E2100AB
:101C620061082000B900210060082000B8002100AE
:101C72005F082000BC0021005E082000BB00300885
:101C8200BD003108BE003208BF003308C00034086E
:101C9200C1003508C2003608C3003708C4001F302F
:101CA200C5000030C6002300BF01B82EFF3020005F
:101CB200C507FF30C63D0A30A000A101A201A30161
:101CC200A401A501A601A7013D08A8003E08A9009C
:101CD2003F08AA004008AB004108AC004208AD0032
:101CE2004308AE004408AF0094314C248E312000EA
:101CF2002008303EFD004508A03E860001308700E6
:101D02007D088100FF30B807FF30B93DFF30BB07C7
:101D1200FF30BC3D0A30A000A101A201A301A40131
:101D2200A501A601A7013D08A8003E08A9003F0899
:101D3200AA004008AB004108AC004208AD004308CD
:101D4200AE004408AF00883105208E312000200803
:101D5200BD002108BE002208BF002308C0002408DD
:101D6200C1002508C2002608C3002708C4002000BD
:101D7200450846040319BE2EBF2EEB2E3D083E0435
:101D82003F0440044104420443044404031DCA2E98
:101D9200CB2E572E3908803AFD0080307D02031D7C
:101DA200D42E013038020318D72ED82E572E2000F9
:101DB2003C08803AFD0080307D02031DE22E013096
:101DC2003B02031CE52EE62EEB2E2100E218EA2E42
:101DD200EB2E572E20004508A03EFD007D08A400F2
:101DE2003C08A6003B08A5003A08923183228E31B6
:101DF20020002508B1002408B0000800F2012030BC
:101E0200860000308700473FF000F01F092F0A2F9D
:101E12002B2F2000A009A109A209A309A409A50941
:101E2200A609A709A00A031D292FA10A031D292F0C
:101E3200A20A031D292FA30A031D292FA40A031D89
:101E4200292FA50A031D292FA60A031D292FA70A38
:101E5200F201F20A2830860000308700473FF00086
:101E6200F01F342F352F582F2000A809A909AA09DD
:101E7200AB09AC09AD09AE09AF09A80A031D542F7D
:101E8200A90A031D542FAA0A031D542FAB0A031DCE
:101E9200542FAC0A031D542FAD0A031D542FAE0A52
:101EA200031D542FAF0A0130F0007008F2067330A0
:101EB2008600003087000830F00000301E00F00B72
:101EC2005F2F200020082104220423042404250477
:101ED2002604270403196E2F6F2FCB2FF101F10A6D
:101EE2007E2FA035A10DA20DA30DA40DA50DA60D4B
:101EF200A70D0130F0007008F107A71F812F822F74
:101F0200722FF335F40DF50DF60DF70DF80DF90DF1
:101F1200FA0D27082F02031DA82F26082E02031DE3
:101F2200A82F25082D02031DA82F24082C02031D0B
:101F3200A82F23082B02031DA82F22082A02031D03
:101F4200A82F21082902031DA82F20082802031CFC
:101F5200AB2FAC2FBD2F2008A8022108A93B2208D5
:101F6200AA3B2308AB3B2408AC3B2508AD3B260823
:101F7200AE3B2708AF3B7314A736A60CA50CA40CE6
:101F8200A30CA20CA10CA00C0130F102031DCA2F5C
:101F9200CB2F822F72080319CF2FD02FEE2FF309E8
:101FA200F409F509F609F709F809F909FA09F30A32
:101FB200031DEE2FF40A031DEE2FF50A031DEE2F6B
:101FC200F60A031DEE2FF70A031DEE2FF80A031D72
:101FD200EE2FF90A031DEE2FFA0A73082000A00063
:101FE2007408A1007508A2007608A3007708A4006F
:0E1FF2007808A5007908A6007A08A700080064
:102006000234043400340034003400340034003424
:1020160000340034123402343F3406345B344F3417
:1020260066346D347D3407347F346F34273410348E
:1020360002340034083410342000A10039287A080C
:1020460084007B0885000008FC007C082000A000B6
:102056000130FA070030FB3D2008FC007C08F30045
:10206600F401F40A210892312A2290317A08840078
:102076007B0885001200031D4128422822280800FB
:102086002100AD00A730AB002B08AC002D08AB003B
:102096002B08AE00AF01B001B101B2012608200045
:1020A600EE00210025082000ED00AC302100AB0039
:1020B6002B082000EF00AE309031942090312100A3
:1020C6002F082D07AB002B08860087018101080029
:1020D6002000A300A101A20183282008F900FA012B
:1020E6007908F0007A08F1007808FB007B08F20016
:1020F60080310720903101302000A1070030A23D39
:1021060021082307F90079088600013087000108B5
:10211600FA007A08A0002008031D92289328702848
:1021260008002100A20020006E082100A400200063
:102136006D082100A300DC01DD01B928A330A00051
:1021460020082000CE006F082100A10021082000F1
:10215600CF002100220883317A23903120004E08D7
:102166002100DC0720004F082100DD3D2308840004
:10217600240885001200031DC128C228A1285D0875
:102186002000EE0021005C082000ED000800200081
:10219600A500210068082000A30021006708200090
:1021A600A200210066082000A10021006508200089
:1021B600A0002508023E8600013087007B08010248
:1021C6000318E628E728F1282508023E8600013094
:1021D60087000108FF3EFC007C08FB007B08203ED0
:1021E6008600870101087A078038FC007C08A40075
:1021F6002408FC007C08F300F401250892312A2209
:10220600903108002100C7004708033E86000130D0
:1022160087003308C03F3408C13F4708053E8600A3
:10222600013087003508C03F3608C13F0F30A50092
:10223600A030A6003408A8003308A700B7309031B4
:10224600432091312100470A8600013087000108AA
:10225600913141219131B730FA000030FB00210065
:10226600470A860001308700010890311F2091310E
:10227600210047088C314424913108002000AA002F
:10228600A8016F29A90161292908A6002608FA00D4
:102296002808A7002708FB002A089031CA20913198
:1022A6004A30FA00A030FB0020002A0890311F2097
:1022B600913101302000A6002608A9072A0A8600C7
:1022C6000130870001082902031C6A296B29472966
:1022D6000130A6002608A8072A08023E860001301B
:1022E600870001082802031C79297A294529FA0161
:1022F600FB012A089031CA2091310800F601F31F2C
:10230600852986298D29F209F309F20A0319F30AA8
:10231600F601F60AF11F902991299629F009F1098B
:10232600F00A0319F10A7008710403199B299C2904
:10233600C529F501F50AA8290130F035F10D890BFB
:10234600A0290130F4007408F507F11FAB29AC2968
:102356009F2971087302031DB22970087202031CBB
:10236600B529B629BA297008F2027108F33B013083
:10237600F136F00C890BBB290130F502031DC42987
:10238600C529AC2976080319C929CA29CF29F20912
:10239600F309F20A0319F30A7308F1007208F00050
:1023A6000800F7007208F3007308F50077089E31FD
:1023B6007E269131F60177089E3173269131751C80
:1023C600E529E629EB2977089E3189269131EF29FF
:1023D60077089E319426913177089E31682691318F
:1023E6007536F3007308F5000130F3007308F6073D
:1023F60008307602031C002A012ADE2977089E315E
:102406007326913177089E318926913177089E315E
:102416006826913177089E31AA2691317708953141
:10242600A3259131F3007308F4007408031D1C2AD8
:102436001D2A252A77089E319F26913177089E31DD
:102446009426913177089E319F2691310800F90034
:102456007908033E8600013087007308F0390104CD
:102466007404F5007508F7007908033E860001300C
:1024760087007308F5000330F535FF3E031D3F2A3C
:102486007535F03901047404F6007608F80077080B
:10249600F5007508F10079089F310F27923177080A
:1024A6000438F5007508F10079089F310F2792313D
:1024B6007708FB39F5007508F10079089F310F2779
:1024C60092314230890B652A00327808F50075088A
:1024D600F10079089F310F27923178080438F5000A
:1024E6007508F10079089F310F2792317808FB397A
:1024F600F5007508F10079089F310F279231080021
:102506002000AB002100621C892A8A2A932A200017
:102516002B08FC007C08F800240890316B209231CF
:102526002000A61B972A982A9D2A2608AA00250875
:10253600A9009F2AA901AA01A701A801B32A203050
:10254600F0000030F10020002B08FC007C08F200AF
:1025560080310720923101302000A7070030A83DC6
:102566002808803AFC002A08803A7C02031DBD2A0E
:1025760029082702031CC02AC12AA22A21006218A0
:10258600C52AC62ACF2A20002B08FC007C08F800A2
:10259600240890316B209231200024089F318D272A
:1025A6009231200029087007A4002A08713DA50071
:1025B60008000030FC000030FB000030FA0000305C
:1025C600F90073087204710470040319EB2AEC2AEB
:1025D6002D2BFD01FD0AFA2A0130F035F10DF20D21
:1025E600F30D890BF02A0130F8007808FD07F31F78
:1025F600FD2AFE2AEF2A0130F935FA0DFB0DFC0DF6
:10260600890BFF2A73087702031D132B72087602C3
:10261600031D132B71087502031D132B700874021A
:10262600031C162B172B202B7008F4027108F53BA0
:102636007208F63B7308F73B79140130F336F20C57
:10264600F10CF00C890B212B0130FD02031D2C2B04
:102656002D2BFE2A7C08F3007B08F2007A08F10095
:102666007908F00008002000A10021089F313F27CB
:1026760093314030FB007B08F200200021089131A5
:10268600D4219331200021089F315927933120000E
:1026960021089F313F2793317A080339C03EFB005A
:1026A6007B08F200200021089131D42193312000CB
:1026B600A001702B20087807FB007B0886008701A5
:1026C6000108FC007C08F20021089131D4219331E5
:1026D6000130FB007B082000A00779082002031CBC
:1026E600752B762B5D2B21089F31592793312000BE
:1026F60021089F313F279331210064080F39803E1E
:10270600FB007B08F200200021089131D42193318F
:10271600200021089F315927933108007108F800DD
:102726007008F7007308FA007208F9000130F40225
:102736000030F53B740A031DA42B750A031DA42B58
:10274600A52BB42BF001F101EC2B0130F70700307B
:10275600F83D0130F9070030FA3D0130F40200304F
:10276600F53B770884007808850012000319BC2B16
:10277600BD2BDC2B790884007A088500120003192A
:10278600C52BC62BDC2B740875040319CB2BCC2B5D
:10279600DC2B790884007A0885000008F6007708A3
:1027A600840078088500000876060319DB2BDC2BED
:1027B600A82B77088400780885000008F6007908B9
:1027C60084007A08850000087602F000F101031CF7
:1027D600F1030800F601F11FF12BF22BF92BF0099A
:1027E600F109F00A0319F10AF601F60AF31FFC2BA8
:1027F600FD2B062CF209F309F20A0319F30A01303C
:10280600F4007408F606F701F8017008710403195C
:102816000D2C0E2C3D2CF501F50A1A2C0130F03545
:10282600F10D890B122C0130F4007408F507F11F25
:102836001D2C1E2C112C0130F735F80D890B1F2C81
:1028460071087302031D292C70087202031C2C2CBC
:102856002D2C322C7008F2027108F33B77140130EC
:10286600F136F00C890B332C0130F502031D3C2C9C
:102876003D2C1E2C76080319412C422C472CF709B7
:10288600F809F70A0319F80A7808F1007708F00042
:10289600080020002008210422042304240425041F
:1028A600260427040319582C592CAC2CF101F10AE3
:1028B600682CA035A10DA20DA30DA40DA50DA60D86
:1028C600A70D0130F0007008F107A71F6B2C6C2CC8
:1028D6005C2C27082F02031D8A2C26082E02031DB6
:1028E6008A2C25082D02031D8A2C24082C02031D80
:1028F6008A2C23082B02031D8A2C22082A02031D78
:102906008A2C21082902031D8A2C20082802031C70
:102916008D2C8E2C9E2C2008A8022108A93B22086B
:10292600AA3B2308AB3B2408AC3B2508AD3B260855
:10293600AE3B2708AF3BA736A60CA50CA40CA30CF0
:10294600A20CA10CA00C0130F102031DAB2CAC2C87
:102956006C2C2808A0002908A1002A08A2002B0830
:10296600A3002C08A4002D08A5002E08A6002F08F9
:10297600A70008002100D5002830A500A030A60039
:10298600550886000130870001080A3E860001309E
:102996008700403FA700413FA8005508033E860038
:1029A60001308700403FA900413FAA00B530903171
:1029B600432094313B302100A500A030A6005508E5
:1029C600073E8600013087000108B300B4013308D2
:1029D600A7003408A800C530903143209431210067
:1029E600550A860001308700010891314121943152
:1029F600B5302000A6000030A700A801A9012100DB
:102A0600550A86000130870001089F312727943137
:102A1600C5302000A6000030A700A801A901A90A18
:102A26002100550A86000130870001089F312727BB
:102A36009431210055088600013087000130473F58
:102A4600FD005508023E86000130870001088931E5
:102A5600E0219431080003102000490D4A0DCB00F7
:102A66004B08D1005108031D392D3A2D432D003056
:102A7600CA000030C9000030C8000030C700A22DCF
:102A86004708CB004808CC004908CD004A08CE00CC
:102A96001F30CE36CD0CCC0CCB0C890B4C2D4B08F5
:102AA600CF004F08D000C917FF30C705FF30C80553
:102AB600FF30C9050030CA059630D102D11F642DFA
:102AC600652D7D2D5108803A973E03186B2D6C2D90
:102AD6006D2D3A2D0130CA36C90CC80CC70C890BAE
:102AE6006E2D0130CB004B08D107031D7B2D7C2DAD
:102AF6006D2D922D20305102031C822D832D8D2D9C
:102B06003A2D0130C735C80DC90DCA0D890B852D63
:102B16000130D1025108031D912D922D842D5008AC
:102B26000319962D972DA22DC709C809C909CA09E7
:102B3600C70A0319C80A0319C90A0319CA0A0800E9
:102B4600F100710A8600013087000103031DAC2DD8
:102B5600AD2DB12D20000D0801391A2E710A8600FF
:102B66000130870002300106031DBA2DBB2DBF2D93
:102B760020000D0C01391A2E710A860001308700DB
:102B860004300106031DC82DC92DCE2D20000D0CC5
:102B9600890C01391A2E710A860001308700083027
:102BA6000106031DD72DD82DDF2D20000D0CF000BA
:102BB600F00C700C01391A2E710A8600013087005C
:102BC60010300106031DE82DE92DED2D20000D0E18
:102BD60001391A2E710A860001308700203001065D
:102BE600031DF62DF72DFC2D20000D0E890C013945
:102BF6001A2E710A86000130870040300106031D37
:102C0600052E062E0C2E20000D0E890C890C01397E
:102C16001A2E710A86000130870080300106031DD6
:102C2600152E162E1A2E20000D0D0D0D0139080039
:102C36002100C400440A860001308700010897314C
:102C4600572796312100440A860001308700010883
:102C56009E31F82696311D302000A600A030A70030
:102C6600A801A9012100440A860001308700010855
:102C76009F312727963100302000A600A030A700FC
:102C8600A801A901A90A2100440A8600013087008B
:102C960001089F312727963121004408023E86000D
:102CA6000130870001089E31D1269631FD012100B1
:102CB6004408023E86000130870001088931E02180
:102CC600963132302100B30033082000A0002100E5
:102CD600440886000130870001088B316123963154
:102CE600210044088600013087000108023E860064
:102CF6000130870020002008C03F2108C13F22087C
:102D0600C23F2308C33F33302100A500A030A600F0
:102D160044088600013087000108063E860001301F
:102D26008700403FA700413FA800423FA900433F1C
:102D3600AA00B4309031432096312100440A86001F
:102D4600013087000108913141219631B430FA00F3
:102D56000030FB002100440A86000130870001088C
:102D660090311F20963108002000DE005E08023EEA
:102D7600860001308700403FD200413FD300423FEA
:102D8600D400433FD5005E08063E8600013087002A
:102D9600403FD600413FD700423FD800433FD900CD
:102DA60055085902031DE12E54085802031DE12E51
:102DB60053085702031DE12E520856020318E42E4B
:102DC600E52EEE2E5E080A3E8600013087000030B2
:102DD600C03FC13F562F5E08023E86000130870085
:102DE600403FD200413FD300423FD400433FD5008D
:102DF6005E08063E860001308700403FD600413F10
:102E0600D700423FD800433FD9005208D6025308A4
:102E1600D73B5408D83B5508D93B5908F300580806
:102E2600F2005708F1005608F000003089313421CD
:102E3600963173082000DD007208DC007108DB00A3
:102E46007008DA004330F300F630F2008030F1000B
:102E56000030F0005D08F7005C08F6005B08F5003E
:102E66005A08F4008131C621963173082000DD002E
:102E76007208DC007108DB007008DA005D08CA0021
:102E86005C08C9005B08C8005A08C70095312E25A2
:102E9600963120005E080A3E86000130870047080A
:102EA600C03F4808C13F0800F8000530F7000F3062
:102EB600F600F130890B5D2FF60B5D2FF70B5D2FBA
:102EC60000003030F6007608F30078089F31C227FC
:102ED60097310D30F600FC30890B6F2FF60B6F2FF4
:102EE6003030F6007608F30078089F31C227973114
:102EF6000D30F600FC30890B7E2FF60B7E2F30301E
:102F0600F6007608F30078089F31C2279731C8305B
:102F1600890B8B2F2030F6007608F30078089F3156
:102F2600C22797310630890B962F00322030F600E3
:102F36007608F30078089F31C22797314230890B13
:102F4600A22F00328030F6007608F30078089F3111
:102F5600C2279731F30178089F31C2279731423053
:102F6600890BB32F0032C030F6007608F3007808DC
:102F76009F31C2279731F30178089F31C2279731D5
:102F86004230890BC42F00321030F6007608F30069
:102F960078089F31C22797310D30F600FC30890B37
:102FA600D22FF60BD22FF30178089F31C227973123
:102FB6004230890BDC2F00326030F6007608F300D1
:102FC60078089F31C2279731F30178089F31C227CD
:102FD60097314230890BED2F00322030F60076080B
:102FE600F30078089F31C22797310830F600CA30BF
:0A2FF600890BFB2FF60BFB2F0800E0
:103C2800640080010131890B152E0034FE0012005A
:103C38001E00FE0B1B2E00347030210099009801E5
:103C48002200960108002400161516192C2E2D2E78
:103C5800292E080079080F392C3E8600013087008C
:103C6800010808000034403414345434FF34FF345D
:103C7800FF34FF349F31A7279E319E3120269E3185
:103C8800883101209E3108009E31B5269E312400DE
:103C980016141618502E512E4D2E0800F1007108DA
:103CA8008600013087000108F000700822008D04AA
:103CB8000800F10071088600013087000109F00052
:103CC800700822008D050800F10071088600013097
:103CD80087000108F000700822008D040800F10038
:103CE80071088600013087000109F0007008220081
:103CF8008D050800F1007108860001308700010970
:103D0800F000700821008D050800F100710A860096
:103D1800013087000108F000700822008D040800B7
:103D2800F100710A8600013087000109F00070086F
:103D380022008D050800F100710A86000130870015
:103D48000109F000700821008D050800F100710AD2
:103D58008600013087000108F000700821008D04FA
:103D68000800240016081F39031DBB2EBC2EB52ED3
:103D78001419BF2EC02EB52E0800F00070082400BC
:103D880091001418C82EC92EC52E161BCC2ECD2E68
:103D9800C92E9E31B5269E3108002000AD000F3097
:103DA800AC002C08F000F101F10A2D089E31E42640
:103DB8009E31FD0120002D088931E0219E31080047
:103DC8007103031DE82EE92EF12E70080739083813
:103DD800F20072082100E400F72E70080739F2009B
:103DE80072082100E4000800F4000830F3007308AA
:103DF800F10074089F310F279E310830F3007408D2
:103E0800033E860001308700730881000630890B65
:103E18000B2F00320800F2009E3148269F317208AD
:103E280086000130870001359E31C1269F31710817
:103E38009E31C1269F319E3127269F310630890B3E
:103E4800232F00320800FD0020002808AA002A08B5
:103E5800FA002908AB002B08FB007D089031CA2026
:103E68009F3120002708FB002608FA007D089031C2
:103E78001F209F310800F20072089E319F269F3153
:103E880072089E317E269F3172089E3189269F31A5
:103E980072089E3168269F3172089E3194269F31A0
:103EA80072089E3173269F310800F20072089E3115
:103EB8009F269F3172089E317E269F3172089E315F
:103EC80073269F3172089E3194269F3172089E3165
:103ED80068269F3172089E3189269F310800740830
:103EE800803AF50080307502031D7C2F0130730283
:103EF80003187F2F802F8C2F7309F5007409F600A3
:103F0800F50A0319F60A7508F3007608F4008C2FF1
:103F18000800F4007408F2007208F300972F0130CB
:103F2800F2007208F407740886000130870001085F
:103F3800031D9F2FA02F932F73087402F000F10127
:103F4800F01BF1030800220090018C018D018E0105
:103F5800083021009000FF308C00FF308D00FF30CA
:103F68008E00FE3023008D001F308C00240090014D
:103F78008D012100951722009D010800F5007308A6
:103F8800F4007408F10075089F310F279F317308FA
:103F98000438F4007408F10075089F310F279F3129
:103FA8007308F4007408F10075089F310F279F31DA
:103FB8000800F800F401F5017008F200F301720836
:103FC800F6007308F700781CEA2FEB2FEF2F76081E
:103FD800F4077708F53D0130F635F70D890BF02F1A
:103FE8000310F80C7808031DFA2FFB2FE72F75082C
:103FF800F1007408F00008004C346F346134643404
:104008002034633465346C346C34203455346E3465
:1040180069347434003473346534743420346D3442
:104028006134783420346D346C342034253464346D
:10403800003449346E3469347434693461346C340E
:1040480069347A3465340034253464346734203470
:104058002F342034253464346D346C3400342534E2
:104068006C3475342034763461346C34003425343F
:10407800643420342534253400346C3464340034FA
:104088006C34693400346C347534003420340034B2
:020000040001F9
:04000E00E43FFF1EAE
:00000001FF
