:10000000803102288731E12F24001615161909289E
:100010000A2806280800F601F11F0F2810281728C3
:10002000F009F109F00A0319F10AF601F60AF31FC3
:100030001A281B282428F209F309F20A0319F30AE3
:100040000130F4007408F606F701F8017008710435
:1000500003192B282C285B28F501F50A38280130D4
:10006000F035F10D890B30280130F4007408F507E4
:10007000F11F3B283C282F280130F735F80D890B5C
:100080003D2871087302031D472870087202031C83
:100090004A284B2850287008F2027108F33B771465
:1000A0000130F136F00C890B51280130F502031DA7
:1000B0005A285B283C28760803195F2860286528A1
:1000C000F709F809F70A0319F80A7808F100770820
:1000D000F00008002000BF003008C4003108C5004F
:1000E0003208C6003308C7003408C8003508C90004
:1000F0003608CA003708CB0044308600003087003D
:10010000473FB800B81B8528872801308828003071
:100110002000B900BA013908C2003A08C3004208F9
:100120004304031994289528B328C409C509C609AE
:10013000C709C809C909CA09CB09C40A031DB328DC
:10014000C50A031DB328C60A031DB328C70A031D29
:10015000B328C80A031DB328C90A031DB328CA0A55
:10016000031DB328CB0A2200D31BB728B828BC280C
:10017000FD30D405FF30D5055308803A2000B80083
:1001800080303802031DC7280130220052020318B4
:10019000CA28CB28D12801302000BD000030BE0085
:1001A000D928220053082000BE0022005208200057
:1001B000BD00220051082000C1002200500820008C
:1001C000C00042084304031DE628E728EC2822006B
:1001D000541DEB28EC28F128FF302000C007FF3029
:1001E000C13D1F302000CC000030CD002300BF01F6
:1001F0006229FF302000CC07FF30CD3D0A30A0003F
:10020000A101A201A301A401A501A601A70144081F
:10021000A8004508A9004608AA004708AB004808FE
:10022000AC004908AD004A08AE004B08AF008D3164
:100230002825803120002108F4002008F3009031A7
:10024000892080317308303E2000B8004C08A03E61
:1002500086000130870038088100FF30BD07FF307D
:10026000BE3DFF30C007FF30C13D0A30A000A101F4
:10027000A201A301A401A501A601A7014408A800A9
:100280004508A9004608AA004708AB004808AC008A
:100290004908AD004A08AE004B08AF008E31FF267A
:1002A000803120002008C4002108C5002208C600B3
:1002B0002308C7002408C8002508C9002608CA006A
:1002C0002708CB0020004D08803AB8008030380263
:1002D000031D6C2901304C02031C6F2970299D29D4
:1002E00020004408450446044704480449044A04DD
:1002F0004B04031D7C297D29F9283E08803AB8006B
:1003000080303802031D862901303D0203188929F7
:100310008A29F92820004108803AB8008030380244
:10032000031D942901304002031C972998299D2917
:100330002200D4189C299D29F92820004208430452
:10034000031DA329A429A9292200541DA829A929EC
:10035000C629FF302000CC07FF30CD3D42084304C2
:10036000031DB329B429B9292B30BB000030BC00D0
:10037000BD292D30BB000030BC003B08B8004C0844
:10038000A03E8600013087003808810020004C081C
:10039000A03EB8003808A4004108A6004008A50007
:1003A0003F0893315B23803120002508B1002408E9
:1003B000B0000800200027088039A8002808B100F4
:1003C0002735A8002808B800A61FE729E829E92949
:1003D000381438080319ED29EE29FE29380A031DBF
:1003E000F229F329FB290030A7000030A6000030D5
:1003F000A5000030A400A617A701062A0030A70018
:100400000030A6000030A5000030A4002308803989
:10041000A8002808B1062335A8002808B900A21FA3
:10042000122A132A142A391439080319182A192AE6
:10043000292A390A031D1D2A1E2A262A0030A30054
:100440000030A2000030A1000030A000A217A301DC
:10045000312A0030A3000030A2000030A10000309B
:10046000A0002308220421042004031D382A392A6D
:10047000522A0030A7000030A6000030A50000304E
:10048000A4008030A6047F30A7043108A800280803
:10049000A7042708A3002608A2002508A100240815
:1004A000A0008D2B3808031D562A572A602A0030D9
:1004B000A3000030A2000030A1000030A0008D2B6E
:1004C0003808A800A9012908AB0039082802AA00A9
:1004D000031CAB032A087F3EB20000302B3DB30063
:1004E0002708B0002608AF002508AE002408AD009C
:1004F0000030A7000030A6000030A5000030A400A6
:100500000030B7000030B6000030B5000030B40055
:10051000B901C82A390803198E2A8F2AA92A01305D
:10052000AD35AE0DAF0DB00D890B902A0130A4355D
:10053000A50DA60DA70D890B972AB71FA02AA12AE2
:10054000A22A24140130B435B50DB60DB70D890BB0
:10055000A32A23083002031DB72A22082F02031DF5
:10056000B72A21082E02031DB72A20082D02031CDA
:10057000BA2ABB2AC42A37172008AD022108AE3B8D
:100580002208AF3B2308B03B0130A8002808B90778
:100590001A303902031CCD2ACE2A8A2A30082F04A9
:1005A0002E042D040319D52AD62AEF2A3414EF2A53
:1005B0000130A435A50DA60DA70D890BD92AB71FAB
:1005C000E22AE32AE42A24140130B435B50DB60D2D
:1005D000B70D890BE52AFF30B207FF30B33DA61FE8
:1005E000F22AF32AD82AB901B71FF72AF82A142BBE
:1005F000FF303405A800FF303505A900FF3036056F
:10060000AA007F303705AB002B082A0429042804F0
:1006100003190B2B0C2B0F2BB901B90A142B241C1B
:10062000122B132B142B0C2B39080319182B192BF5
:10063000412B0130A4070030A53D0030A63D00301D
:10064000A73D271C242B252B412B2408A800250877
:10065000A9002608AA002708AB000130AC00AB3780
:10066000AA0CA90CA80CAC0B2F2B2B08A7002A084E
:10067000A6002908A5002808A4000130B207003010
:10068000B33D3308803AA80080302802031D4A2B6E
:10069000FF303202031C4D2B4E2B5B2BFF30200012
:1006A000B2000030B3000030A7000030A6000030D8
:1006B000A5000030A40020003308803AA800803054
:1006C0002802031D652B013032020318682B692BA9
:1006D000752B2000B201B3010030A7000030A60046
:1006E0000030A5000030A400B10120003208A800AD
:1006F0002808B800381C7D2B7E2B802BA617842B56
:100700007F30A8002808A6053836A8002808A700CA
:100710003108A8002808A704492A08002000EC0096
:100720004E0886008701403FD000413FD10050086D
:100730008400510885001200253A031DA02BA12B2F
:10074000662D4E088600870101308107413103186C
:10075000810A2200D001D101D401D501FF30D2009D
:10076000FF30D30020004E0886008701403FD000B4
:10077000413FD10050088400510885001200643ABE
:100780000319C32BC42BD52B4E0886008701403F8D
:10079000D000413FD100500884005108850012006C
:1007A000693A031DD42BD52B102C4E0886008701E7
:1007B0000130810741310318810A4F088600870103
:1007C00001088400850102308107003FD000013F0D
:1007D000D1005008DC005108DD00890D893B8909F2
:1007E000DE00DF00E000E100E200E3005C08B000B2
:1007F0005D08B1005E08B2005F08B3006008B40095
:100800006108B5006208B6006308B7006C08803163
:100810006A20833120003108CF003008CE00892DB6
:100820004E0886008701403FF000413FF100323022
:10083000F200A030F3000230F4000030F5009431F3
:1008400069248331700871040319272C282C412C4A
:1008500020004E0886008701403FF000413FF10034
:100860003530F200A030F3000230F4000030F50023
:1008700094316924833170087104031D402C412C8C
:10088000832C20004E088600870102308107413109
:100890000318810A4F08860087010108840085013A
:1008A00004308107003FD000013FD100023FD20059
:1008B000033FD3005008DC005108DD005208DE0081
:1008C0005308DF000030DF1BFF30E000E100E200F2
:1008D000E3005C08B0005D08B1005E08B2005F088C
:1008E000B3006008B4006108B5006208B600630890
:1008F000B7006C0880316A20833120003108CF00B6
:100900003008CE00892D20004E0886008701403F28
:10091000D000413FD10050088400510885001200EA
:10092000753A031D942C952CC92C4E08860087011E
:100930000130810741310318810A4F088600870181
:1009400001088400850102308107003FE400013F77
:10095000E500E601E701E801E901EA01EB016408CD
:10096000B0006508B1006608B2006708B300680807
:10097000B4006908B5006A08B6006B08B7006C08D7
:100980008E311226833120003108CF003008CE008E
:10099000892D4E0886008701403FF000413FF1005D
:1009A0003830F200A030F3000230F4000030F500DF
:1009B00094316924833170087104031DE02CE12C0B
:1009C000302D20004E08860087010230810741311A
:1009D0000318810A4F0886008701010884008501F9
:1009E00004308107003FD000013FD100023FD20018
:1009F000033FD3005008D4005108D5005208D60058
:100A00005308D700D801D901DA01DB015B08EB00FC
:100A10005A08EA005908E9005808E8005708E700B2
:100A20005608E6005508E5005408E4006408B000E4
:100A30006508B1006608B2006708B3006808B40032
:100A40006908B5006A08B6006B08B7006C088E31FB
:100A50001226833120003108CF003008CE00892DC6
:100A600020004E0886008701403FD000413FD10062
:100A700050088400510885001200253A031D412DBD
:100A8000422D5B2D4E0886008701013081074131E0
:100A90000318810A2530F0000030F1006C08D00006
:100AA0005008F20092315F22833101302000CE00E5
:100AB0000030CF00892D4E08860087010130810764
:100AC00041310318810ACE01CF01892D4E088600DD
:100AD0008701403FD000413FD100500884005108B9
:100AE00085000008D200D3015208F0005308F1003D
:100AF0006C08D4005408F20092315F228331200048
:100B00004E08860087010130810741310318810AB0
:100B1000552D080020003D088039C2004208C7005A
:100B20003D35C2004208CD00BC1F972D982D992D50
:100B30004D144D0803199D2D9E2DAD2D4D0A031DFD
:100B4000A22DA32DAB2D0030BD000030BC00003025
:100B5000BB000030BA00BC17B52D0030BD0000301E
:100B6000BC000030BB000030BA0041088039C20030
:100B70004208C7064135C2004208CC00C01FC12D43
:100B8000C22DC32D4C144C080319C72DC82DD72DC9
:100B90004C0A031DCC2DCD2DD52D0030C1000030C9
:100BA000C0000030BF000030BE00C017DF2D003095
:100BB000C1000030C0000030BF000030BE004C0853
:100BC0000319E32DE42DE92D4D08031DE82DE92D32
:100BD000F22D0030BD000030BC000030BB00003002
:100BE000BA00E02F3A08C2004208F00040089031F5
:100BF000F320853171082000D3007008D20052081C
:100C0000C200C301C401C5014508CB004408CA00A5
:100C10004308C9004208C8005308C200C301C40108
:100C2000C5014508D1004408D0004308CF00420860
:100C3000CE003B08C2004208F0003F089031F3208C
:100C4000853171082000D3007008D2005208C2001C
:100C5000C301C401C5014208C8074308C93D44088F
:100C6000CA3D4508CB3D5308C200C301C401C501BC
:100C70004208CE074308CF3D4408D03D4508D13D4A
:100C80003C08C2004208F0003E089031F320853154
:100C900071082000D3007008D2005208C200C301BE
:100CA000C401C5014208C8074308C93D4408CA3DFC
:100CB0004508CB3D5308C200C301C401C501420829
:100CC000CE074308CF3D4408D03D4508D13D08300C
:100CD000C835C90DCA0DCB0D890B682E3B08C20063
:100CE0004208F0003E089031F32085317108200061
:100CF000D3007008D2005208C8075308C93D00301D
:100D0000CA3DCB3D3A08C2004208F0003F0890318E
:100D1000F320853171082000D3007008D2005208FA
:100D2000C8075308C93D0030CA3DCB3D0830C8351F
:100D3000C90DCA0DCB0D890B972E3A08C200420887
:100D4000F0003E089031F320853171082000D30077
:100D50007008D2005208C8075308C93D0030CA3D88
:100D6000CB3D3B08C2004208F00040089031F32020
:100D7000853171082000D3007008D2005208CE07D8
:100D80005308CF3D0030D03DD13D3C08C200420861
:100D9000F0003F089031F320853171082000D30026
:100DA0007008D2005208CE075308CF3D0030D03D26
:100DB000D13D3C08C2004208F00040089031F320C9
:100DC000853171082000D3007008D2005208C2009B
:100DD0005308C300C401C5010830C235C30DC40D9A
:100DE000C50D890BED2E4208CE074308CF3D4408C0
:100DF000D03D4508D13D4808C2004908C3004A0813
:100E0000C4004B08C5001830C536C40CC30CC20C56
:100E1000890B042F4208CE074308CF3D4408D03D3C
:100E20004508D13D0830C835C90DCA0DCB0D890B19
:100E3000132F4D084C07C200C301C30D4208823E68
:100E4000D200FF30433DD3003C2F0130CE35CF0DD3
:100E5000D00DD10D890B262FCB1F2F2F302F312FE7
:100E60004E140130C835C90DCA0DCB0D890B322F78
:100E7000FF30D207FF30D33DD01F3F2F402F252F0B
:100E8000CC01CB1F442F452F612FFF304805C200F6
:100E9000FF304905C300FF304A05C4007F304B05D1
:100EA000C50045084404430442040319582F592F30
:100EB0005C2FCC01CC0A612F4E1C5F2F602F612F5D
:100EC000592F4C080319652F662F8E2F0130CE073E
:100ED0000030CF3D0030D03D0030D13D511C712F4E
:100EE000722F8E2F4E08C2004F08C3005008C40056
:100EF0005108C5000130C600C537C40CC30CC20C74
:100F0000C60B7C2F4508D1004408D0004308CF0011
:100F10004208CE000130D2070030D33D5308803A5A
:100F2000C20080304202031D972FFF305202031C83
:100F30009A2F9B2FA52F7F302000D1008030D0002A
:100F40000030CF000030CE00D42F20005308803A6C
:100F5000C20080304202031DAF2F0130520203183D
:100F6000B22FB32FBE2F00302000D1000030D000B0
:100F70000030CF000030CE00C701D42F200052082F
:100F8000C2004208CD00FF30CE05FF30CF057F30D4
:100F9000D0050030D1054D1CCE2FCF2FD02FD0172C
:100FA0004D36C2004208D1004708C2004208D104B1
:100FB0005108BD005008BC004F08BB004E08BA00E5
:100FC00008003A30840091308500203086000130DE
:100FD000870024309F314A27873144308400013014
:100FE000850013309F3144278731A03084000130C1
:100FF000850020309F314427873120009631822E92
:101000000800F601F31F052806280D28F209F30948
:10101000F20A0319F30AF601F60AF11F1028112843
:101020001628F009F109F00A0319F10A7008710491
:1010300003191B281C284528F501F50A282801302A
:10104000F035F10D890B20280130F4007408F50704
:10105000F11F2B282C281F2871087302031D32282A
:1010600070087202031C352836283A287008F202EC
:101070007108F33B0130F136F00C890B3B2801304D
:10108000F502031D442845282C2876080319492811
:101090004A284F28F209F309F20A0319F30A7308E0
:1010A000F1007208F00008002000EB006B08023E1F
:1010B00086008701403FDF00413FE000423FE10002
:1010C000433FE2006B08063E86008701403FE30095
:1010D000413FE400423FE500433FE600620866020C
:1010E000031D7C2861086502031D7C2860086402DA
:1010F000031D7C285F08630203187F288028882846
:101100006B080A3E860087010030C03FC13FED28D2
:101110006B08023E86008701403FDF00413FE00050
:10112000423FE100433FE2006B08063E8600870134
:10113000403FE300413FE400423FE500433FE6001B
:101140005F08E3026008E43B6108E53B6208E63BB8
:101150006608F3006508F2006408F1006308F00017
:1011600000308A31DF22883173082000EA007208DB
:10117000E9007108E8007008E7004330A300F6308A
:10118000A2008030A1000030A0006A08A700690812
:10119000A6006808A5006708A4008131DA2188311B
:1011A00020002308EA002208E9002108E8002008BE
:1011B000E7006A08D7006908D6006808D500670804
:1011C000D40096310D26883120006B080A3E860037
:1011D00087015408C03F5508C13F0800F500750A53
:1011E000860087010103031DF628F7280129200046
:1011F0000D080139F200F3017208F0007308F100E4
:101200009029750A8600870102300106031D09290D
:101210000A29142920000D0C0139F200F30172088B
:10122000F0007308F1009029750A860087010430E8
:101230000106031D1C291D29282920000D0C890CDD
:101240000139F200F3017208F0007308F1009029EF
:10125000750A8600870108300106031D30293129EF
:101260003E2920000D0CF200F20C720C0139F30043
:10127000F4017308F0007408F1009029750A8600E3
:10128000870110300106031D4629472951292000F6
:101290000D0E0139F200F3017208F0007308F1003D
:1012A0009029750A8600870120300106031D5929FF
:1012B0005A29652920000D0E890C0139F200F3012D
:1012C0007208F0007308F1009029750A8600870102
:1012D00040300106031D6D296E297A2920000D0E6C
:1012E000890C890C0139F200F3017208F0007308CF
:1012F000F1009029750A8600870180300106031DE0
:10130000822983298E2920000D0D0D0D0139F2004F
:10131000F3017208F0007308F1009029F001F10167
:1013200008002000EC0010302100A0002008200060
:10133000A0006C088600870101088C3145248931A2
:1013400020006C08860087010108063E86008701A0
:101350002008C03F2108C13F2208C23F2308C33FE5
:101360006C088600870101088831542089312000EB
:101370006C088600870101080A3E86008701160076
:101380000104031DC429C529CB296C08053E86002C
:1013900087018101352A6C088600870101080A3E11
:1013A00086008701403F2100A000413FA1002008A6
:1013B000F0002108F100F201F30100308A31DF2250
:1013C000893173082000A7007208A6007108A500E3
:1013D0007008A4006C08033E86008701403F21008E
:1013E000A200413FA3002208F0002308F100F2010F
:1013F000F30100308A31DF22893173082000A30015
:101400007208A2007108A1007008A0008131DA21E1
:10141000893120002308C1002208C0002108BF0034
:101420002008BE004230BD00C830BC000030BB0008
:101430000030BA0085318A25893120003D08D70067
:101440003C08D6003B08D5003A08D40096310D265A
:101450008931200054082100A40020006C08053EBA
:10146000860087012100240881000800F80005306B
:10147000F7000F30F600F130890B3C2AF60B3C2ABE
:10148000F70B3C2A00003030F6007608F3007808AD
:101490009031D8208A310D30F600FC30890B4E2A6D
:1014A000F60B4E2A3030F6007608F30078089031BB
:1014B000D8208A310D30F600FC30890B5D2AF60BFE
:1014C0005D2A3030F6007608F30078089031D82095
:1014D0008A31C830890B6A2A2030F6007608F3007A
:1014E00078089031D8208A310630890B752A00326D
:1014F0002030F6007608F30078089031D8208A3141
:101500004230890B812A00328030F6007608F300E1
:1015100078089031D8208A31F30178089031D820AA
:101520008A314230890B922A0032C030F6007608A8
:10153000F30078089031D8208A31F301780890318F
:10154000D8208A314230890BA32A00321030F600AD
:101550007608F30078089031D8208A310D30F600F3
:10156000FC30890BB12AF60BB12AF30178089031CF
:10157000D8208A314230890BBB2A00326030F60015
:101580007608F30078089031D8208A31F301780882
:101590009031D8208A314230890BCC2A0032203059
:1015A000F6007608F30078089031D8208A310830A8
:1015B000F600CA30890BDA2AF60BDA2A0800F8009E
:1015C00078080319E42AE52AF92AF31FE82AE92A08
:1015D000F92A7009FA007109FB007209FC0073090D
:1015E000FD00FA0A0319FB0A0319FC0A0319FD0A94
:1015F000012B7308FD007208FC007108FB007008E5
:10160000FA007308720471047004031D082B092B7F
:10161000122B0030F3000030F2000030F1000030F7
:10162000F0008A2B9630F4007408F900222B013068
:10163000F4007408F9070130FD36FC0CFB0CFA0CC1
:10164000890B1C2BFE307D05031D272B282B172B08
:101650003C2B0130F4007408F9070130FA07003020
:10166000FB3D0030FC3D0030FD3D0130FD36FC0C03
:10167000FB0CFA0C890B362BFF307D05031D412B2B
:10168000422B292B4C2B0130F9020130FA35FB0D8E
:10169000FC0DFD0D890B462BFC1B4F2B502B562BA5
:1016A000023079020318552B562B432B7918592BEE
:1016B0005A2B622BFF30FA05FF30FB057F30FC050B
:1016C000FF30FD050310F90C7908F400F501F6016F
:1016D000F7011830F435F50DF60DF70D890B6A2B6F
:1016E0007408FA047508FB047608FC047708FD0406
:1016F000780803197C2B7D2B822BF31F802B812BE9
:10170000822BFD177D08F3007C08F2007B08F100B6
:101710007A08F00008002000AA0022003D082000FE
:10172000A90022003C082000A80022003B0820005D
:10173000A70022003A082000A6007D08A200220887
:10174000AB00E830F0000330F1002B08A200A30149
:101750002208F2002308F30080310B208B3170083F
:101760002000A4002408F9002A089F3157278B3154
:101770002000A5002508A900E830F0000330F100A2
:101780002B08A200A3012208F2002308F3008831ED
:1017900001208B3170082000A4002408AB006430C5
:1017A000F0000030F1002B08A200A3012208F20093
:1017B0002308F30080310B208B3170082000A40037
:1017C0002408F9002A089F3157278B312000A500F3
:1017D0002508A8006430F0000030F1002B08A200BA
:1017E000A3012208F2002308F300883101208B3185
:1017F00070082000A4002408AB000A30F00000307C
:10180000F1002B08A200A3012208F2002308F30034
:1018100080310B208B3170082000A4002408F900CF
:101820002A089F3157278B312000A5002508A700E3
:101830000A30F0000030F1002B08A200A3012208BA
:10184000F2002308F300883101208B31700820005A
:10185000A4002408AB002B08A2002208F9002A08E3
:101860009F3157278B312000A3002308A600263084
:10187000A2002208F8000430A3002308F900FA01AE
:101880002A0894310E248B3108002000B20032085F
:101890009F3173278C3100302000B0000030AF0042
:1018A0000030AE000030AD000030AB000030AA00C8
:1018B0000030A9000030A800AC01E42C2000320860
:1018C0008831EE208C31700871040319682C692C62
:1018D0005E2C200032088831EE208C3170037104B8
:1018E0000319732C742C692C0630890B752C00326B
:1018F0002000B1010130AD35AE0DAF0DB00D890B3B
:101900007B2C32089F3169278C310630890B862C5D
:101910000032200032089F3173278C3120003208BA
:101920008831EE208C3170082000A4007108A500D9
:101930000030A51BFF30A600A7002408AD0725082E
:10194000AE3D2608AF3D2708B03D0630890BA62CDA
:10195000003201302000A4002408B1071830310201
:10196000031CB32CB42C7A2CB10132089F316927A7
:101970008C310630890BBA2C0032200032089F319E
:1019800073278C310630890BC32C003201302000C4
:10199000A4002408B10731080319CF2CD02CB52C92
:1019A0002D08A8072E08A93D2F08AA3D3008AB3DF9
:1019B0000030B0000030AF000030AE000030AD00AD
:1019C0000130A4002408AC0720082C02031CE92CD9
:1019D000EA2C5E2C2008A400A501A601A701270877
:1019E000F3002608F2002508F1002408F0002B0877
:1019F000F7002A08F6002908F5002808F4009331BA
:101A0000B4238C3173082000B0007208AF00710855
:101A1000AE007008AD0000302D06A40000302E0688
:101A2000A50080302F06A60000303006A70027084A
:101A3000B0002608AF002508AE002408AD0030082D
:101A4000A3002F08A2002E08A1002D08A000080066
:101A5000F2012830860000308700473FF000F01F79
:101A6000322D332D542D2000A809A909AA09AB094C
:101A7000AC09AD09AE09AF09A80A031D522DA90A88
:101A8000031D522DAA0A031D522DAB0A031D522D10
:101A9000AC0A031D522DAD0A031D522DAE0A031DC3
:101AA000522DAF0AF201F20A203086000030870082
:101AB000473FF000F01F5D2D5E2D7D2D2000A00919
:101AC000A109A209A309A409A509A609A709A00AB1
:101AD000031D7D2DA10A031D7D2DA20A031D7D2D51
:101AE000A30A031D7D2DA40A031D7D2DA50A031D38
:101AF0007D2DA60A031D7D2DA70A200020082104A4
:101B00002204230424042504260427040319892D10
:101B10008A2DDD2DF101F10A992DA035A10DA20D1F
:101B2000A30DA40DA50DA60DA70D0130F0007008A2
:101B3000F107A71F9C2D9D2D8D2D27082F02031D1A
:101B4000BB2D26082E02031DBB2D25082D02031DCB
:101B5000BB2D24082C02031DBB2D23082B02031DC3
:101B6000BB2D22082A02031DBB2D21082902031DBB
:101B7000BB2D20082802031CBE2DBF2DCF2D200811
:101B8000A8022108A93B2208AA3B2308AB3B240852
:101B9000AC3B2508AD3B2608AE3B2708AF3BA7363C
:101BA000A60CA50CA40CA30CA20CA10CA00C01303B
:101BB000F102031DDC2DDD2D9D2D72080319E12D91
:101BC000E22D002EA809A909AA09AB09AC09AD09A3
:101BD000AE09AF09A80A031D002EA90A031D002E95
:101BE000AA0A031D002EAB0A031D002EAC0A031D1A
:101BF000002EAD0A031D002EAE0A031D002EAF0AF3
:101C000020002808A0002908A1002A08A2002B080B
:101C1000A3002C08A4002D08A5002E08A6002F085C
:101C2000A70008002000BA002200D31B182E192E8E
:101C30001D2EFD30D405FF30D5055308803AFD0038
:101C400080307D02031D262E013052020318292EFA
:101C50002A2E302E01302000B8000030B900382E76
:101C6000220053082000B900220052082000B800CA
:101C7000220051082000BC00220050082000BB00B8
:101C80003008BD003108BE003208BF003308C00074
:101C90003408C1003508C2003608C3003708C40044
:101CA0001F30C5000030C6002300BF01B82EFF3032
:101CB0002000C507FF30C63D0A30A000A101A201E7
:101CC000A301A401A501A601A7013D08A8003E08A3
:101CD000A9003F08AA004008AB004108AC00420838
:101CE000AD004308AE004408AF0095319C258E310D
:101CF00020002008303EFD004508A03E860001304F
:101D000087007D088100FF30B807FF30B93DFF3004
:101D1000BB07FF30BC3D0A30A000A101A201A30116
:101D2000A401A501A601A7013D08A8003E08A9003D
:101D30003F08AA004008AB004108AC004208AD00D3
:101D40004308AE004408AF009631F7268E312000DC
:101D50002008BD002108BE002208BF002308C000E3
:101D60002408C1002508C2002608C3002708C400B3
:101D70002000450846040319BE2EBF2EEB2E3D0859
:101D80003E043F0440044104420443044404031D50
:101D9000CA2ECB2E572E3908803AFD0080307D02A6
:101DA000031DD42E013038020318D72ED82E572EFB
:101DB00020003C08803AFD0080307D02031DE22EA9
:101DC00001303B02031CE52EE62EEB2E2200D41838
:101DD000EA2EEB2E572E20004508A03EFD007D0880
:101DE000A4003C08A6003B08A5003A0893315B23F9
:101DF0008E3120002508B1002408B0000800F2014F
:101E00002030860000308700473FF000F01F092F88
:101E10000A2F2B2F2000A009A109A209A309A409B8
:101E2000A509A609A709A00A031D292FA10A031DB8
:101E3000292FA20A031D292FA30A031D292FA40A53
:101E4000031D292FA50A031D292FA60A031D292FCB
:101E5000A70AF201F20A2830860000308700473FC7
:101E6000F000F01F342F352F582F2000A809A909A2
:101E7000AA09AB09AC09AD09AE09AF09A80A031D4F
:101E8000542FA90A031D542FAA0A031D542FAB0A6D
:101E9000031D542FAC0A031D542FAD0A031D542FEC
:101EA000AE0A031D542FAF0A0130F0007008F2068D
:101EB00073308600003087000830F00000301E00CC
:101EC000F00B5F2F200020082104220423042404A7
:101ED00025042604270403196E2F6F2FCB2FF10141
:101EE000F10A7E2FA035A10DA20DA30DA40DA50D05
:101EF000A60DA70D0130F0007008F107A71F812F74
:101F0000822F722FF335F40DF50DF60DF70DF80D48
:101F1000F90DFA0D27082F02031DA82F26082E02FF
:101F2000031DA82F25082D02031DA82F24082C020D
:101F3000031DA82F23082B02031DA82F22082A0205
:101F4000031DA82F21082902031DA82F20082802FD
:101F5000031CAB2FAC2FBD2F2008A8022108A93BE2
:101F60002208AA3B2308AB3B2408AC3B2508AD3B29
:101F70002608AE3B2708AF3B7314A736A60CA50C6A
:101F8000A40CA30CA20CA10CA00C0130F102031DA7
:101F9000CA2FCB2F822F72080319CF2FD02FEE2FED
:101FA000F309F409F509F609F709F809F909FA0935
:101FB000F30A031DEE2FF40A031DEE2FF50A031D8D
:101FC000EE2FF60A031DEE2FF70A031DEE2FF80A77
:101FD000031DEE2FF90A031DEE2FFA0A73082000E5
:101FE000A0007408A1007508A2007608A300770875
:101FF000A4007808A5007908A6007A08A7000800C0
:10200000F0007008240091001418072808280428FC
:10201000161B0B280C2808289F31CD27903108006B
:10202000F4000830F3007308F100740890312620A2
:1020300090310830F3007408033E8600870173086E
:1020400081000630890B222800320800F2009F31FF
:10205000C327903172088600870101359031002036
:1020600090317108903100209031803104209031FE
:102070000630890B392800320800FD0020002808AE
:10208000AA002A08FA002908AB002B08FB007D08EB
:102090009131AF21903120002708FB002608FA007B
:1020A0007D089131162190310800F20072089F31AD
:1020B000AF27903172089F319127903172089F317C
:1020C0009B27903172089F317D27903172089F3194
:1020D000A527903172089F31872790310800F200C0
:1020E00072089F31AF27903172089F31912790314C
:1020F00072089F318727903172089F31A527903150
:1021000072089F317D27903172089F319B27903153
:1021100008007408803AF50080307502031D92288B
:1021200001307302031895289628A2287309F50038
:102130007409F600F50A0319F60A7508F300760823
:10214000F400A2280800F4007408F2007208F300FA
:10215000AD280130F2007208F407740886000130DF
:1021600087000108031DB528B628A9287308740242
:10217000F000F101F01BF1030800220090018C0136
:102180008D018E01083021009000FF308C00FF305F
:102190008D00FF308E00FE3023008D001F308C003C
:1021A000240090018D012100951722009D01080057
:1021B000F5007308F4007408F100750890312620CA
:1021C000903173080438F4007408F10075089031F8
:1021D000262090317308F4007408F10075089031DE
:1021E000262090310800F800F401F5017008F20093
:1021F000F3017208F6007308F700781C0029012922
:1022000005297608F4077708F53D0130F635F70D16
:10221000890B06290310F80C7808031D10291129D1
:10222000FD287508F1007408F00008002000A100E6
:1022300030297A0884007B0885000008FC007C08AF
:102240002000A0000130FA070030FB3D2008FC0010
:102250007C08F300F401F40A21089331042391313E
:102260007A0884007B0885001200031D382939296B
:1022700019290800023404340034003400340034D6
:102280000034003400340034F43401343F34063474
:102290005B344F3466346D347D3407347F346F34AF
:1022A0000034403414345434FF34FF34FF34FF34EA
:1022B0002734103402340034083410342100AC00C8
:1022C000A730AB002B08AD002C08AB002B08AE00EC
:1022D000AF01B001B101B20126082000EE002100DB
:1022E00025082000ED00AD302100AB002B082000B8
:1022F000EF00AE309131E821913121002F082C07F9
:10230000AB002B0886008701810108002000A30094
:10231000A101A2019E292008F900FA017908F00024
:102320007A08F1007808FB007B08F20092315F2206
:10233000913101302000A1070030A23D2108230780
:10234000F90079088600013087000108FA007A0850
:10235000A0002008031DAD29AE298B29080020000C
:10236000A500220039082000A30022003808200020
:10237000A200220037082000A10022003608200019
:10238000A0002508023E860087017B080102031891
:10239000CA29CB29D4292508023E860087010108D5
:1023A000FF3EFC007C08FB007B08203E8600870186
:1023B00001087A078038FC007C08A4002408FC008F
:1023C0007C08F300F40125089331042391310800BF
:1023D0002100A20020006E082100A40020006D084A
:1023E0002100A3002200CE01CF010E2AA330A000BD
:1023F00020082000CE006F082100A1002108200045
:10240000CF002100220883318E23913120004E0815
:102410002200CE0720004F082200CF3D21002308D4
:102420008400240885001200031D172A182AF629A3
:1024300022004F082000EE0022004E082000ED0090
:1024400008002000AA00A8014E2AA901412A290853
:10245000A6002608FA002808A7002708FB002A087B
:102460009131AF2192313B30FA00A030FB002000C7
:102470002A0891311621923101302000A600260849
:10248000A9072A0A8600870101082902031C492A94
:102490004A2A272A0130A6002608A8072A08023E51
:1024A0008600870101082802031C572A582A252A7A
:1024B000FA01FB012A089131AF219231080072081C
:1024C0000319632A642A692A7208031D682A692A83
:1024D0006E2A7008883100209231AD2A7208033EBE
:1024E00086008701160001040319772A782A952AA5
:1024F0007208033E86008701403FF300413FF4002D
:10250000720A86008701403FF500413FF6007608D9
:10251000803AF7007408803A7702031D912A730805
:1025200075020318942A952AAD2A7008F3007208E0
:1025300086008701720A8400850100080107F40003
:1025400074088600870173088100720A860087017B
:102550000130810741310318810A0800F700720831
:10256000F3007308F50077089F3191279231F60147
:1025700077089F3187279231751CBF2AC02AC52A48
:1025800077089F319B279231C92A77089F31A52769
:10259000923177089F317D2792317536F3007308A9
:1025A000F5000130F3007308F60708307602031CCB
:1025B000DA2ADB2AB82A77089F31872792317708F1
:1025C0009F319B27923177089F317D279231770881
:1025D0009F31B9279231770895312C259231F3003C
:1025E0007308F4007408031DF62AF72AFF2A7708F7
:1025F0009F31AF27923177089F31A5279231770815
:102600009F31AF2792310800F9007908033E860018
:1026100087017308F03901047404F5007508F700A8
:102620007908033E860087017308F5000330F5350D
:10263000FF3E031D172B7535F03901047404F600B5
:102640007608F8007708F5007508F10079089031F0
:102650002620933177080438F5007508F1007908D1
:102660009031262093317708FB39F5007508F10089
:1026700079089031262093314230890B3D2B00326E
:102680007808F5007508F10079089031262093311B
:1026900078080438F5007508F10079089031262093
:1026A00093317808FB39F5007508F100790890310D
:1026B0002620933108002000AB002200541C612B1F
:1026C000622B6B2B20002B08FC007C08F8002408F0
:1026D0009131862193312000A61B6F2B702B752B17
:1026E0002608AA002508A900772BA901AA01A7019D
:1026F000A8018B2B2030F0000030F10020002B08C7
:10270000FC007C08F20092315F22933101302000FE
:10271000A7070030A83D2808803AFC002A08803A24
:102720007C02031D952B29082702031C982B992B4B
:102730007A2B220054189D2B9E2BA72B20002B08B0
:10274000FC007C08F8002408913186219331200098
:1027500024089031A3209331200029087007A40099
:102760002A08713DA50008000030FC000030FB0085
:102770000030FA000030F90073087204710470042C
:102780000319C32BC42B052CFD01FD0AD22B0130EC
:10279000F035F10DF20DF30D890BC82B0130F80067
:1027A0007808FD07F31FD52BD62BC72B0130F93541
:1027B000FA0DFB0DFC0D890BD72B73087702031D57
:1027C000EB2B72087602031DEB2B71087502031DBB
:1027D000EB2B70087402031CEE2BEF2BF82B700808
:1027E000F4027108F53B7208F63B7308F73B791465
:1027F0000130F336F20CF10CF00C890BF92B01309F
:10280000FD02031D042C052CD62B7C08F3007B084D
:10281000F2007A08F1007908F00008002000A10019
:1028200021089031552094314030FB007B08F200A4
:10283000200021089231AE229431200021089031ED
:102840006F209431200021089031552094317A086E
:102850000339C03EFB007B08F200200021089231C2
:10286000AE2294312000A001482C20087807FB00FC
:102870007B08860087010108FC007C08F200210823
:102880009231AE2294310130FB007B082000A0077A
:1028900079082002031C4D2C4E2C352C2108903138
:1028A0006F2094312000210890315520943122006E
:1028B00056080F39803EFB007B08F20020002108FB
:1028C0009231AE2294312000210890316F20943152
:1028D00008007108F8007008F7007308FA00720821
:1028E000F9000130F4020030F53B740A031D7C2C22
:1028F000750A031D7C2C7D2C8C2CF001F101C42C5D
:102900000130F7070030F83D0130F9070030FA3D9B
:102910000130F4020030F53B770884007808850028
:1029200012000319942C952CB42C790884007A0891
:102930008500120003199D2C9E2CB42C740875047C
:102940000319A32CA42CB42C790884007A088500E0
:102950000008F600770884007808850000087606ED
:102960000319B32CB42C802C7708840078088500D8
:102970000008F600790884007A08850000087602CD
:10298000F000F101031CF10308002100D5001A300A
:10299000A500A030A60055088600870101080A3E60
:1029A00086008701403FA700413FA8005508033E2D
:1029B00086008701403FA900413FAA00B530913110
:1029C0005E2194312C302100A500A030A6005508CE
:1029D000053E860087010108B300B4013308A70053
:1029E0003408A800C53091315E2194312100550A88
:1029F000860087010108923121229431B5302000F0
:102A0000A6000030A700A801A9012100550A8600F0
:102A10008701010890313D209431C5302000A60087
:102A20000030A700A801A901A90A2100550A8600C3
:102A30008701010890313D2094312100550886001E
:102A40008701453FFD005508023E860087010108C9
:102A50008B318B2394310800F100710A86008701C5
:102A60000103031D342D352D392D20000D080139AA
:102A70009B2D710A8600870102300106031D412D3E
:102A8000422D462D20000D0C01399B2D710A860028
:102A9000870104300106031D4E2D4F2D542D2000BB
:102AA0000D0C890C01399B2D710A860087010830B5
:102AB0000106031D5C2D5D2D642D20000D0CF00022
:102AC000F00C700C01399B2D710A860087011030C3
:102AD0000106031D6C2D6D2D712D20000D0E013989
:102AE0009B2D710A8600870120300106031D792D78
:102AF0007A2D7F2D20000D0E890C01399B2D710A36
:102B00008600870140300106031D872D882D8E2DFC
:102B100020000D0E890C890C01399B2D710A86004D
:102B2000870180300106031D962D972D9B2D2000D7
:102B30000D0D0D0D0139080020002008210422048C
:102B4000230424042504260427040319A82DA92DF1
:102B5000FC2DF101F10AB82DA035A10DA20DA30D98
:102B6000A40DA50DA60DA70D0130F0007008F1070A
:102B7000A71FBB2DBC2DAC2D27082F02031DDA2D5E
:102B800026082E02031DDA2D25082D02031DDA2D3D
:102B900024082C02031DDA2D23082B02031DDA2D35
:102BA00022082A02031DDA2D21082902031DDA2D2D
:102BB00020082802031CDD2DDE2DEE2D2008A802A2
:102BC0002108A93B2208AA3B2308AB3B2408AC3BC5
:102BD0002508AD3B2608AE3B2708AF3BA736A60C21
:102BE000A50CA40CA30CA20CA10CA00C0130F102AA
:102BF000031DFB2DFC2DBC2D2808A0002908A100D9
:102C00002A08A2002B08A3002C08A4002D08A50068
:102C10002E08A6002F08A700080003102000560D5C
:102C2000570DD8005808DE005E08031D182E192E17
:102C3000222E0030D7000030D6000030D500003002
:102C4000D400812E5408D8005508D9005608DA005F
:102C50005708DB001F30DB36DA0CD90CD80C890B97
:102C60002B2E5808DC005C08DD00D617FF30D40599
:102C7000FF30D505FF30D6050030D7059630DE028F
:102C8000DE1F432E442E5C2E5E08803A973E0318CA
:102C90004A2E4B2E4C2E192E0130D736D60CD50C81
:102CA000D40C890B4D2E0130D8005808DE07031DC7
:102CB0005A2E5B2E4C2E712E20305E02031C612E8C
:102CC000622E6C2E192E0130D435D50DD60DD70DB0
:102CD000890B642E0130DE025E08031D702E712EFA
:102CE000632E5D080319752E762E812ED409D50921
:102CF000D609D709D40A0319D50A0319D60A031924
:102D0000D70A08009F315F27963123008C018D017F
:102D1000043021008D0022008C018D01133024002D
:102D200092002830950096019401203086000130F1
:102D30008700DE308400003085000C302100D60092
:102D400016001A00D60BA02E220041082100DB003D
:102D5000220040082100DA0022003F082100D900AB
:102D600022003E082100D800220043082100DD0097
:102D7000220042082100DC00443086000130870038
:102D8000EA308400003085000630D60016001A00B4
:102D9000D60BC62EDE30D6005608EA00D830D60054
:102DA0005608EB00DC30D6005608EC00F430ED009D
:102DB0000130EE00EF01EA3097317B279631EA309F
:102DC000893191219631EA309431C524963106300B
:102DD0002100D7001330D600AD30890BED2ED60B75
:102DE000ED2ED70BED2E0032DF2E80310228713010
:102DF0008600003087000830F00000301E00F00B25
:102E0000FE2E20002008210422042304240425048B
:102E10002604270403190D2F0E2F6A2FF901F90A32
:102E20001D2FA035A10DA20DA30DA40DA50DA60D5E
:102E3000A70D0130F0007008F907A71F202F212FE0
:102E4000112FF135F20DF30DF40DF50DF60DF70D13
:102E5000F80D27082F02031D472F26082E02031DF9
:102E6000472F25082D02031D472F24082C02031D80
:102E7000472F23082B02031D472F22082A02031D78
:102E8000472F21082902031D472F20082802031C71
:102E90004A2F4B2F5C2F2008A8022108A93B2208AB
:102EA000AA3B2308AB3B2408AC3B2508AD3B2608D6
:102EB000AE3B2708AF3B7114A736A60CA50CA40C9B
:102EC000A30CA20CA10CA00C0130F902031D692F68
:102ED0006A2F212F7108A0007208A1007308A200B8
:102EE0007408A3007508A4007608A5007708A6005A
:102EF0007808A70008002100C400440A8600870162
:102F000001088A31362297312100440A8600870160
:102F100001089031102097310F302000A600A0301A
:102F2000A700A801A9012100440A86008701010821
:102F300090313D20973100302000A600A030A7003E
:102F4000A801A901A90A2100440A860087010108F5
:102F500090313D20973121004408023E86008701D0
:102F600001089F31D927973132302100B30033084F
:102F70002000A000210044088600870101088C3150
:102F80004524973121004408860087010108023E4C
:102F90008600870120002008C03F2108C13F220889
:102FA000C23F2308C33F24302100A500A030A60063
:102FB0004408860087010108063E86008701403FDD
:102FC000A700413FA800423FA900433FAA00B430F8
:102FD00091315E2197312100440A86008701010862
:102FE000923121229731B430FA000030FB002100E9
:102FF000440A8600870101089131162197310800A3
:103E80001630210097000800640080010131890B81
:103E9000452F0034FE0012001E00FE0B4B2F003495
:103EA00070302100990098012200960108007908DD
:103EB0000F392C3E86000130870001080800903140
:103EC000BD209F319F3150279F319F3140279F3127
:103ED0000800F1007108860087010108F0007008F1
:103EE00022008D040800F100710886008701010995
:103EF000F000700822008D050800F10071088600AE
:103F000087010108F000700822008C040800F1000D
:103F10007108860087010109F000700822008C05F5
:103F20000800F1007108860087010109F00070089F
:103F300021008C050800F100710A86008701010844
:103F4000F000700822008C040800F100710A86005D
:103F500087010109F000700822008C050800F100BB
:103F6000710A860087010109F000700821008C05A4
:103F70000800F100710A860087010108F00070084E
:103F800021008C0408009F31CD279F312400161496
:103F90001618CB2FCC2FC82F0800240016081F3965
:103FA000031DD32FD42FCD2F1419D72FD82FCD2FBA
:103FB00008002000AD000F30AC002C08F000F1012B
:103FC000F10A2D089F31EC279F31FD0120002D08BB
:103FD0008B318B239F3108007103031DF02FF12FCC
:103FE000F92F700807390838F20072082200D6004D
:103FF000FF2F70080739F20072082200D60008006F
:104000004C346F34613464342034633465346C343C
:104010006C34203455346E3469347434003449348B
:104020006E3469347434693461346C3469347A348C
:104030006534003425346434673420342F3420341C
:10404000253464346734003425346C3475342034BA
:10405000763461346C3400342534643420342534AF
:10406000253400346C34643400346C3469340034E6
:0A4070006C34753400342034003441
:020000040001F9
:04000E00E43FFF1EAE
:00000001FF
