:08000000803102288731CD2F69
:10000C000800720803190B280C2811287208031D0C
:10001C0010281128162870088031062080315528A8
:10002C007208033E860087011600010403191F287D
:10003C0020283D287208033E86008701403FF300CC
:10004C00413FF400720A86008701403FF500413FB2
:10005C00F6007608803AF7007408803A7702031DA0
:10006C0039287308750203183C283D285528700858
:10007C00F300720886008701720A8400850100086B
:10008C000107F40074088600870173088100720A66
:10009C00860087010130810741310318810A08006D
:1000AC002000BF003008C4003108C5003208C6006B
:1000BC003308C7003408C8003508C9003608CA0020
:1000CC003708CB004430860000308700473FB8002B
:1000DC00B81B712873280130742800302000B90037
:1000EC00BA013908C2003A08C30042084304031994
:1000FC00802881289F28C409C509C609C709C809D1
:10010C00C909CA09CB09C40A031D9F28C50A031DC6
:10011C009F28C60A031D9F28C70A031D9F28C80ACB
:10012C00031D9F28C90A031D9F28CA0A031D9F2867
:10013C00CB0A2100E11BA328A428A828FD30E20546
:10014C00FF30E3056108803A2000B80080303802A7
:10015C00031DB3280130210060020318B628B7280C
:10016C00BD2801302000BD000030BE00C528210094
:10017C0061082000BE00210060082000BD002100A5
:10018C005F082000C10021005E082000C00042086A
:10019C004304031DD228D328D8282100621DD72858
:1001AC00D828DD28FF302000C007FF30C13D1F30AC
:1001BC002000CC000030CD002300BF014E29FF30C1
:1001CC002000CC07FF30CD3D0A30A000A101A201D8
:1001DC00A301A401A501A601A7014408A800450894
:1001EC00A9004608AA004708AB004808AC0049081B
:1001FC00AD004A08AE004B08AF008D312825803188
:10020C0020002108F4002008F3009F31732780316F
:10021C007308303E2000B8004C08A03E8600013028
:10022C00870038088100FF30BD07FF30BE3DFF302E
:10023C00C007FF30C13D0A30A000A101A201A301FB
:10024C00A401A501A601A7014408A8004508A9001E
:10025C004608AA004708AB004808AC004908AD00A6
:10026C004A08AE004B08AF008E31FF2680312000CB
:10027C002008C4002108C5002208C6002308C700B6
:10028C002408C8002508C9002608CA002708CB0086
:10029C0020004D08803AB80080303802031D5829E0
:1002AC0001304C02031C5B295C298929200044087D
:1002BC00450446044704480449044A044B04031DFE
:1002CC0068296929E5283E08803AB8008030380250
:1002DC00031D722901303D02031875297629E52882
:1002EC0020004108803AB80080303802031D802974
:1002FC0001304002031C8329842989292100E2183A
:10030C0088298929E528200042084304031D8F29E8
:10031C00902995292100621D94299529B229FF3035
:10032C002000CC07FF30CD3D42084304031D9F291C
:10033C00A029A5292B30BB000030BC00A9292D30E9
:10034C00BB000030BC003B08B8004C08A03E860047
:10035C00013087003808810020004C08A03EB8000E
:10036C003808A4004108A6004008A5003F089231B7
:10037C008322803120002508B1002408B000080039
:10038C00200027088039A8002808B1002735A800CC
:10039C002808B800A61FD329D429D5293814380821
:1003AC000319D929DA29EA29380A031DDE29DF299C
:1003BC00E7290030A7000030A6000030A50000306F
:1003CC00A400A617A701F2290030A7000030A60050
:1003DC000030A5000030A40023088039A8002808AC
:1003EC00B1062335A8002808B900A21FFE29FF2951
:1003FC00002A391439080319042A052A152A390A3E
:10040C00031D092A0A2A122A0030A3000030A20078
:10041C000030A1000030A000A217A3011D2A00305B
:10042C00A3000030A2000030A1000030A00023087F
:10043C00220421042004031D242A252A3E2A0030EC
:10044C00A7000030A6000030A5000030A4008030CA
:10045C00A6047F30A7043108A8002808A7042708A1
:10046C00A3002608A2002508A1002408A000792BCF
:10047C003808031D422A432A4C2A0030A3000030BE
:10048C00A2000030A1000030A000792B3808A80091
:10049C00A9012908AB0039082802AA00031CAB03E8
:1004AC002A087F3EB20000302B3DB3002708B00075
:1004BC002608AF002508AE002408AD000030A700C8
:1004CC000030A6000030A5000030A4000030B700BA
:1004DC000030B6000030B5000030B400B901B42AC9
:1004EC00390803197A2A7B2A952A0130AD35AE0DCD
:1004FC00AF0DB00D890B7C2A0130A435A50DA60DCE
:10050C00A70D890B832AB71F8C2A8D2A8E2A2414B7
:10051C000130B435B50DB60DB70D890B8F2A2308F4
:10052C003002031DA32A22082F02031DA32A21082F
:10053C002E02031DA32A20082D02031CA62AA72A7B
:10054C00B02A37172008AD022108AE3B2208AF3B7A
:10055C002308B03B0130A8002808B9071A3039022B
:10056C00031CB92ABA2A762A30082F042E042D042B
:10057C000319C12AC22ADB2A3414DB2A0130A43520
:10058C00A50DA60DA70D890BC52AB71FCE2ACF2AFC
:10059C00D02A24140130B435B50DB60DB70D890B26
:1005AC00D12AFF30B207FF30B33DA61FDE2ADF2A67
:1005BC00C42AB901B71FE32AE42A002BFF30340503
:1005CC00A800FF303505A900FF303605AA007F30A2
:1005DC003705AB002B082A04290428040319F72A31
:1005EC00F82AFB2AB901B90A002B241CFE2AFF2A7F
:1005FC00002BF82A39080319042B052B2D2B01305D
:10060C00A4070030A53D0030A63D0030A73D271CB7
:10061C00102B112B2D2B2408A8002508A900260827
:10062C00AA002708AB000130AC00AB37AA0CA90C10
:10063C00A80CAC0B1B2B2B08A7002A08A60029081A
:10064C00A5002808A4000130B2070030B33D3308E0
:10065C00803AA80080302802031D362BFF3032026E
:10066C00031C392B3A2B472BFF302000B2000030F3
:10067C00B3000030A7000030A6000030A500003009
:10068C00A40020003308803AA80080302802031D03
:10069C00512B013032020318542B552B612B2000A7
:1006AC00B201B3010030A7000030A6000030A50055
:1006BC000030A400B10120003208A8002808B800BE
:1006CC00381C692B6A2B6C2BA617702B7F30A8005B
:1006DC002808A6053836A8002808A7003108A80065
:1006EC002808A704352A08002000EC004E088600D4
:1006FC008701403FD000413FD10050088400510891
:10070C0085001200253A031D8C2B8D2B522D4E0883
:10071C00860087010130810741310318810A2100CD
:10072C00DE01DF01E201E301FF30E000FF30E10018
:10073C0020004E0886008701403FD000413FD10089
:10074C0050088400510885001200643A0319AF2B3D
:10075C00B02BC12B4E0886008701403FD000413F93
:10076C00D10050088400510885001200693A031D1D
:10077C00C02BC12BFC2B4E08860087010130810752
:10078C0041310318810A4F08860087010108840053
:10079C00850102308107003FD000013FD100500895
:1007AC00DC005108DD00890D893B8909DE00DF0082
:1007BC00E000E100E200E3005C08B0005D08B1007D
:1007CC005E08B2005F08B3006008B4006108B500B1
:1007DC006208B6006308B7006C088031562083317C
:1007EC0020003108CF003008CE00752D4E08860051
:1007FC008701403FF000413FF1004430F200A0304F
:10080C00F3000230F4000030F50093319123833172
:10081C00700871040319132C142C2D2C20004E0875
:10082C0086008701403FF000413FF1004730F20065
:10083C00A030F3000230F4000030F5009331912326
:10084C00833170087104031D2C2C2D2C6F2C20006F
:10085C004E08860087010230810741310318810A56
:10086C004F08860087010108840085010430810748
:10087C00003FD000013FD100023FD200033FD30024
:10088C005008DC005108DD005208DE005308DF0080
:10089C000030DF1BFF30E000E100E200E3005C0809
:1008AC00B0005D08B1005E08B2005F08B3006008DC
:1008BC00B4006108B5006208B6006308B7006C08A4
:1008CC0080315620833120003108CF003008CE0013
:1008DC00752D20004E0886008701403FD000413F17
:1008EC00D10050088400510885001200753A031D90
:1008FC00802C812CB52C4E08860087010130810795
:10090C0041310318810A4F088600870101088400D1
:10091C00850102308107003FE400013FE500E6015C
:10092C00E701E801E901EA01EB016408B0006508A0
:10093C00B1006608B2006708B3006808B400690823
:10094C00B5006A08B6006B08B7006C088E31122629
:10095C00833120003108CF003008CE00752D4E08B1
:10096C0086008701403FF000413FF1004A30F20021
:10097C00A030F3000230F4000030F50093319123E5
:10098C00833170087104031DCC2CCD2C1C2D200040
:10099C004E08860087010230810741310318810A15
:1009AC004F08860087010108840085010430810707
:1009BC00003FD000013FD100023FD200033FD300E3
:1009CC005008D4005108D5005208D6005308D7005F
:1009DC00D801D901DA01DB015B08EB005A08EA0007
:1009EC005908E9005808E8005708E7005608E600DF
:1009FC005508E5005408E4006408B0006508B1002F
:100A0C006608B2006708B3006808B4006908B5004E
:100A1C006A08B6006B08B7006C088E311226833159
:100A2C0020003108CF003008CE00752D20004E0874
:100A3C0086008701403FD000413FD1005008840020
:100A4C00510885001200253A031D2D2D2E2D472D02
:100A5C004E08860087010130810741310318810A55
:100A6C002530F0000030F1006C08D0005008F20086
:100A7C0080310720833101302000CE000030CF00C0
:100A8C00752D4E088600870101308107413103180E
:100A9C00810ACE01CF01752D4E0886008701403F9B
:100AAC00D000413FD1005008840051088500000857
:100ABC00D200D3015208F0005308F1006C08D400A6
:100ACC005408F20080310720833120004E08860044
:100ADC0087010130810741310318810A412D08003B
:100AEC0020003D088039C2004208C7003D35C200D5
:100AFC004208CD00BC1F832D842D852D4D144D082F
:100B0C000319892D8A2D992D4D0A031D8E2D8F2D9C
:100B1C00972D0030BD000030BC000030BB00003011
:100B2C00BA00BC17A12D0030BD000030BC00003055
:100B3C00BB000030BA0041088039C2004208C70629
:100B4C004135C2004208CC00C01FAD2DAE2DAF2DDB
:100B5C004C144C080319B32DB42DC32D4C0A031D92
:100B6C00B82DB92DC12D0030C1000030C0000030AF
:100B7C00BF000030BE00C017CB2D0030C1000030CC
:100B8C00C0000030BF000030BE004C080319CF2D50
:100B9C00D02DD52D4D08031DD42DD52DDE2D003097
:100BAC00BD000030BC000030BB000030BA00CC2FC0
:100BBC003A08C2004208F00040089F31DD27853119
:100BCC0071082000D3007008D2005208C200C30183
:100BDC00C401C5014508CB004408CA004308C9003C
:100BEC004208C8005308C200C301C401C50145082E
:100BFC00D1004408D0004308CF004208CE003B0887
:100C0C00C2004208F0003F089F31DD278531710892
:100C1C002000D3007008D2005208C200C301C401E6
:100C2C00C5014208C8074308C93D4408CA3D4508E8
:100C3C00CB3D5308C200C301C401C5014208CE0715
:100C4C004308CF3D4408D03D4508D13D3C08C20087
:100C5C004208F0003E089F31DD27853171082000E5
:100C6C00D3007008D2005208C200C301C401C501F0
:100C7C004208C8074308C93D4408CA3D4508CB3D56
:100C8C005308C200C301C401C5014208CE07430882
:100C9C00CF3D4408D03D4508D13D0830C835C90D7D
:100CAC00CA0DCB0D890B542E3B08C2004208F00034
:100CBC003E089F31DD27853171082000D300700874
:100CCC00D2005208C8075308C93D0030CA3DCB3D7D
:100CDC003A08C2004208F0003F089F31DD278531F9
:100CEC0071082000D3007008D2005208C8075308BE
:100CFC00C93D0030CA3DCB3D0830C835C90DCA0DC1
:100D0C00CB0D890B832E3A08C2004208F0003E0836
:100D1C009F31DD27853171082000D3007008D20087
:100D2C005208C8075308C93D0030CA3DCB3D3B08AB
:100D3C00C2004208F00040089F31DD278531710860
:100D4C002000D3007008D2005208CE075308CF3DC4
:100D5C000030D03DD13D3C08C2004208F0003F08B5
:100D6C009F31DD27853171082000D3007008D20037
:100D7C005208CE075308CF3D0030D03DD13D3C0842
:100D8C00C2004208F00040089F31DD278531710810
:100D9C002000D3007008D2005208C2005308C300D0
:100DAC00C401C5010830C235C30DC40DC50D890B76
:100DBC00D92E4208CE074308CF3D4408D03D450804
:100DCC00D13D4808C2004908C3004A08C4004B087A
:100DDC00C5001830C536C40CC30CC20C890BF02EE0
:100DEC004208CE074308CF3D4408D03D4508D13DCD
:100DFC000830C835C90DCA0DCB0D890BFF2E4D0817
:100E0C004C07C200C301C30D4208823ED200FF3022
:100E1C00433DD300282F0130CE35CF0DD00DD10D51
:100E2C00890B122FCB1F1B2F1C2F1D2F4E14013083
:100E3C00C835C90DCA0DCB0D890B1E2FFF30D2073B
:100E4C00FF30D33DD01F2B2F2C2F112FCC01CB1FBC
:100E5C00302F312F4D2FFF304805C200FF30490590
:100E6C00C300FF304A05C4007F304B05C500450860
:100E7C004404430442040319442F452F482FCC014A
:100E8C00CC0A4D2F4E1C4B2F4C2F4D2F452F4C0861
:100E9C000319512F522F7A2F0130CE070030CF3D3E
:100EAC000030D03D0030D13D511C5D2F5E2F7A2F8C
:100EBC004E08C2004F08C3005008C4005108C500BA
:100ECC000130C600C537C40CC30CC20CC60B682F4E
:100EDC004508D1004408D0004308CF004208CE009A
:100EEC000130D2070030D33D5308803AC200803025
:100EFC004202031D832FFF305202031C862F872FC3
:100F0C00912F7F302000D1008030D0000030CF00F6
:100F1C000030CE00C02F20005308803AC200803031
:100F2C004202031D9B2F0130520203189E2F9F2F4C
:100F3C00AA2F00302000D1000030D0000030CF00AC
:100F4C000030CE00C701C02F20005208C20042085A
:100F5C00CD00FF30CE05FF30CF057F30D0050030FF
:100F6C00D1054D1CBA2FBB2FBC2FD0174D36C2004C
:100F7C004208D1004708C2004208D1045108BD0004
:100F8C005008BC004F08BB004E08BA0008000030E7
:100F9C00840088308500E5308600003087000830FA
:100FAC009E3122268731033084009030850020301A
:100FBC008600013087001C309E3122268731D830C4
:100FCC008400003085000D309E311C268731563050
:100FDC0084000130850008309E311C268731A030FA
:100FEC0084000130850020309E311C268731200082
:100FFC008A319D2A0034403414345434FF34FF3485
:10100C00FF34FF3471308600003087000830F00068
:10101C0000301E00F00B0F282000200821042204B1
:10102C002304240425042604270403191E281F283E
:10103C007B28F901F90A2E28A035A10DA20DA30DCC
:10104C00A40DA50DA60DA70D0130F0007008F90731
:10105C00A71F312832282228F135F20DF30DF40D9B
:10106C00F50DF60DF70DF80D27082F02031D582866
:10107C0026082E02031D582825082D02031D58286A
:10108C0024082C02031D582823082B02031D582862
:10109C0022082A02031D582821082902031D58285A
:1010AC0020082802031C5B285C286D282008A80255
:1010BC002108A93B2208AA3B2308AB3B2408AC3BE4
:1010CC002508AD3B2608AE3B2708AF3B7114A7366D
:1010DC00A60CA50CA40CA30CA20CA10CA00C01300A
:1010EC00F902031D7A287B2832287108A0007208A7
:1010FC00A1007308A2007408A3007508A400760868
:10110C00A5007708A6007808A7000800F500750A66
:10111C008600013087000103031D95289628A0281E
:10112C0020000D080139F200F3017208F000730879
:10113C00F1003629750A860001308700023001065D
:10114C00031DA928AA28B42820000D0C0139F2008F
:10115C00F3017208F0007308F1003629750A860055
:10116C000130870004300106031DBD28BE28C928A4
:10117C0020000D0C890C0139F200F3017208F0000B
:10118C007308F1003629750A860001308700083093
:10119C000106031DD228D328E02820000D0CF200F4
:1011AC00F20C720C0139F300F4017308F0007408AE
:1011BC00F1003629750A86000130870010300106CF
:1011CC00031DE928EA28F42820000D0E0139F2004D
:1011DC00F3017208F0007308F1003629750A8600D5
:1011EC000130870020300106031DFD28FE28092947
:1011FC0020000D0E890C0139F200F3017208F00089
:10120C007308F1003629750A8600013087004030DA
:10121C000106031D122913291F2920000D0E890C0C
:10122C00890C0139F200F3017208F0007308F10027
:10123C003629750A86000130870080300106031DAF
:10124C0028292929342920000D0D0D0D0139F20012
:10125C00F3017208F0007308F1003629F001F10176
:10126C000800F800780803193C293D295129F31F7F
:10127C004029412951297009FA007109FB007209B2
:10128C00FC007309FD00FA0A0319FB0A0319FC0A96
:10129C000319FD0A59297308FD007208FC00710836
:1012AC00FB007008FA007308720471047004031DCB
:1012BC00602961296A290030F3000030F200003007
:1012CC00F1000030F000E2299630F4007408F900C7
:1012DC007A290130F4007408F9070130FD36FC0C52
:1012EC00FB0CFA0C890B7429FE307D05031D7F293C
:1012FC0080296F2994290130F4007408F907013012
:10130C00FA070030FB3D0030FC3D0030FD3D013064
:10131C00FD36FC0CFB0CFA0C890B8E29FF307D057D
:10132C00031D99299A298129A4290130F902013038
:10133C00FA35FB0DFC0DFD0D890B9E29FC1BA72915
:10134C00A829AE29023079020318AD29AE299B29B0
:10135C007918B129B229BA29FF30FA05FF30FB05FB
:10136C007F30FC05FF30FD050310F90C7908F40003
:10137C00F501F601F7011830F435F50DF60DF70D02
:10138C00890BC2297408FA047508FB047608FC045E
:10139C007708FD0478080319D429D529DA29F31F15
:1013AC00D829D929DA29FD177D08F3007C08F20029
:1013BC007B08F1007A08F00008002000AA00210048
:1013CC006C082000A90021006B082000A800210057
:1013DC006A082000A700210069082000A6007D08EB
:1013EC00A2002208AB00E830F0000330F1002B081B
:1013FC00A200A3012208F2002308F3009331ED238D
:10140C00893170082000A4002408F9002A089E31B4
:10141C00362689312000A5002508A600E830F0000A
:10142C000330F1002B08A200A3012208F2002308CC
:10143C00F30091318121893170082000A400240827
:10144C00AB006430F0000030F1002B08A200A301C7
:10145C002208F2002308F3009331ED238931700840
:10146C002000A4002408F9002A089E313626893170
:10147C002000A5002508A7006430F0000030F10022
:10148C002B08A200A3012208F2002308F3009131DB
:10149C008121893170082000A4002408AB000A3097
:1014AC00F0000030F1002B08A200A3012208F2008A
:1014BC002308F3009331ED23893170082000A40038
:1014CC002408F9002A089E31362689312000A5000F
:1014DC002508A8000A30F0000030F1002B08A2000B
:1014EC00A3012208F2002308F300913181218931F4
:1014FC0070082000A4002408AB002B08A2002208CE
:10150C00F9002A089E31362689312000A3002308D1
:10151C00A9002630A2002208F8000430A3002308FA
:10152C00F900FA012A0893313623893108009E31DB
:10153C003E268A3123008C018D01043021008D0060
:10154C00F8308E0022008C018D018E0113302400A6
:10155C0092002830950096019401203086000130CD
:10156C00870042308400013085000C302100D60009
:10157C0016001A00D60BBE2A22003908BF00380804
:10158C00BE003708BD003608BC003B08C1003A0855
:10159C00C00056308600013087004E308400013088
:1015AC00850008302100D60016001A00D60BDA2A66
:1015BC004230D60056082200CE003C302100D60026
:1015CC0056082200CF0040302100D60056082200D9
:1015DC00D000F430D1000130D2001830D3000030EC
:1015EC00D400D5014E3096311B268A314E308B31CA
:1015FC0064238A314E309431BD248A3120008E1BF5
:10160C00082B092B232BF4302100B3000130B4003C
:10161C001830B5000030B6004E30913105218A31BA
:10162C000B302100D7002630D6005D30890B1C2BE7
:10163C00D60B1C2BD70B1C2B003220000E1B272B80
:10164C00282B422B63302100B3000130B40014303E
:10165C00B5000030B6004E30913105218A310B3087
:10166C002100D7002630D6005D30890B3B2BD60BE2
:10167C003B2BD70B3B2B003220008E1A462B472BD3
:10168C00FC2A5E302100B3000130B4000F30B500ED
:10169C000030B6004E30913105218A310B302100DB
:1016AC00D7002630D6005D30890B5A2BD60B5A2B1F
:1016BC00D70B5A2B0032FC2A803102282100A000C3
:1016CC0010302000EC006C08A000210020088600DF
:1016DC000130870001088C3145248B312100200812
:1016EC008600013087000108063E86000130870025
:1016FC0020002008C03F2108C13F2208C23F230818
:10170C00C33F210020088600013087000108963174
:10171C00B7268B3121002008860001308700010894
:10172C000A3E86000130870016000104031D9F2B22
:10173C00A02BA72B2008073E8600013087008101D3
:10174C00442C2008053E860001308700403F2000D5
:10175C00EC00413FED00210020088600013087009D
:10176C0001080A3E860001308700403F2000EE0051
:10177C00413FEF006D086F02031DC62B6C086E0213
:10178C000318C92BCA2BD22B21002008073E860038
:10179C00013087008101442C21002008053E860081
:1017AC0001308700200884000130850000080A3EC3
:1017BC00840001308500403F0002F0000131413FC0
:1017CC00003BF100F201F3010030893137218B31FC
:1017DC0073082000A7007208A6007108A500700805
:1017EC00A40021002008033E860001308700403F02
:1017FC002000EC00413FED006C08F0006D08F1009A
:10180C00F201F3010030893137218B31730820004C
:10181C00A3007208A2007108A1007008A000813119
:10182C00C6218B3120002308C1002208C0002108EA
:10183C00BF002008BE004230BD00C830BC000030E4
:10184C00BB000030BA00853176258B3120003D0875
:10185C00D7003C08D6003B08D5003A08D400953197
:10186C002E258B3120005408EE0021002008073E65
:10187C0086000130870020006E08810008002000DF
:10188C00B20032089E315D268C3100302000B00051
:10189C000030AF000030AE000030AD000030AB00C7
:1018AC000030AA000030A9000030A800AC01E42CE4
:1018BC002000320888318C208C3170087104031997
:1018CC00682C692C5E2C2000320888318C208C31DD
:1018DC00700371040319732C742C692C0630890B5A
:1018EC00752C00322000B1010130AD35AE0DAF0DBD
:1018FC00B00D890B7B2C32089E3152268C31063070
:10190C00890B862C0032200032089E315D268C31EA
:10191C002000320888318C208C3170082000A40003
:10192C007108A5000030A51BFF30A600A7002408F5
:10193C00AD072508AE3D2608AF3D2708B03D063063
:10194C00890BA62C003201302000A4002408B1071A
:10195C0018303102031CB32CB42C7A2CB101320890
:10196C009E3152268C310630890BBA2C0032200065
:10197C0032089E315D268C310630890BC32C003227
:10198C0001302000A4002408B10731080319CF2C22
:10199C00D02CB52C2D08A8072E08A93D2F08AA3D40
:1019AC003008AB3D0030B0000030AF000030AE006E
:1019BC000030AD000130A4002408AC0720082C0234
:1019CC00031CE92CEA2C5E2C2008A400A501A6011E
:1019DC00A7012708F3002608F2002508F1002408C7
:1019EC00F0002B08F7002A08F6002908F500280853
:1019FC00F4009231DC228C3173082000B0007208A4
:101A0C00AF007108AE007008AD0000302D06A400C8
:101A1C0000302E06A50080302F06A60000303006C0
:101A2C00A7002708B0002608AF002508AE00240840
:101A3C00AD003008A3002F08A2002E08A1002D082D
:101A4C00A0000800F2012830860000308700473FD4
:101A5C00F000F01F322D332D542D2000A809A909B8
:101A6C00AA09AB09AC09AD09AE09AF09A80A031D57
:101A7C00522DA90A031D522DAA0A031D522DAB0A81
:101A8C00031D522DAC0A031D522DAD0A031D522D00
:101A9C00AE0A031D522DAF0AF201F20A2030860065
:101AAC0000308700473FF000F01F5D2D5E2D7D2D2F
:101ABC002000A009A109A209A309A409A509A60946
:101ACC00A709A00A031D7D2DA10A031D7D2DA20AC5
:101ADC00031D7D2DA30A031D7D2DA40A031D7D2D41
:101AEC00A50A031D7D2DA60A031D7D2DA70A200026
:101AFC00200821042204230424042504260427049A
:101B0C000319892D8A2DDD2DF101F10A992DA035AE
:101B1C00A10DA20DA30DA40DA50DA60DA70D0130B1
:101B2C00F0007008F107A71F9C2D9D2D8D2D270807
:101B3C002F02031DBB2D26082E02031DBB2D2508CD
:101B4C002D02031DBB2D24082C02031DBB2D2308C5
:101B5C002B02031DBB2D22082A02031DBB2D2108BD
:101B6C002902031DBB2D20082802031CBE2DBF2DEE
:101B7C00CF2D2008A8022108A93B2208AA3B230844
:101B8C00AB3B2408AC3B2508AD3B2608AE3B2708F5
:101B9C00AF3BA736A60CA50CA40CA30CA20CA10C55
:101BAC00A00C0130F102031DDC2DDD2D9D2D7208E2
:101BBC000319E12DE22D002EA809A909AA09AB09E8
:101BCC00AC09AD09AE09AF09A80A031D002EA90A7C
:101BDC00031D002EAA0A031D002EAB0A031D002EA6
:101BEC00AC0A031D002EAD0A031D002EAE0A031D08
:101BFC00002EAF0A20002808A0002908A1002A08FE
:101C0C00A2002B08A3002C08A4002D08A5002E0868
:101C1C00A6002F08A70008002000BA002100E11B35
:101C2C00182E192E1D2EFD30E205FF30E30561083C
:101C3C00803AFD0080307D02031D262E01306002AB
:101C4C000318292E2A2E302E01302000B800003027
:101C5C00B900382E210061082000B900210060086D
:101C6C002000B80021005F082000BC0021005E08A5
:101C7C002000BB003008BD003108BE003208BF0098
:101C8C003308C0003408C1003508C2003608C30050
:101C9C003708C4001F30C5000030C6002300BF0148
:101CAC00B82EFF302000C507FF30C63D0A30A0001B
:101CBC00A101A201A301A401A501A601A7013D0850
:101CCC00A8003E08A9003F08AA004008AB00410844
:101CDC00AC004208AD004308AE004408AF0094319C
:101CEC004C248E3120002008303EFD004508A03EDB
:101CFC008600013087007D088100FF30B807FF3077
:101D0C00B93DFF30BB07FF30BC3D0A30A000A1013C
:101D1C00A201A301A401A501A601A7013D08A800E9
:101D2C003E08A9003F08AA004008AB004108AC00DF
:101D3C004208AD004308AE004408AF0088310820CB
:101D4C008E3120002008BD002108BE002208BF00F3
:101D5C002308C0002408C1002508C2002608C300BF
:101D6C002708C4002000450846040319BE2EBF2EC8
:101D7C00EB2E3D083E043F0440044104420443045E
:101D8C004404031DCA2ECB2E572E3908803AFD0071
:101D9C0080307D02031DD42E013038020318D72E5B
:101DAC00D82E572E20003C08803AFD0080307D0252
:101DBC00031DE22E01303B02031CE52EE62EEB2E1A
:101DCC002100E218EA2EEB2E572E20004508A03EEB
:101DDC00FD007D08A4003C08A6003B08A5003A08BD
:101DEC00923183228E3120002508B1002408B000E6
:101DFC000800F2012030860000308700473FF000D9
:101E0C00F01F092F0A2F2B2F2000A009A109A209CE
:101E1C00A309A409A509A609A709A00A031D292F2E
:101E2C00A10A031D292FA20A031D292FA30A031D92
:101E3C00292FA40A031D292FA50A031D292FA60A41
:101E4C00031D292FA70AF201F20A28308600003060
:101E5C008700473FF000F01F342F352F582F2000FC
:101E6C00A809A909AA09AB09AC09AD09AE09AF09C2
:101E7C00A80A031D542FA90A031D542FAA0A031DD7
:101E8C00542FAB0A031D542FAC0A031D542FAD0A5B
:101E9C00031D542FAE0A031D542FAF0A0130F0005E
:101EAC007008F20673308600003087000830F000AE
:101EBC0000301E00F00B5F2F2000200821042204AC
:101ECC002304240425042604270403196E2F6F2FE2
:101EDC00CB2FF101F10A7E2FA035A10DA20DA30D80
:101EEC00A40DA50DA60DA70D0130F0007008F1078B
:101EFC00A71F812F822F722FF335F40DF50DF60DE0
:101F0C00F70DF80DF90DFA0D27082F02031DA82F58
:101F1C0026082E02031DA82F25082D02031DA82F0D
:101F2C0024082C02031DA82F23082B02031DA82F05
:101F3C0022082A02031DA82F21082902031DA82FFD
:101F4C0020082802031CAB2FAC2FBD2F2008A802A1
:101F5C002108A93B2208AA3B2308AB3B2408AC3B35
:101F6C002508AD3B2608AE3B2708AF3B7314A736BC
:101F7C00A60CA50CA40CA30CA20CA10CA00C01305B
:101F8C00F102031DCA2FCB2F822F72080319CF2FFA
:101F9C00D02FEE2FF309F409F509F609F709F80922
:101FAC00F909FA09F30A031DEE2FF40A031DEE2FAB
:101FBC00F50A031DEE2FF60A031DEE2FF70A031D7B
:101FCC00EE2FF80A031DEE2FF90A031DEE2FFA0A65
:101FDC0073082000A0007408A1007508A200760800
:101FEC00A3007708A4007808A5007908A6007A0851
:041FFC00A700080032
:102006000234043400340034003400340034003424
:1020160000340034123402343F3406345B344F3417
:1020260066346D347D3407347F346F34273410348E
:1020360002340034083410342000A10039287A080C
:1020460084007B0885000008FC007C082000A000B6
:102056000130FA070030FB3D2008FC007C08F30045
:10206600F401F40A210892312A2290317A08840078
:102076007B0885001200031D4128422822280800FB
:102086002100AD00A730AB002B08AC002D08AB003B
:102096002B08AE00AF01B001B101B2012608200045
:1020A600EE00210025082000ED00AC302100AB0039
:1020B6002B082000EF00AE309031942090312100A3
:1020C6002F082D07AB002B08860087018101080029
:1020D6002000A300A101A20183282008F900FA012B
:1020E6007908F0007A08F1007808FB007B08F20016
:1020F60080310720903101302000A1070030A23D39
:1021060021082307F90079088600013087000108B5
:10211600FA007A08A0002008031D92289328702848
:1021260008002100A20020006E082100A400200063
:102136006D082100A300DC01DD01B928A330A00051
:1021460020082000CE006F082100A10021082000F1
:10215600CF002100220883317A23903120004E08D7
:102166002100DC0720004F082100DD3D2308840004
:10217600240885001200031DC128C228A1285D0875
:102186002000EE0021005C082000ED000800200081
:10219600A500210068082000A30021006708200090
:1021A600A200210066082000A10021006508200089
:1021B600A0002508023E8600013087007B08010248
:1021C6000318E628E728F1282508023E8600013094
:1021D60087000108FF3EFC007C08FB007B08203ED0
:1021E6008600870101087A078038FC007C08A40075
:1021F6002408FC007C08F300F401250892312A2209
:10220600903108002100C7004708033E86000130D0
:1022160087003308C03F3408C13F4708053E8600A3
:10222600013087003508C03F3608C13F0F30A50092
:10223600A030A6003408A8003308A700B7309031B4
:10224600432091312100470A8600013087000108AA
:10225600913141219131B730FA000030FB00210065
:10226600470A860001308700010890311F2091310E
:10227600210047088B316423913108002000AA0011
:10228600A8016F29A90161292908A6002608FA00D4
:102296002808A7002708FB002A089031CA20913198
:1022A6004D30FA00A030FB0020002A0890311F2094
:1022B600913101302000A6002608A9072A0A8600C7
:1022C6000130870001082902031C6A296B29472966
:1022D6000130A6002608A8072A08023E860001301B
:1022E600870001082802031C79297A294529FA0161
:1022F600FB012A089031CA2091310800F601F31F2C
:10230600852986298D29F209F309F20A0319F30AA8
:10231600F601F60AF11F902991299629F009F1098B
:10232600F00A0319F10A7008710403199B299C2904
:10233600C529F501F50AA8290130F035F10D890BFB
:10234600A0290130F4007408F507F11FAB29AC2968
:102356009F2971087302031DB22970087202031CBB
:10236600B529B629BA297008F2027108F33B013083
:10237600F136F00C890BBB290130F502031DC42987
:10238600C529AC2976080319C929CA29CF29F20912
:10239600F309F20A0319F30A7308F1007208F00050
:1023A6000800F7007208F3007308F50077089E31FD
:1023B6007E269131F60177089E3173269131751C80
:1023C600E529E629EB2977089E3189269131EF29FF
:1023D60077089E319426913177089E31682691318F
:1023E6007536F3007308F5000130F3007308F6073D
:1023F60008307602031C002A012ADE2977089E315E
:102406007326913177089E318926913177089E315E
:102416006826913177089E31AA2691317708953141
:10242600A3259131F3007308F4007408031D1C2AD8
:102436001D2A252A77089E319F26913177089E31DD
:102446009426913177089E319F2691310800F90034
:102456007908033E8600013087007308F0390104CD
:102466007404F5007508F7007908033E860001300C
:1024760087007308F5000330F535FF3E031D3F2A3C
:102486007535F03901047404F6007608F80077080B
:10249600F5007508F10079089F310F27923177080A
:1024A6000438F5007508F10079089F310F2792313D
:1024B6007708FB39F5007508F10079089F310F2779
:1024C60092314230890B652A00327808F50075088A
:1024D600F10079089F310F27923178080438F5000A
:1024E6007508F10079089F310F2792317808FB397A
:1024F600F5007508F10079089F310F279231080021
:102506002000AB002100621C892A8A2A932A200017
:102516002B08FC007C08F800240890316B209231CF
:102526002000A61B972A982A9D2A2608AA00250875
:10253600A9009F2AA901AA01A701A801B32A203050
:10254600F0000030F10020002B08FC007C08F200AF
:1025560080310720923101302000A7070030A83DC6
:102566002808803AFC002A08803A7C02031DBD2A0E
:1025760029082702031CC02AC12AA22A21006218A0
:10258600C52AC62ACF2A20002B08FC007C08F800A2
:10259600240890316B209231200024089F318D272A
:1025A6009231200029087007A4002A08713DA50071
:1025B60008000030FC000030FB000030FA0000305C
:1025C600F90073087204710470040319EB2AEC2AEB
:1025D6002D2BFD01FD0AFA2A0130F035F10DF20D21
:1025E600F30D890BF02A0130F8007808FD07F31F78
:1025F600FD2AFE2AEF2A0130F935FA0DFB0DFC0DF6
:10260600890BFF2A73087702031D132B72087602C3
:10261600031D132B71087502031D132B700874021A
:10262600031C162B172B202B7008F4027108F53BA0
:102636007208F63B7308F73B79140130F336F20C57
:10264600F10CF00C890B212B0130FD02031D2C2B04
:102656002D2BFE2A7C08F3007B08F2007A08F10095
:102666007908F00008002000A10021089F313F27CB
:1026760093314030FB007B08F200200021089131A5
:10268600D4219331200021089F315927933120000E
:1026960021089F313F2793317A080339C03EFB005A
:1026A6007B08F200200021089131D42193312000CB
:1026B600A001702B20087807FB007B0886008701A5
:1026C6000108FC007C08F20021089131D4219331E5
:1026D6000130FB007B082000A00779082002031CBC
:1026E600752B762B5D2B21089F31592793312000BE
:1026F60021089F313F279331210064080F39803E1E
:10270600FB007B08F200200021089131D42193318F
:10271600200021089F315927933108007108F800DD
:102726007008F7007308FA007208F9000130F40225
:102736000030F53B740A031DA42B750A031DA42B58
:10274600A52BB42BF001F101EC2B0130F70700307B
:10275600F83D0130F9070030FA3D0130F40200304F
:10276600F53B770884007808850012000319BC2B16
:10277600BD2BDC2B790884007A088500120003192A
:10278600C52BC62BDC2B740875040319CB2BCC2B5D
:10279600DC2B790884007A0885000008F6007708A3
:1027A600840078088500000876060319DB2BDC2BED
:1027B600A82B77088400780885000008F6007908B9
:1027C60084007A08850000087602F000F101031CF7
:1027D600F1030800F601F11FF12BF22BF92BF0099A
:1027E600F109F00A0319F10AF601F60AF31FFC2BA8
:1027F600FD2B062CF209F309F20A0319F30A01303C
:10280600F4007408F606F701F8017008710403195C
:102816000D2C0E2C3D2CF501F50A1A2C0130F03545
:10282600F10D890B122C0130F4007408F507F11F25
:102836001D2C1E2C112C0130F735F80D890B1F2C81
:1028460071087302031D292C70087202031C2C2CBC
:102856002D2C322C7008F2027108F33B77140130EC
:10286600F136F00C890B332C0130F502031D3C2C9C
:102876003D2C1E2C76080319412C422C472CF709B7
:10288600F809F70A0319F80A7808F1007708F00042
:10289600080020002008210422042304240425041F
:1028A600260427040319582C592CAC2CF101F10AE3
:1028B600682CA035A10DA20DA30DA40DA50DA60D86
:1028C600A70D0130F0007008F107A71F6B2C6C2CC8
:1028D6005C2C27082F02031D8A2C26082E02031DB6
:1028E6008A2C25082D02031D8A2C24082C02031D80
:1028F6008A2C23082B02031D8A2C22082A02031D78
:102906008A2C21082902031D8A2C20082802031C70
:102916008D2C8E2C9E2C2008A8022108A93B22086B
:10292600AA3B2308AB3B2408AC3B2508AD3B260855
:10293600AE3B2708AF3BA736A60CA50CA40CA30CF0
:10294600A20CA10CA00C0130F102031DAB2CAC2C87
:102956006C2C2808A0002908A1002A08A2002B0830
:10296600A3002C08A4002D08A5002E08A6002F08F9
:10297600A70008002100D5001D30A500A030A60044
:10298600550886000130870001080A3E860001309E
:102996008700403FA700413FA8005508033E860038
:1029A60001308700403FA900413FAA00B530903171
:1029B600432094313E302100A500A030A6005508E2
:1029C600073E8600013087000108B300B4013308D2
:1029D600A7003408A800C530903143209431210067
:1029E600550A860001308700010891314121943152
:1029F600B5302000A6000030A700A801A9012100DB
:102A0600550A86000130870001089F312727943137
:102A1600C5302000A6000030A700A801A901A90A18
:102A26002100550A86000130870001089F312727BB
:102A36009431210055088600013087000130473F58
:102A4600FD005508023E86000130870001088931E5
:102A5600E3219431080003102000560D570DD800CD
:102A66005808DE005E08031D392D3A2D432D00302F
:102A7600D7000030D6000030D5000030D400A22D9B
:102A86005408D8005508D9005608DA005708DB0064
:102A96001F30DB36DA0CD90CD80C890B4C2D5808B4
:102AA600DC005C08DD00D617FF30D405FF30D50505
:102AB600FF30D6050030D7059630DE02DE1F642DC6
:102AC600652D7D2D5E08803A973E03186B2D6C2D83
:102AD6006D2D3A2D0130D736D60CD50CD40C890B7A
:102AE6006E2D0130D8005808DE07031D7B2D7C2D86
:102AF6006D2D922D20305E02031C822D832D8D2D8F
:102B06003A2D0130D435D50DD60DD70D890B852D2F
:102B16000130DE025E08031D912D922D842D5D0885
:102B26000319962D972DA22DD409D509D609D709B3
:102B3600D40A0319D50A0319D60A0319D70A0800B5
:102B4600F100710A8600013087000103031DAC2DD8
:102B5600AD2DB12D20000D0801391A2E710A8600FF
:102B66000130870002300106031DBA2DBB2DBF2D93
:102B760020000D0C01391A2E710A860001308700DB
:102B860004300106031DC82DC92DCE2D20000D0CC5
:102B9600890C01391A2E710A860001308700083027
:102BA6000106031DD72DD82DDF2D20000D0CF000BA
:102BB600F00C700C01391A2E710A8600013087005C
:102BC60010300106031DE82DE92DED2D20000D0E18
:102BD60001391A2E710A860001308700203001065D
:102BE600031DF62DF72DFC2D20000D0E890C013945
:102BF6001A2E710A86000130870040300106031D37
:102C0600052E062E0C2E20000D0E890C890C01397E
:102C16001A2E710A86000130870080300106031DD6
:102C2600152E162E1A2E20000D0D0D0D0139080039
:102C36002100C400440A860001308700010897314C
:102C4600572796312100440A860001308700010883
:102C56009E31F82696312B302000A600A030A70022
:102C6600A801A9012100440A860001308700010855
:102C76009F312727963100302000A600A030A700FC
:102C8600A801A901A90A2100440A8600013087008B
:102C960001089F312727963121004408023E86000D
:102CA6000130870001089E31D1269631FD012100B1
:102CB6004408023E86000130870001088931E3217D
:102CC600963132302100B30033082000A0002100E5
:102CD600440886000130870001088C31452496316E
:102CE600210044088600013087000108023E860064
:102CF6000130870020002008C03F2108C13F22087C
:102D0600C23F2308C33F36302100A500A030A600ED
:102D160044088600013087000108063E860001301F
:102D26008700403FA700413FA800423FA900433F1C
:102D3600AA00B4309031432096312100440A86001F
:102D4600013087000108913141219631B430FA00F3
:102D56000030FB002100440A86000130870001088C
:102D660090311F20963108002000EB006B08023ED0
:102D7600860001308700403FDF00413FE000423FD0
:102D8600E100433FE2006B08063E86000130870003
:102D9600403FE300413FE400423FE500433FE60099
:102DA60062086602031DE12E61086502031DE12E1D
:102DB60060086402031DE12E5F0863020318E42E17
:102DC600E52EEE2E6B080A3E8600013087000030A5
:102DD600C03FC13F562F6B08023E86000130870078
:102DE600403FDF00413FE000423FE100433FE20059
:102DF6006B08063E860001308700403FE300413FF6
:102E0600E400423FE500433FE6005F08E302600856
:102E1600E43B6108E53B6208E63B6608F3006508AB
:102E2600F2006408F1006308F000003089313721B0
:102E3600963173082000EA007208E9007108E8007C
:102E46007008E7004330A300F630A2008030A100EE
:102E56000030A0006A08A7006908A6006808A50057
:102E66006708A4008131C621963120002308EA00B4
:102E76002208E9002108E8002008E7006A08D700D0
:102E86006908D6006808D5006708D40095312E2554
:102E9600963120006B080A3E8600013087005408F0
:102EA600C03F5508C13F0800F8000530F7000F3055
:102EB600F600F130890B5D2FF60B5D2FF70B5D2FBA
:102EC60000003030F6007608F30078089F31C227FC
:102ED60097310D30F600FC30890B6F2FF60B6F2FF4
:102EE6003030F6007608F30078089F31C227973114
:102EF6000D30F600FC30890B7E2FF60B7E2F30301E
:102F0600F6007608F30078089F31C2279731C8305B
:102F1600890B8B2F2030F6007608F30078089F3156
:102F2600C22797310630890B962F00322030F600E3
:102F36007608F30078089F31C22797314230890B13
:102F4600A22F00328030F6007608F30078089F3111
:102F5600C2279731F30178089F31C2279731423053
:102F6600890BB32F0032C030F6007608F3007808DC
:102F76009F31C2279731F30178089F31C2279731D5
:102F86004230890BC42F00321030F6007608F30069
:102F960078089F31C22797310D30F600FC30890B37
:102FA600D22FF60BD22FF30178089F31C227973123
:102FB6004230890BDC2F00326030F6007608F300D1
:102FC60078089F31C2279731F30178089F31C227CD
:102FD60097314230890BED2F00322030F60076080B
:102FE600F30078089F31C22797310830F600CA30BF
:0A2FF600890BFB2FF60BFB2F0800E0
:103C30001630210097000800640080010131890BD3
:103C40001D2E0034FE0012001E00FE0B232E003439
:103C5000703021009900980122009601080024008C
:103C600016151619342E352E312E080079080F3905
:103C70002C3E860001308700010808009F31A727ED
:103C80009E319E3128269E319E3118269E31080095
:103C90009E31B5269E31240016141618502E512E32
:103CA0004D2E0800F10071088600013087000108E0
:103CB000F000700822008D040800F10071088600F1
:103CC000013087000109F000700822008D0508000E
:103CD000F10071088600013087000108F0007008CB
:103CE00022008D040800F100710886000130870071
:103CF0000109F000700822008D050800F10071082C
:103D00008600013087000109F000700821008D0550
:103D10000800F100710A8600013087000108F000F8
:103D2000700822008D040800F100710A860001303D
:103D300087000109F000700822008D050800F100DD
:103D4000710A8600013087000109F0007008210027
:103D50008D050800F100710A860001308700010816
:103D6000F000700821008D040800240016081F3997
:103D7000031DBB2EBC2EB52E1419BF2EC02EB52E82
:103D80000800F0007008240091001418C82EC92EF5
:103D9000C52E161BCC2ECD2EC92E9E31B5269E319A
:103DA00008002000AD000F30AC002C08F000F1013D
:103DB000F10A2D089E31E4269E31FD0120002D08D8
:103DC0008931E3219E3108007103031DE82EE92E9D
:103DD000F12E700807390838F20072082100E4005B
:103DE000F72E70080739F20072082100E40008007D
:103DF000F4000830F3007308F10074089F310F27B6
:103E00009E310830F3007408033E860001308700BD
:103E1000730881000630890B0B2F00320800F20076
:103E20009E3148269F317208860001308700013597
:103E30009E31C1269F3171089E31C1269F319E312E
:103E40002F269F310630890B232F00320800FD00FA
:103E500020002808AA002A08FA002908AB002B082D
:103E6000FB007D089031CA209F3120002708FB000D
:103E70002608FA007D0890311F209F310800F200CB
:103E800072089E319F269F3172089E317E269F3197
:103E900072089E3189269F3172089E3168269F31B3
:103EA00072089E3194269F3172089E3173269F318D
:103EB0000800F20072089E319F269F3172089E31E1
:103EC0007E269F3172089E3173269F3172089E3183
:103ED00094269F3172089E3168269F3172089E3168
:103EE00089269F3108007408803AF50080307502F9
:103EF000031D7C2F0130730203187F2F802F8C2F1E
:103F00007309F5007409F600F50A0319F60A750835
:103F1000F3007608F4008C2F0800F4007408F20017
:103F20007208F300972F0130F2007208F40774084A
:103F30008600013087000108031D9F2FA02F932FBB
:103F400073087402F000F101F01BF1030800220075
:103F500090018C018D018E01083021009000FF300E
:103F60008C00FF308D00FF308E00FE3023008D006E
:103F70001F308C00240090018D0121009517220034
:103F80009D010800F5007308F4007408F10075083D
:103F90009F310F279F3173080438F4007408F10033
:103FA00075089F310F279F317308F4007408F100E2
:103FB00075089F310F279F310800F800F401F501C3
:103FC0007008F200F3017208F6007308F700781C1D
:103FD000EA2FEB2FEF2F7608F4077708F53D013035
:103FE000F635F70D890BF02F0310F80C7808031D38
:103FF000FA2FFB2FE72F7508F1007408F000080076
:104000004C346F34613464342034633465346C343C
:104010006C34203455346E34693474340034733461
:104020006534743420346D346134783420346D3424
:104030006C342034253464340034253464346D34D5
:104040006C3420346D34613478343D342534643438
:104050006D346C34003449346E34693474346934EA
:1040600061346C3469347A346534003425346C340A
:1040700075342034763461346C340034253464343F
:1040800020342534253400346C34643400346C34EA
:0E409000693400346C3475340034203400344C
:020000040001F9
:04000E00E43FFF1EAE
:00000001FF
