:08000000803102288731E02F56
:100F1800163021009700080000344034143454344B
:100F2800FE0012001E00FE0B952F003470302100C9
:100F3800990098012200960108008731CA27873155
:100F480087319A27873187318C27873108003F34CA
:100F580006345B344F3466346D347D3407347F3463
:100F68006F348731A127873123008C018D0102302E
:100F780021008C0022008C018D0113302400920086
:100F880028309500960194018031022822008C01B6
:100F98008D01FF3021008C00FF308D00FE302300D2
:100FA8008D001F308C0024008D018C0121009517C5
:100FB80022009D019E010800903084008730850042
:100FC80075308600003087000430873194278731D8
:100FD800AB308400873085002030860000308700E1
:100FE8000A30873194278731F001F101F201F301CA
:100FF800F40120008731B52F4C346F3461346434E8
:101008002034633465346C346C34203455346E3495
:1010180069347434003449346E346934743469344E
:1010280061346C3469347A3465340034253464347A
:10103800673420342F342034253464346734003442
:1010480025346C3475342034763461346C3400348F
:0E105800253464342034253400342034003430
:020000040001F9
:04000E00E43FFF1EAE
:00000001FF
