:08000000803102288731EC2F4A
:100C540022008C14080022000C15080021000C1539
:100C64000800163021009700080020000C0C890CA5
:100C740001390800FD30F000700822008C050800DE
:100C8400FD30F000700821008C050800FB30F000F6
:100C9400700822008C050800FB30F0007008210069
:100CA4008C050800FE0012001E00FE0B552E0034B9
:100CB4007030210099009801220096010800F0008C
:100CC40070080F39203E860087010108080086312C
:100CD400CF26863186315A268631863133268631AF
:100CE40008003F3406345B344F3466346D347D344D
:100CF40007347F346F34FF34FF34FF34FF348631DC
:100D04004E26863186314226863186312D2686311D
:100D140086312A26863186314826863186313C261C
:100D24008631080086314E26863186314226863148
:100D340086313C26863186314826863186312A26FC
:100D4400863186312D268631080000302000B1001E
:100D54000030B0000030AF000030AE000430FB00C3
:100D64007B08F600F7012E308631E526863108002F
:100D7400F2007003031DBF2EC02EC82E720807395F
:100D84000838F10071082000BC00CE2E7208073923
:100D9400F10071082000BC00080022008C018D01C4
:100DA400FF3021008C00FF308D00FE3023008D00C9
:100DB4001F308C0024008D018C0121009517220026
:100DC4009D019E010800F90086318126863140305C
:100DD40087312027863186319426863186318126D3
:100DE400863177080339C03E873120278631FA01DE
:100DF400092F7A087907F800780886008701010826
:100E04008731202786310130F8007808FA07760800
:100E14007A02031C0E2F0F2FFB2E86319426863167
:100E240086318126863120003C080F39803E873187
:100E3400202786318631942686310800F200720814
:100E4400F1007108F400863142268731F5018631BC
:100E54003C268731741C2F2F302F342F86312D26BA
:100E64008731372F86314826873186312A268731C4
:100E74007436F1007108F4000130F1007108F507CF
:100E840008307502031C472F482F292F86313C2632
:100E9400873186312D26873186312A26873186315E
:100EA40030268731863137268731F1007108F30007
:100EB4007308031D5E2F5F2F652F86314E26873101
:100EC40086314826873186314E268731080086319F
:100ED4006926873123008C0121008C0122008C01BA
:100EE4008C1720002D08B6002C08B5002B08B40080
:100EF4002A08B3008631A72687310130863161265E
:100F04008731FC007C082000B3000930863161265B
:100F14008731FC007C082000B4000830863161264B
:100F24008731FC007C082000B5000430863161263E
:100F34008731FC007C082000B600F001F00A0F3075
:100F44008631BA2687310430FC007C08F600F701AC
:100F540033308631E52687312000B20122008C1718
:100F64002000B70137083207863161268731FC003B
:100F740020003708333E860087017C088100013059
:100F8400FC007C08B70704303702031CCA2FCB2FA0
:100F9400B42F0430FC007C08F600F70133308631AE
:100FA400E52687310B30FD002630FC005E30890BCE
:100FB400D92FFC0BD92FFD0BD92F0130FC007C0855
:100FC4002000B2077F30FC007C0822008C05B02F83
:100FD40080310228733084008630850020308600FA
:100FE400003087000E30863154268731B801B901AC
:0C0FF400BA01BB01BC0120008731692F4D
:020000040001F9
:04000E00E43FFF1EAE
:00000001FF
